:100000000C9448010C9479010C9479010C947901B9
:100010000C9479010C9479010C9479010C94790178
:100020000C9479010C9479010C9479010C94790168
:100030000C9479010C9479010C9479010C94790158
:100040000C9479010C9479010C9479010C94790148
:100050000C9479010C9479010C9479010C948F091A
:100060000C9479010C9479010C9479010C94790128
:100070000C9479010C9479010C9479010C94790118
:100080000C9479010C9479010C9479010C94790108
:100090000C9479010C9479010C9479010C94D90990
:1000A0000C9479010C9479010C9479010C947901E8
:1000B0000C9479010C9479010C9479010C947901D8
:1000C0000C9479010C9479010C9479010C947901C8
:1000D0000C9479010C9479010C9479010C947901B8
:1000E0000C9479010C9480020C947A020C943E06D4
:1000F0000C94250F0C9469020C94FE020C948E0251
:100100000C9465020C9468060C943F060C94100243
:100110000C9488020C9496020C949C020C94A002FD
:100120000C9484020C94CD020C9495060C946106F8
:100130000C946D020C94FD0A0C940C080C94700243
:100140000C949B020C940E020C94C9060C94F004BF
:100150000C9476020C945B020C9461020C940F02D6
:100160000C9492020C943E030C944E060000210065
:10017000240027002A002D00300033000101000078
:10018000040107010A0100002200250028002B00BD
:100190002E003100340002010000050108010B01AE
:1001A000000020002300260029002C002F00320030
:1001B0000001000003010601090105050505070509
:1001C00008080808020202020A0A080804040404D3
:1001D00001010101010101010303030303030303FF
:1001E000040707070C0C0C0C0C0C0C0C020202028E
:1001F00006060606060606060B0B0B0B0B0B0B0B77
:100200000102102020080810204010204080020128
:10021000020108040201010204081020408080400D
:10022000201008040201800402018040201008040C
:1002300002010804020101020408102040800102AA
:1002400004081020408000000A0B02090C0D0E0863
:10025000070304010000000000000000000000008F
:10026000000000000000000000000000000000008E
:10027000000012111000000000000000000000004B
:10028000000000000000000000000000FD0A250F33
:1002900011241FBECFEFD1E2DEBFCDBF00E00CBF07
:1002A00024E0AEEAB2E001C01D92A632B207E1F747
:1002B00012E0A0E0B2E0E4E3F3E200E00BBF02C032
:1002C00007900D92AE3AB107D9F711E0C7E4D1E03B
:1002D00000E006C021970109802FFE010E946A0FED
:1002E000C634D10780E00807A9F70E943F0C0C94A0
:1002F00088110C94000096E0899FD0011124AD5420
:10030000BC4F90967C936E935F9791E091969C93EF
:100310009197E0912004F091210490911F0499237A
:1003200039F0309751F0811108C08091CF031994B2
:10033000309719F05C968C91FACF0895CF92DF92A6
:10034000EF92FF920F931F9396E0899FF001112483
:10035000ED54FC4F11A2278D30A12130310551F110
:1003600078F02230310509F451C02330310509F409
:1003700052C01F910F91FF90EF90DF90CF900895A2
:100380006623B9F361E070E00E947B012FB7F89417
:100390008091230390912403A0912503B09126031B
:1003A0002FBF80930B0490930C04A0930D04B09383
:1003B0000E04DFCF9FB7F894C0902303D09024039E
:1003C000E0902503F09026039FBF00910B0410914D
:1003D0000C0420910D0430910E04C01AD10AE20AD7
:1003E000F30A00911D0410911E0430E020E00C156A
:1003F0001D052E053F0550F462E070E01F910F913E
:10040000FF90EF90DF90CF900C947B016111B1CF02
:1004100063E070E0F3CF70E060E0F0CF08950895FE
:10042000AF92BF92CF92DF92EF92FF920F931F9302
:10043000CF93DF936C017B018B01040F151FEB0140
:100440005E01AE18BF08C017D10759F06991D601F7
:10045000ED91FC910190F081E02DC6011995892B59
:1004600079F7C501DF91CF911F910F91FF90EF9028
:10047000DF90CF90BF90AF9008958150823108F007
:100480005AC0E82FF0E08827E75BFD4F8F4F0C94B0
:100490006A0F69026D025B02610265029B027002D3
:1004A00076027A028002840288028E0292029B0205
:1004B00096029C02A002809180008F77809380003A
:1004C0000895809180008F7DF9CF80918000877F93
:1004D000F5CF84B58F7784BD089584B58F7DFBCF2C
:1004E0008091B0008F778093B00008958091B00024
:1004F0008F7DF9CF809190008F7780939000089541
:10050000809190008F7DF9CF80919000877FF5CF0B
:100510008091A0008F778093A00008958091A00023
:100520008F7DF9CF8091A000877FF5CF809120014A
:100530008F77809320010895809120018F7DF9CFDE
:1005400080912001877FF5CFCF93DF93282F30E074
:10055000F901EA5BFD4F8491F901E050FE4FD4911F
:10056000F901E654FE4FC491CC23A1F081110E9401
:100570003D02EC2FF0E0EE0FFF1FE056FE4FA5917D
:10058000B491EC91ED2381E090E009F480E0DF91FB
:10059000CF91089580E090E0FACF862F0C94A402CA
:1005A0001F93CF93DF93282F30E0F901EA5BFD4FD3
:1005B0008491F901E050FE4FD491F901E654FE4FC9
:1005C000C491CC23A9F0162F81110E943D02EC2F7B
:1005D000F0E0EE0FFF1FEA57FE4FA591B4918FB7E1
:1005E000F894EC91111108C0D095DE23DC938FBFF5
:1005F000DF91CF911F910895DE2BF8CF862F642FC6
:100600000C94D002CF93DF9390E0FC01E050FE4FBA
:10061000249186549E4FFC0184918823C9F090E078
:10062000880F991FFC01E459FE4FA591B491FC017C
:10063000EA57FE4FC591D49161110DC09FB7F89450
:100640008C91209582238C938881282328839FBFB7
:10065000DF91CF910895623051F49FB7F8943C91A7
:10066000822F809583238C93E8812E2BEFCF8FB739
:10067000F894EC912E2B2C938FBFEACF862F642F0A
:100680000C9402036F927F928F929F92AF92BF92CF
:10069000CF92DF92EF92FF920F931F93CF93DF934E
:1006A00081E080931F048FB7F89440912303509109
:1006B000240360912503709126038FBF80910F045E
:1006C00090911004A0911104B0911204481B590B91
:1006D0006A0B7B0B80911B0490911C04B0E0A0E09E
:1006E00084179507A607B70708F01DC1C0E08091E1
:1006F0001904C81760F4E0911504F0911604EC0F8A
:10070000F11D62E080810E940203CF5FF0CF712C67
:10071000812C912C5401839480911A04781608F04E
:100720005FC0072D10E0E0911704F0911804E00F6E
:10073000F11F61E080810E940203E0911704F091B3
:100740001804E00FF11F60E080810E94D002D50103
:10075000C401072C04C0880F991FAA1FBB1F0A944D
:10076000D2F76C017C01E094F094612C8091190423
:100770006816F8F4C62DD0E0E0911504F091160447
:10078000EC0FFD1F80810E94A4022496CC0FDD1F78
:10079000CD54DC4F892B41F4888199818C299D2986
:1007A000998388836394E2CF888199818E219F21E8
:1007B000F7CFE0911704F0911804E00FF11F61E00A
:1007C00080810E94D0028091170490911804080F34
:1007D000191F60E0F80180810E94020373949CCF8E
:1007E000C3EBD3E0FE018FEF9FEF278D30A1232BCA
:1007F00021F4148E968F858F11A2369623E0EF3E5A
:10080000F20799F7F12C96E0D92E80911904F81689
:1008100008F050C0E12C0F2D10E0000F111F0554FF
:100820001C4F20911A04E21608F042C0F8016081C2
:1008300071810E2C02C0769567950A94E2F7F29EBC
:10084000900111242E0D311DE3EBF3E080E0458D86
:10085000568D2417350709F46AC08F5F36968A30A3
:10086000B1F760FF23C0E3EBF3E090E080E0448D5C
:10087000411117C0E0911304F0911404E20FF31F2B
:100880004081D89EF001D99EF00D1124ED54FC4F0B
:10089000448F368F258F10A2178E61E00E949E0133
:1008A00005C0019636968A30910509F7E394B9CFD1
:1008B000F394ABCF80E099A19111892F2696F3E0B4
:1008C000CF3EDF07C1F79FB7F894409123035091C3
:1008D000240360912503709126039FBF40930F046A
:1008E0005093100460931104709312048823D9F07C
:1008F0008091D4038823B9F08091D2039091D303DF
:10090000019789F48091CF03DF91CF911F910F91CF
:10091000FF90EF90DF90CF90BF90AF909F908F901F
:100920007F906F90089510921F0480E0EDCF61706A
:10093000B5CF3FB7F8948091F3029091F402A09163
:10094000F502B091F60226B5A89B05C02F3F19F01D
:100950000196A11DB11D3FBFBA2FA92F982F88273F
:10096000BC01CD01620F711D811D911D42E0660F1A
:10097000771F881F991F4A95D1F708958F929F92EC
:10098000AF92BF92CF92DF92EF92FF924B015C0148
:100990000E9499046B017C010E9499046C197D09E5
:1009A0008E099F09683E734081059105A8F321E0F7
:1009B000821A9108A108B10888EEC80E83E0D81EFB
:1009C000E11CF11C81149104A104B10429F7FF90EA
:1009D000EF90DF90CF90BF90AF909F908F90089551
:1009E00008952091CF02260F3327331F213231057E
:1009F000ECF420914D03FC0190E080E0243069F09C
:100A000082E00895A091CF022191AC0141555D4F44
:100A1000A40FB52FB11D2C930196861798F38091E2
:100A2000CF02680F6093CF0280E0089581E00895BF
:100A300010924D0381E080934C031092270361E0F4
:100A400084E10E94D00261E085E10E94D002E9EBDE
:100A5000F0E080818E7F808380818D7F808388E439
:100A60008093B80085E48093BC000895CF93DF9312
:100A700091E09093AE028823B9F0C091B800D09174
:100A8000BA008091BC008A7B8093BC0060E084E166
:100A90000E94D00260E085E10E94D0020E94180509
:100AA000D093BA00C093B800DF91CF910895CF9250
:100AB000DF92EF92FF920F931F93CF93DF93D0912A
:100AC000760381E0D13208F09CC0C09175030E948A
:100AD00099046B017C0180914D0381116CC082E00F
:100AE00080934D0381E080934C038FEF80934B0301
:100AF00010924A03D0934903A5E5B3E0E9E2F3E09D
:100B000080E0D8138DC01092280380912803CC0F69
:100B1000C82BC093280380912703813009F084C03B
:100B2000109227030E9499046B017C018091280395
:100B30008093BB0080914F0390915003A09151038B
:100B4000B0915203892B8A2B8B2BA1F00E94990420
:100B500000914F03109150032091510330915203A3
:100B60006C197D098E099F09061717072807390791
:100B700008F442C08091BC0083FDD8CF85EC8093FF
:100B8000BC000E9499046B017C0180914D0382306E
:100B900009F44CC080914B038F3F09F469C08091E8
:100BA0004B03803209F466C080914B03803309F413
:100BB00063C084E026C080914F0390915003A091C0
:100BC0005103B0915203892B8A2B8B2B09F483CFCD
:100BD0000E94990400914F031091500320915103FA
:100BE000309152036C197D098E099F09061717076A
:100BF0002807390708F06FCF80914E030E94360511
:100C000085E0109254031092760310925303DF9103
:100C1000CF911F910F91FF90EF90DF90CF900895AB
:100C20009D9191938F5F6DCF85EEA9CF80914F03FA
:100C300090915003A0915103B0915203892B8A2BBC
:100C40008B2B09F4A2CF0E94990400914F031091BD
:100C5000500320915103309152036C197D098E0984
:100C60009F09061717072807390708F08ECFC4CF4A
:100C700080E0C7CF82E0C5CF83E0C3CF0895E09185
:100C8000FC028091FB02E81730F4F0E0E350FD4FE6
:100C9000808190E008958FEF9FEF08959091FC027E
:100CA0008091FB022FEF3FEF981748F4E92FF0E017
:100CB000E350FD4F208130E09F5F9093FC02C9011B
:100CC00008958091FB029091FC02891B990B089575
:100CD000CF92DF92EF92FF920F931F93CF93DF9308
:100CE0007C01CB018A0120915303222389F0EB017F
:100CF0006B01C40ED51ECC15DD0569F06991D701D5
:100D0000ED91FC910190F081E02DC7011995F3CF91
:100D1000642F0E94F104C801DF91CF911F910F91C0
:100D2000FF90EF90DF90CF900895CF93DF931F92C5
:100D3000CDB7DEB76983209153032223F9F02091C8
:100D40007603203258F021E030E0FC013383228327
:100D500090E080E00F90DF91CF910895809154034F
:100D6000E82FF0E0EB5AFC4F998190838F5F8093DE
:100D700054038093760381E090E0ECCF61E0CE01F4
:100D800001960E94F104F7CF60E087E793E00C94AE
:100D9000950690E080E0089561E081E30E94D00232
:100DA00061E082E30E94D00261E083E30E94D0020E
:100DB00061E084E30C94D002EF92FF920F931F93B3
:100DC000CF93DF937C0109E112E0D0E0C0E0892BF2
:100DD000B1F460E081E30E94D00260E082E30E940F
:100DE000D00260E083E30E94D00260E084E3DF9100
:100DF000CF911F910F91FF90EF900C94D00221960C
:100E0000F80180810E5F1F4F61E0CE15DF0509F00C
:100E100060E00E94D002C430D10589F7DF91CF9104
:100E20001F910F91FF90EF900895CF93DF9381E092
:100E30008093530380E580937503109254031092BE
:100E400076030E94C4060E94C406CDE1D3E06991F6
:100E500087E793E00E94950683E0C332D807B9F78D
:100E60000E94570564E170E080E090E0DF91CF914F
:100E70000C94BE04CF93DF93EC0160E08E810E945E
:100E8000D00261E08E810E94D00260E08E810E94DB
:100E9000D0028BE891E00197F1F7DF91CF910895AF
:100EA000CF92DF92EF92FF920F931F93CF93DF9336
:100EB0006C017C0187E0E80EF11CD0E0C0E0062F59
:100EC00010E0B8010C2E02C0759567950A94E2F700
:100ED0006170F70181917F010E94D0022196C43098
:100EE000D10579F7C601DF91CF911F910F91FF9046
:100EF000EF90DF90CF900C943A07CF92DF92EF9271
:100F0000FF920F931F93CF93DF93EC01F62E642F84
:100F10008C810E94D0028D818F3F19F060E00E9489
:100F2000D0020F2D10E08F8584FF25C06E0187E071
:100F3000C80ED11CF12CE12CB8010E2C02C0759505
:100F400067950A94E2F76170F60181916F010E9442
:100F5000D002FFEFEF1AFF0A88E0E816F10461F70C
:100F6000CE01DF91CF911F910F91FF90EF90DF9015
:100F7000CF900C943A07B80184E0759567958A95EF
:100F8000E1F7CE010E9450076F2DCE01DF91CF9186
:100F90001F910F91FF90EF90DF90CF900C9450072E
:100FA00040E0682F8BE993E00C947D070F931F932B
:100FB000CF93DF93EC018A01662339F081E00E9430
:100FC000D0078BE39FE10197F1F701301105C9F4D8
:100FD000E1E08091AE038111E0E0E195F0E0E556BB
:100FE000FC4F848980680E94D0074C815D816881B4
:100FF00079818BE993E0DF91CF911F910F910C9450
:1010000010020230110589F7E091AE03E23010F4CE
:10101000E150E4CFE1E0E2CF41E00E947D0781E0D2
:1010200090E00895FC0180819181009711F00C946B
:101030000E1008950F931F93CF93DF93EC018881D7
:101040009981009759F02A813B812617370730F0A4
:1010500081E0DF91CF911F910F9108958B016F5F18
:101060007F4F0E949710009759F0998388831B83C4
:101070000A832C813D81232B59F7FC011082E8CF94
:1010800080E0E7CFEF92FF920F931F93CF93DF9310
:101090006115710541F480E0DF91CF911F910F91AF
:1010A000FF90EF90089541155105B1F07B01EC01DF
:1010B0000C811D81040F151FB8010E941A08882396
:1010C00051F3288139818C819D81B701820F931F53
:1010D0000E9481111D830C8381E0DECFFB01019012
:1010E0000020E9F73197AF01461B570B0C944208DB
:1010F000EF92FF920F931F93CF93DF93EC017B014D
:101100008A01BA010E941A0828813981811114C00C
:101110002115310519F0C9010E940E10198218829B
:101120001D821C821B821A82CE01DF91CF911F91FA
:101130000F91FF90EF9008951D830C83B701C901B3
:101140000E948111F1CFCF93DF93EC01FB01861751
:10115000970749F0608171816115710541F0448103
:1011600055810E947808CE01DF91CF910895888142
:101170009981009711F00E940E10198218821D8229
:101180001C821B821A82EFCFFC0111821082138213
:10119000128215821482FB0101900020E9F7319739
:1011A000AF01461B570B0C947808DF92EF92FF9229
:1011B0000F931F93CF93DF93CDB7DEB72C970FB666
:1011C000F894DEBF0FBECDBF7C0163E972E0CE01B3
:1011D00007960E94C40886E08E9DF0018F9DF00D59
:1011E0001124ED57FC4F4481558160817181CE01FE
:1011F00007960E94420869E472E0CE0107960E94B9
:101200006E081A8219821C821B821E821D82BE01F8
:10121000695F7F4FCE0101960E94A30850E040E035
:1012200061E0CE0101960E94D607CE0101960E9490
:10123000120810E000E08AE0D82E0E9442038823C2
:10124000E1F390ED980F9A3068F4D09E9001D19E12
:10125000300D1124082F880F110B00531109020FB4
:10126000131FEBCF833249F7F701E15EFC4F011505
:101270001105B1F484E180830E941507CE01079621
:101280000E9412082C960FB6F894DEBF0FBECDBF99
:10129000DF91CF911F910F91FF90EF90DF90089514
:1012A0000F3F110514F00EEF10E00083E5CF85ED40
:1012B0008093BC0080914F0390915003A091510303
:1012C000B09152030796A11DB11D23E0B695A795D5
:1012D000979587952A95D1F72091BC0024FD03C0EE
:1012E00010924D03089540914F0350915003609127
:1012F000510370915203452B462B472B69F30097FE
:10130000A105B10541F025E32A95F1F70000019709
:10131000A109B109E1CF80914E030C9436051F92CB
:101320000F920FB60F9211242F933F938F939F9399
:10133000AF93BF938091230390912403A091250341
:10134000B09126033091F20223E0230F2D3758F598
:101350000196A11DB11D2093F20280932303909367
:101360002403A0932503B09326038091F302909168
:10137000F402A091F502B091F6020196A11DB11DF3
:101380008093F3029093F402A093F502B093F602D7
:10139000BF91AF919F918F913F912F910F900FBE71
:1013A0000F901F90189526E8230F0296A11DB11DDE
:1013B000D2CF1F920F920FB60F9211240BB60F923D
:1013C0002F933F934F935F936F937F938F939F934D
:1013D000AF93BF93EF93FF938091B900887F8036DE
:1013E00009F44DC008F040C0883209F4A9C028F5BE
:1013F000803109F49DC0C8F4882309F4FBC088300B
:1014000009F496C0FF91EF91BF91AF919F918F9199
:101410007F916F915F914F913F912F910F900BBEF4
:101420000F900FBE0F901F901895883109F488C057
:10143000803241F780934B0314C0803409F49DC07F
:1014400040F48033B9F38833E9F680934B0385EC9D
:10145000B0C0803509F485C0883509F496C0883459
:1014600089F60E945709CECF883909F48CC038F527
:10147000883729F050F4883611F0803719F683E068
:1014800080934D031092F10257C0883809F47BC055
:10149000803919F0803809F0B5CF8091F10280329F
:1014A00008F071C0E091F10281E08E0F8093F102AB
:1014B0008091BB00F0E0EF52FD4F80833DC0803B48
:1014C00039F0E0F4803A09F479C0883A09F09ACF0B
:1014D00084E080934D031092D0021092CF02E091ED
:1014E000F902F091FA0219958091CF0281110FC093
:1014F00081E08093CF021092AF0209C0803C09F4D2
:10150000A6CF883C09F4A3CF883B09F07BCFE091BC
:10151000D00281E08E0F8093D002F0E0E155FD4FC4
:1015200080818093BB009091D0028091CF0229C02E
:10153000809128038093BB0085EC8093BC0062CF30
:1015400090914A0380914903981758F5E0914A0316
:1015500081E08E0F80934A03F0E0E75DFC4F8081CD
:10156000E9CFE0914A0381E08E0F80934A03809196
:10157000BB00F0E0E75DFC4F808390914A038091CF
:1015800049039817C8F285E8D8CFE0914A0381E073
:101590008E0F80934A038091BB00F0E0E75DFC4F23
:1015A000808380914C0381115CCF81E0809327037D
:1015B00084EA8093BC0010924D0324CF85EC809385
:1015C000BC0010924D038091F102803230F4E09122
:1015D000F102F0E0EF52FD4F10826091F10270E0F5
:1015E000E091F702F091F80281ED92E019951092E6
:1015F000F10208CF10924B0334CFCF93DF931092B8
:101600007A031092790388EE93E0A0E0B0E0809333
:101610007B0390937C03A0937D03B0937E0385E2CC
:1016200092E090937803809377031092B503109221
:10163000B9031092B8031092BA0383E492E0909336
:10164000B4038093B303EFECF3E08BE094E01082FB
:1016500014821382158236968E179F07C1F783E096
:1016600092E0909316048093150480E092E09093AA
:1016700018048093170484E08093190483E0809316
:101680001A0487E092E090931404809313048AE094
:1016900090E090931C0480931B0484EF91E090935E
:1016A0001E0480931D0410922104109220041092B5
:1016B0000F04109210041092110410921204109250
:1016C0001F0410929E0310929D0387E392E0909373
:1016D0009C0380939B0386E180939F038FEF80930D
:1016E000A00387E18093A10388E18093A20389E1AD
:1016F0008093A3038AE18093A4038BE18093A503E5
:101700001092A6031092A7031092A8031092A903A7
:101710001092AA0381E08093AE031092AF0380E49D
:101720008093B00380E18093B10380E58093B2039E
:1017300061E086E10E9402038091A0038F3F19F0CF
:1017400061E00E94020361E08091A1030E94020314
:10175000CBE9D3E09E012B5933408091AA0384FD4D
:101760000BC084E090E021962817390744F461E02B
:101770008E810E940203EECF88E090E0F4CF8BE3ED
:101780009DE00197F1F760E080919F030E94D002F5
:1017900060E08091A1030E94D0028091A0038F3F5E
:1017A00019F060E00E94D0028091AA0384FD51C02C
:1017B00063E08BE993E00E945007CBE4D6E4CE01CE
:1017C0000197F1F763E08BE993E00E9450072197BE
:1017D000F1F763E08BE993E00E94500783E592E024
:1017E0000197F1F762E08BE993E00E945007809146
:1017F000AA0380620E94D00784E08093AB038CE050
:101800000E94D00781E00E94D0078BE39FE10197FF
:10181000F1F782E08093AC0386E00E94D0076DE48C
:1018200072E083E893E00E94C40866E572E089E80C
:1018300093E00E94C4086EE572E08FE893E00E9496
:10184000C40869E672E085E993E0DF91CF910C94DA
:10185000C40880620E94D0078BE496E40197F1F7F8
:101860008091AA0380620E94D00783E592E00197ED
:10187000F1F78091AA0380620E94D007B8CFCF937E
:10188000DF93CDB7DEB76E970FB6F894DEBF0FBE0D
:10189000CDBF789484B5826084BD84B5816084BDF9
:1018A00085B5826085BD85B5816085BD80916E00FE
:1018B000816080936E00109281008091810082602F
:1018C000809381008091810081608093810080916C
:1018D00080008160809380008091B100846080935B
:1018E000B1008091B00081608093B0008091910040
:1018F000826080939100809191008160809391003B
:10190000809190008160809390008091A10082601E
:101910008093A1008091A10081608093A1008091BB
:10192000A00081608093A00080912101826080935B
:10193000210180912101816080932101809120010A
:1019400081608093200180917A00846080937A0086
:1019500080917A00826080937A0080917A00816021
:1019600080937A0080917A00806880937A00109248
:10197000C100EDE1F3E086E0DF011D928A95E9F711
:101980001092FC021092FB02109254031092760304
:101990000E9418058EE092E09093FA028093F9027B
:1019A0008FE092E09093F8028093F70209E112E051
:1019B000F801F0800E5F1F4F61E08F2D0E9402033F
:1019C00060E08F2D0E94D002F2E001321F0781F704
:1019D00081E08093530380E5809375030E94C406E1
:1019E0000E94C4060E9457050E9499046B017C0165
:1019F00080914D03811165C081E080934D038093F8
:101A00004C039FEF90934B0310924A0395E0909301
:101A100049038093280380912803806A80932803D8
:101A200080912703813009F0BFC0109227030E94E4
:101A300099046B017C01809128038093BB00809105
:101A40004F0390915003A0915103B0915203892B01
:101A50008A2B8B2BA1F00E94990400914F031091C7
:101A6000500320915103309152036C197D098E0966
:101A70009F09061717072807390708F443C0809104
:101A8000BC0083FDD8CF85EC8093BC000E949904F4
:101A90006B017C0180914D03813009F487C08091F6
:101AA0004A03863008F0A4C080914A03A9E2B3E05B
:101AB000EDEFF2E090E0981751F12D9121939F5FA7
:101AC000FACF80914F0390915003A0915103B091B0
:101AD0005203892B8A2B8B2B09F48ACF0E949904FD
:101AE00000914F0310915003209151033091520304
:101AF0006C197D098E099F090617170728073907F2
:101B000008F076CF80914E030E94360580E0109257
:101B1000FC028093FB020DE113E087E793E00E9453
:101B20004E06D8018D938D01B3E003321B07A9F750
:101B300090E080E00E94DC069FE1E92E93E0F92E20
:101B400010E000E0F70181917F018F3F19F4C80197
:101B50000E94D5080F5F1F4F0430110599F7512CD3
:101B60008E010F5F1F4F86E0282E44244A948091F7
:101B70001D038F3F09F05FC060E772E0C8010E945B
:101B8000C40841E050E061E0C8010E94D607C801E6
:101B90000E9412080E9442038823E1F390ED980FFF
:101BA0009A3040F5592EE8CF85EE6ECF80914F03E5
:101BB00090915003A0915103B0915203892B8A2B2D
:101BC0008B2B09F467CF0E94990400914F03109169
:101BD000500320915103309152036C197D098E09F5
:101BE0009F09061717072807390708F053CF8ACF30
:101BF00086E05CCF833209F08AC08FEF850D843098
:101C0000A8F06EE772E0C8010E94C40842E050E00C
:101C100061E0C8010E94D607C8010E9412086CED5D
:101C200075E080E090E00E94BE04A6CF582E80931D
:101C30001D030E9415070E94150766E872E0C8019F
:101C40000E94C40841E050E061E0C8010E94D6074C
:101C5000C8010E9412086CED75E080E090E00E94DF
:101C6000BE0463E972E0CE0149960E94C40890E088
:101C700080E00E94DC06E0901D03F12C3701970103
:101C8000235E3C4F6901B12CA12C34E0E316F10432
:101C90000CF0BAC0E0921D030E9415078FEFE81AFE
:101CA000F80AC7010E94DC0680911E038F3F11F4E1
:101CB00010921E030E94150793012A0D3B1D229EC0
:101CC000C001239E900D1124DC01AD57BC4F4D0186
:101CD000312C90911E03F6018281981708F089C07B
:101CE0000E9442038A3211F4F1E03F26332019F1B9
:101CF00064E972E0C8010E94C40842E050E060E07C
:101D0000C8010E94D607C8010E941208E2CF8A3299
:101D100009F032CF90E080E00E94D50881E090E0A9
:101D20000E94D50882E090E00E94D50883E090E010
:101D30000E94D50821CFB401CE0149960E94A30884
:101D400062E972E0CE0149960E946E08D6011296B1
:101D50008C9190911E031C8A1B8A1E8A1D8A188EE4
:101D60001F8A4AE0B801891B990B0E94350FF801C0
:101D700001900020E9F73197AF01401B510BB801EA
:101D8000CE0143960E9478084F89588D6B897C89D3
:101D9000CE0149960E944208CE0143960E94120845
:101DA0006EE972E0CE0149960E946E081A8219828D
:101DB0001C821B821E821D82BE01675E7F4FC8018E
:101DC0000E94A30841E050E061E0C8010E94D607EC
:101DD000C8010E94120864EF71E080E090E00E9468
:101DE000BE0480911E038F5F80931E030E9415071F
:101DF00070CF40921E030E941507BFEFAB1ABB0ABB
:101E0000EFEFCE1ADE0A41CF60EA72E0C8010E940D
:101E1000C40850E040E061E0C8010E94D607C80154
:101E20000E9412080E94CC0640921D0340921E039D
:101E30000E94150768EE73E080E090E00E94BE0407
:101E4000CE0149960E94120892CE85E993E00E9445
:101E500012088FE893E00E94120889E893E00E943C
:101E6000120883E893E00C941208BB274A3031F43F
:101E7000992322F4BDE2909581959F4F0C94410FD8
:101E8000BB27FB015527AA27880F991FAA1FA41754
:101E900010F0A41B83955051B9F7A05DAA3308F048
:101EA000A95DA193009779F7B111B1931192CB017C
:101EB0000C945A0FDC01FC01672F71917723E1F735
:101EC000329704C07C916D9370836291AE17BF0707
:101ED000C8F30895EE0FFF1F881F8BBF0790F69180
:101EE000E02D19940F931F93CF93DF9382309105C8
:101EF00010F482E090E0E0912404F091250430E0B9
:101F000020E0B0E0A0E0309799F42115310509F404
:101F10004AC0281B390B24303105D8F58A819B81B2
:101F20006115710589F1FB0193838283FE0111C064
:101F3000408151810281138148175907E0F0481709
:101F4000590799F4109761F012960C931297139613
:101F50001C933296CF01DF91CF911F910F9108957D
:101F60000093240410932504F4CF2115310551F07A
:101F70004217530738F0A901DB019A01BD01DF01C7
:101F8000F801C1CFEF01F9CF909325048093240489
:101F9000CDCFFE01E20FF31F8193919322503109BF
:101FA00039832883D7CF2091220430912304232B17
:101FB00041F42091150230911602309323042093AE
:101FC000220420911302309114022115310541F4AD
:101FD0002DB73EB74091170250911802241B350BC4
:101FE000E0912204F0912304E217F307A0F42E1BE2
:101FF0003F0B2817390778F0AC014E5F5F4F24176D
:10200000350748F04E0F5F1F50932304409322047E
:10201000819391939FCFF0E0E0E09CCFCF93DF934B
:102020000097E9F0FC01329713821282A0912404F8
:10203000B0912504ED0130E020E01097A1F420815B
:102040003181820F931F209122043091230428179D
:10205000390709F061C0F0932304E0932204DF9173
:10206000CF910895EA01CE17DF07E8F54A815B8139
:102070009E0141155105B1F7E901FB83EA834991BE
:102080005991C40FD51FEC17FD0761F48081918130
:102090000296840F951FE901998388838281938139
:1020A0009B838A83F0E0E0E012968D919C911397D8
:1020B0000097B9F52D913C911197CD010296820FB1
:1020C000931F20912204309123042817390739F6F1
:1020D000309751F51092250410922404B0932304F4
:1020E000A0932204BCCFD383C28340815181840F4B
:1020F000951FC817D90761F44E5F5F4F888199819A
:10210000480F591F518340838A819B819383828327
:102110002115310509F0B0CFF0932504E093240494
:102120009ECFFD01DC01C0CF13821282D7CF4F9228
:102130005F926F927F928F929F92AF92BF92CF9257
:10214000DF92EF92FF920F931F93CF93DF938C0157
:10215000009799F4CB01DF91CF911F910F91FF90E0
:10216000EF90DF90CF90BF90AF909F908F907F9037
:102170006F905F904F900C94720FFC01E60FF71F69
:102180009C0122503109E217F30708F4AEC0D901CF
:10219000CD91DC911197C617D70720F1C530D10535
:1021A00078F0CE0104978617970750F0C61BD70B1F
:1021B0002297C193D1936D937C93CF010E940E100F
:1021C000C801DF91CF911F910F91FF90EF90DF90A9
:1021D000CF90BF90AF909F908F907F906F905F90C7
:1021E0004F9008955B01AC1ABD0A4C018C0E9D1EE8
:1021F000A0912404B0912504512C412CF12CE12C08
:10220000109731F580912204909123048815990547
:1022100009F05CC04616570608F058C080911302BA
:1022200090911402009741F48DB79EB74091170228
:1022300050911802841B950BE817F90708F055C058
:10224000F0932304E0932204F90171836083B8CFF3
:102250008D919C91119712966C90129713967C9089
:102260001397A815B90559F56C0142E0C40ED11CAD
:10227000CA14DB0420F1AC014A195B09DA01129699
:10228000159780F06282738251834083D9016D93E8
:102290007C93E114F10471F0D7011396FC93EE9353
:1022A00012978ECF22968C0F9D1FF9019183808308
:1022B000F301EFCFF0932504E093240481CF481677
:1022C000590608F42C017D01D3019ACFCB010E945D
:1022D000720F7C01009749F0AE01B8010E9478119D
:1022E000C8010E940E1087016BCF10E000E068CF9C
:1022F000FB01DC0102C001900D9241505040D8F723
:102300000895FB01DC0101900D920020E1F7089592
:1023100011E0C7E4D1E000E006C0802FFE010E947A
:102320006A0F2196011DC834D10780E00807A9F77C
:04233000F894FFCF4F
:102334001C1D1E1F202122313233343536373839E3
:102344002A30230000260480003100320033003498
:10235400000000000095066806C9063E0661064EA8
:10236400063F06000000000C081002C906F0040035
:102374000000003E03FE02CD0220743F005052458F
:102384002D574153480057415348494E4700574140
:102394005445522D5741534800445259494E470021
:1023A40073746172742073746174653A2000777277
:1023B4006F6E672021005374617274696E67202EFA
:1023C4002E2E20005061757365202E2E2E006D0078
:0E23D40046696E6973686564202E2E2E000027
:00000001FF
