:100000000C941F010C9467040C943C040C94110490
:100010000C94E6030C94BB030C9490030C946503BE
:100020000C943A030C9440010C9440010C94400150
:100030000C9440010C9440010C9440010C9440013C
:100040000C9440010C9440010C9440010C9440012C
:100050000C9440010C9440010C9440010C94F0026B
:100060000C9440010C9440010C9440010C9440010C
:100070000C9440010C9440010C9440010C944001FC
:100080000C9440010C9440010C9440010C944001EC
:100090000C9440010C9440010C9440010C944001DC
:1000A0000C9440010C9440010C9440010C944001CC
:1000B0000C9440010C9440010C9440010C944001BC
:1000C0000C9440010C9440010C9440010C944001AC
:1000D0000C9440010C9440010C9440010C9440019C
:1000E0000C9440010C9491010C94B0010C94EF021B
:1000F0000C94AC010C948D010C94A8010C94890112
:100100000C9461020C9477010C9495010C94BA0143
:100110000C94A2010C94C8010C949E010C947201E1
:100120000C94BE010C94C7020C94C4010C94CE0133
:100130000C94B6010C9498010000210024002700C3
:100140002A002D00300033000101000004010701E6
:100150000A0100002200250028002B002E0031009B
:10016000340002010000050108010B010505050529
:10017000070508080808020202020A0A080804041F
:10018000040401010101010101010303030303034D
:100190000303040707070C0C0C0C0C0C0C0C0202DC
:1001A000020206060606060606060B0B0B0B0B0BD9
:1001B0000B0B010210202008081020401020408066
:1001C000020102010804020101020408102040801B
:1001D00080402010080402018004020180402010A9
:1001E00008040201080402010102040810204080F2
:1001F000010204081020408000000A0B02090C0DC7
:100200000E080703040100000000000000000000C9
:1002100000000000000000000000000000000000DE
:10022000000000001211100000000000000000009B
:100230000000000000000000000000000000112489
:100240001FBECFEFD1E2DEBFCDBF00E00CBF12E09A
:10025000A0E0B2E0ECE0FBE000E00BBF02C00790E2
:100260000D92A031B107D9F722E0A0E1B2E001C0C0
:100270001D92A931B207E1F70E9492040C94840503
:100280000C940000282F30E0F901E850FE4F9491C3
:10029000F901EE54FE4F449124593E4FF901249147
:1002A000222309F435C0992311F191509231F8F4C9
:1002B000E92FF0E08827E05AFE4F8F4F0C94680535
:1002C00091019501720189018D01770198019E01CB
:1002D000A201A801AC01B001B601BA017701BE01CB
:1002E000C401C801809180008F7780938000E22F45
:1002F000F0E0EE0FFF1FEE5AFE4FA591B4918FB7BD
:10030000F894EC91611148C040954E234C938FBFF7
:100310000895809180008F7DE8CF80918000877F55
:10032000E4CF84B58F7784BDE2CF84B58F7DFBCFDA
:100330008091B0008F778093B000D9CF8091B000CA
:100340008F7DF9CF809190008F7780939000CFCFF1
:10035000809190008F7DF9CF80919000877FF5CFBD
:100360008091A0008F778093A000C1CF8091A000E2
:100370008F7DF9CF8091A000877FF5CF80912001FC
:100380008F7780932001B3CF809120018F7DF9CFAB
:1003900080912001877FF5CF4E2BB8CFCF93C0E05F
:1003A00060E08C2F0E944201CF5FC630C9F7CF9129
:1003B0000895CF93DF9390E0FC01EE54FE4F24911B
:1003C00084599E4FFC0184918823D1F090E0880FDE
:1003D000991FFC01E85CFE4FA591B491FC01EE5A17
:1003E000FE4FC591D49161110EC09FB7F8948C91C6
:1003F000E22FE0958E238C932881E223E8839FBF30
:10040000DF91CF9108958FB7F894EC91E22BEC93A4
:100410008FBFF6CF3FB7F8948091150290911602E6
:10042000A0911702B091180226B5A89B05C02F3FD6
:1004300019F00196A11DB11D3FBFBA2FA92F982F0A
:100440008827BC01CD01620F711D811D911D42E005
:10045000660F771F881F991F4A95D1F708958F92CD
:100460009F92AF92BF92CF92DF92EF92FF924B0199
:100470005C010E940A026B017C010E940A026C1955
:100480007D098E099F09683E734081059105A8F397
:1004900021E0821A9108A108B10888EEC80E83E015
:1004A000D81EE11CF11C81149104A104B10429F7A8
:1004B000FF90EF90DF90CF90BF90AF909F908F9084
:1004C0000895AF92BF92CF92DF92EF92FF920F9377
:1004D0001F93CF93DF9308E110E086E0A82EB12CA4
:1004E000C801B5010E945405EC016C0181E0C81AF5
:1004F000D10886E0C816D10428F461E08C2F815021
:100500000E944201C630D10520F461E08C2F0E9488
:1005100042017E018FEFE81AF80A86E0E816F1043E
:1005200029F061E08C2F8F5F0E94420160EE7EE235
:1005300080E090E00E942F0286E0C816D10428F4E3
:1005400060E08C2F81500E944201C630D10520F41A
:1005500060E08C2F0E94420186E0E816F10429F049
:1005600060E08C2F8F5F0E944201015011090E3F05
:100570008FEF180709F0B4CFDF91CF911F910F9142
:10058000FF90EF90DF90CF90BF90AF9008950F93C2
:100590001F93CF9305E010E0C0E060E08C2F0E9435
:1005A0004201CF5FC630C9F760E573EC80E090E0B0
:1005B0000E942F02C0E061E08C2F0E944201CF5FB9
:1005C000C630C9F760E573EC80E090E00E942F022E
:1005D0000150110909F7CF911F910F9108950895C6
:1005E0001F920F920FB60F9211242F933F938F9368
:1005F0009F93AF93BF938091110290911202A091AB
:100600001302B09114023091100223E0230F2D3712
:1006100058F50196A11DB11D20931002809311027F
:1006200090931202A0931302B093140280911502CA
:1006300090911602A0911702B09118020196A11D87
:10064000B11D8093150290931602A0931702B093E8
:100650001802BF91AF919F918F913F912F910F9071
:100660000FBE0F901F90189526E8230F0296A11D2C
:10067000B11DD2CF1F920F920FB60F9211240BB65D
:100680000F922F933F934F935F936F937F938F932B
:100690009F93AF93BF93EF93FF93E0910E02F0917E
:1006A0000F021995FF91EF91BF91AF919F918F919B
:1006B0007F916F915F914F913F912F910F900BBE62
:1006C0000F900FBE0F901F9018951F920F920FB6AC
:1006D0000F9211240BB60F922F933F934F935F937A
:1006E0006F937F938F939F93AF93BF93EF93FF93FA
:1006F000E0910C02F0910D021995FF91EF91BF91DD
:10070000AF919F918F917F916F915F914F913F91A9
:100710002F910F900BBE0F900FBE0F901F9018954A
:100720001F920F920FB60F9211240BB60F922F93B8
:100730003F934F935F936F937F938F939F93AF9369
:10074000BF93EF93FF93E0910202F091030219959A
:10075000FF91EF91BF91AF919F918F917F916F9199
:100760005F914F913F912F910F900BBE0F900FBE55
:100770000F901F9018951F920F920FB60F92112491
:100780000BB60F922F933F934F935F936F937F938B
:100790008F939F93AF93BF93EF93FF93E0910002EA
:1007A000F09101021995FF91EF91BF91AF919F9147
:1007B0008F917F916F915F914F913F912F910F900A
:1007C0000BBE0F900FBE0F901F9018951F920F92A7
:1007D0000FB60F9211240BB60F922F933F934F93A6
:1007E0005F936F937F938F939F93AF93BF93EF9399
:1007F000FF93E0910A02F0910B021995FF91EF919E
:10080000BF91AF919F918F917F916F915F914F9128
:100810003F912F910F900BBE0F900FBE0F901F9026
:1008200018951F920F920FB60F9211240BB60F92CC
:100830002F933F934F935F936F937F938F939F93E8
:10084000AF93BF93EF93FF93E0910802F0910902F9
:100850001995FF91EF91BF91AF919F918F917F91EA
:100860006F915F914F913F912F910F900BBE0F9021
:100870000FBE0F901F9018951F920F920FB60F92F8
:1008800011240BB60F922F933F934F935F936F9367
:100890007F938F939F93AF93BF93EF93FF93E091D9
:1008A0000602F09107021995FF91EF91BF91AF9168
:1008B0009F918F917F916F915F914F913F912F9178
:1008C0000F900BBE0F900FBE0F901F9018951F92A8
:1008D0000F920FB60F9211240BB60F922F933F93E6
:1008E0004F935F936F937F938F939F93AF93BF9338
:1008F000EF93FF93E0910402F09105021995FF91A7
:10090000EF91BF91AF919F918F917F916F915F9187
:100910004F913F912F910F900BBE0F900FBE0F90F4
:100920001F901895789484B5826084BD84B58160E9
:1009300084BD85B5826085BD85B5816085BD8091AA
:100940006E00816080936E00109281008091810022
:10095000826080938100809181008160809381001A
:10096000809180008160809380008091B1008460DC
:100970008093B1008091B00081608093B00080913D
:1009800091008260809391008091910081608093BA
:100990009100809190008160809390008091A100EF
:1009A00082608093A1008091A10081608093A1006A
:1009B0008091A00081608093A000809121018260DD
:1009C0008093210180912101816080932101809198
:1009D000200181608093200180917A00846080935F
:1009E0007A0080917A00826080937A0080917A0008
:1009F000816080937A0080917A00806880937A0089
:100A00001092C10060E082E10E94D90160E083E1C0
:100A10000E94D90160E084E10E94D90161E080E098
:100A20000E94D90161E081E00E94D90161E082E089
:100A30000E94D90161E083E00E94D90161E084E075
:100A40000E94D90161E085E00E94D90181E692E02F
:100A500090930B0280930A02809169008F738068E3
:100A600080936900EB9A87EC92E09093090280935F
:100A70000802809169008F7C806280936900EA9A05
:100A80008EEC91E0909307028093060280916900BA
:100A9000837F886080936900E99AC0E0D0E0209766
:100AA000F1F30E940000FBCF97FB072E16F4009491
:100AB00007D077FD09D00E94700507FC05D03EF4F1
:100AC000909581959F4F0895709561957F4F0895FA
:100AD000EE0FFF1F881F8BBF0790F691E02D199432
:100AE000AA1BBB1B51E107C0AA1FBB1FA617B70754
:100AF00010F0A61BB70B881F991F5A95A9F7809570
:0C0B00009095BC01CD010895F894FFCF42
:100B0C00EF02EF02EF02EF02EF02EF02EF02EF0251
:00000001FF
