:100000000C9435010C9466010C9466010C94660105
:100010000C9466010C9466010C9466010C946601C4
:100020000C9466010C9466010C9466010C946601B4
:100030000C9466010C9466010C9466010C946601A4
:100040000C9466010C9466010C9466010C94660194
:100050000C9466010C9466010C9466010C94D60411
:100060000C9466010C9466010C9466010C94660174
:100070000C9466010C9466010C9466010C94660164
:100080000C9466010C9466010C9466010C94660154
:100090000C9466010C9466010C9466010C94660144
:1000A0000C9466010C9466010C9466010C94660134
:1000B0000C9466010C9466010C9466010C94660124
:1000C0000C9466010C9466010C9466010C94660114
:1000D0000C9466010C9466010C9466010C94660104
:1000E0000C9466010C947D020C946F020C945B02DC
:1000F0000C942E030C9458020C9479020C94E9028F
:100100000C942D030C9473020C94AB070C94860290
:100110000C9465020C94B8020C9487020C9454025F
:100120000C9481020C9450020C9446020C946102CF
:100130000C9429030C944C020C94FB010C94D004F5
:100140000C946B020C948B02000021002400270009
:100150002A002D00300033000101000004010701D6
:100160000A0100002200250028002B002E0031008B
:10017000340002010000050108010B01000020000D
:100180002300260029002C002F003200000100006F
:10019000030106010901050505050705080808080A
:1001A000020202020A0A080804040404010101010F
:1001B000010101010303030303030303040707070A
:1001C0000C0C0C0C0C0C0C0C0202020206060606AF
:1001D000060606060B0B0B0B0B0B0B0B010210207C
:1001E000200808102040102040800201020108046D
:1001F0000201010204081020408080402010080401
:100200000201800402018040201008040201080459
:10021000020101020408102040800102040810209D
:10022000408000000A0B02090C0D0E0807030401B0
:1002300000000000000000000000000000000000BE
:10024000000000000000000000000000000012118B
:10025000100000000000000000000000000000008E
:100260000000000000000000AB0711241FBECFEF0C
:10027000D1E2DEBFCDBF00E00CBF12E0A0E0B2E0F3
:10028000ECEEF0E100E00BBF02C007900D92A0334E
:10029000B107D9F722E0A0E3B2E001C01D92A03C73
:1002A000B207E1F711E0C5E3D1E000E006C0219715
:1002B0000109802FFE010E945808C433D10780E055
:1002C0000807A9F70E9420050C9474080C940000FC
:1002D00096E0899FD0011124A75CBD4F90967C9336
:1002E0006E935F9791E091969C939197E091A6020F
:1002F000F091A7029091A502992339F0309751F01F
:10030000811108C0809155021994309719F05C96BC
:100310008C91FACF0895CF92DF92EF92FF920F93D4
:100320001F9396E0899FF0011124E75CFD4F11A215
:10033000278D30A12130310551F178F0223031057F
:1003400009F451C02330310509F452C01F910F91B7
:10035000FF90EF90DF90CF9008956623B9F361E0AE
:1003600070E00E9468012FB7F89480913502909157
:100370003602A0913702B09138022FBF80939102CC
:1003800090939202A0939302B0939402DFCF9FB711
:10039000F894C0903502D0903602E0903702F09089
:1003A00038029FBF00919102109192022091930216
:1003B00030919402C01AD10AE20AF30A0091A30212
:1003C0001091A40230E020E00C151D052E053F051C
:1003D00050F462E070E01F910F91FF90EF90DF907A
:1003E000CF900C9468016111B1CF63E070E0F3CF5E
:1003F00070E060E0F0CFAF92BF92CF92DF92EF92C9
:10040000FF920F931F93CF93DF936C017B018B01BE
:10041000040F151FEB015E01AE18BF08C017D1070E
:1004200059F06991D601ED91FC910190F081E02D98
:10043000C6011995892B79F7C501DF91CF911F91DD
:100440000F91FF90EF90DF90CF90BF90AF90089505
:100450008150823108F05AC0E82FF0E08827EC5C28
:10046000FD4F8F4F0C9458085402580246024C021C
:10047000500286025B02610265026B026F02730228
:1004800079027D028602810287028B0280918000C0
:100490008F77809380000895809180008F7DF9CFC1
:1004A00080918000877FF5CF84B58F7784BD0895D4
:1004B00084B58F7DFBCF8091B0008F778093B000A3
:1004C00008958091B0008F7DF9CF809190008F7753
:1004D000809390000895809190008F7DF9CF809156
:1004E0009000877FF5CF8091A0008F778093A00048
:1004F00008958091A0008F7DF9CF8091A000877F23
:10050000F5CF809120018F7780932001089580910D
:1005100020018F7DF9CF80912001877FF5CFCF9388
:10052000DF93282F30E0F901EE5DFD4F8491F90152
:10053000E452FE4FD491F901EA56FE4FC491CC2308
:10054000A1F081110E942802EC2FF0E0EE0FFF1FB6
:10055000E458FE4FA591B491EC91ED2381E090E039
:1005600009F480E0DF91CF91089580E090E0FACF28
:10057000862F0C948F021F93CF93DF93282F30E0A8
:10058000F901EE5DFD4F8491F901E452FE4FD491E3
:10059000F901EA56FE4FC491CC23A9F0162F811120
:1005A0000E942802EC2FF0E0EE0FFF1FEE59FE4FE5
:1005B000A591B4918FB7F894EC91111108C0D09522
:1005C000DE23DC938FBFDF91CF911F910895DE2B47
:1005D000F8CF862F642F0C94BB02CF93DF9390E06B
:1005E000FC01E452FE4F24918A569E4FFC018491F7
:1005F0008823C9F090E0880F991FFC01E85BFE4F4B
:10060000A591B491FC01EE59FE4FC591D4916111B1
:100610000DC09FB7F8948C91209582238C9388818C
:10062000282328839FBFDF91CF910895623051F432
:100630009FB7F8943C91822F809583238C93E88117
:100640002E2BEFCF8FB7F894EC912E2B2C938FBFDE
:10065000EACF862F642F0C94ED02089590E080E09D
:1006600008958F929F92AF92BF920F931F93CF9353
:10067000DF93CDB7DEB7A1970FB6F894DEBF0FBEFC
:10068000CDBF19A2423008F44AE08E010F5D1F4F22
:10069000842E912CB12CA12CA50194010E94360826
:1006A000E62FB901CA01EA3044F5E05DD801EE93C6
:1006B0008D01232B242B252B79F790E080E01097D8
:1006C00069F0FD0101900020E9F73197AF014A1B65
:1006D0005B0BBD0188EA92E00E94FB01A1960FB678
:1006E000F894DEBF0FBECDBFDF91CF911F910F9168
:1006F000BF90AF909F908F900895E95CD7CFCF9334
:10070000DF93EC0160E08E810E94BB0261E08E818C
:100710000E94BB0260E08E810E94BB028BE891E0E8
:100720000197F1F7DF91CF910895CF92DF92EF9289
:10073000FF920F931F93CF93DF936C017C0187E0AF
:10074000E80EF11CD0E0C0E0062F10E0B8010C2E3E
:1007500002C0759567950A94E2F76170F70181917F
:100760007F010E94BB022196C430D10579F7C601F2
:10077000DF91CF911F910F91FF90EF90DF90CF907D
:100780000C947F03CF92DF92EF92FF920F931F930F
:10079000CF93DF93EC01F62E642F8C810E94BB0275
:1007A0008D818F3F19F060E00E94BB020F2D10E099
:1007B0008F8584FF25C06E0187E0C80ED11CF12C07
:1007C000E12CB8010E2C02C0759567950A94E2F7EA
:1007D0006170F60181916F010E94BB02FFEFEF1A79
:1007E000FF0A88E0E816F10461F7CE01DF91CF91AE
:1007F0001F910F91FF90EF90DF90CF900C947F03AB
:10080000B80184E0759567958A95E1F7CE010E945D
:1008100095036F2DCE01DF91CF911F910F91FF9026
:10082000EF90DF90CF900C94950340E0682F88EA1A
:1008300092E00C94C203CF93DF93823029F490911D
:10084000B70298609093B7028093BB021092BC02EB
:1008500080E48093BD0280E18093BE0280E58093B6
:10086000BF0261E08091AC020E94ED028091AD0276
:100870008F3F19F061E00E94ED0261E08091AE02CD
:100880000E94ED02C8EAD2E09E01285A32408091CF
:10089000B70284FD0BC084E090E021962817390749
:1008A00044F461E08E810E94ED02EECF88E090E09A
:1008B000F4CF8BE39DE00197F1F760E08091AC020B
:1008C0000E94BB0260E08091AE020E94BB02809158
:1008D000AD028F3F19F060E00E94BB028091B70229
:1008E00084FD39C063E088EA92E00E949503CBE47E
:1008F000D6E4CE010197F1F763E088EA92E00E9426
:1009000095032197F1F763E088EA92E00E9495034E
:1009100083E592E00197F1F762E088EA92E00E94B5
:1009200095038091B70280620E94150484E0809351
:10093000B8028CE00E94150481E00E9415048BE34C
:100940009FE10197F1F782E08093B90286E0DF91A1
:10095000CF910C94150480620E9415048BE496E4F8
:100960000197F1F78091B70280620E94150483E538
:1009700092E00197F1F78091B70280620E9415041E
:10098000D0CF9091BB02691710F06FEF690FE62F7F
:10099000F0E0E855FD4F9489890F80680C941504A8
:1009A00041E00E94C20381E090E008951F920F92FF
:1009B0000FB60F9211242F933F938F939F93AF9372
:1009C000BF938091350290913602A0913702B09189
:1009D00038023091340223E0230F2D3758F5019669
:1009E000A11DB11D209334028093350290933602ED
:1009F000A0933702B0933802809130029091310277
:100A0000A0913202B09133020196A11DB11D8093D5
:100A1000300290933102A0933202B0933302BF911F
:100A2000AF919F918F913F912F910F900FBE0F909B
:100A30001F90189526E8230F0296A11DB11DD2CF55
:100A4000CF93DF9300D01F921F92CDB7DEB778947B
:100A500084B5826084BD84B5816084BD85B58260C3
:100A600085BD85B5816085BD80916E008160809374
:100A70006E001092810080918100826080938100DD
:100A800080918100816080938100809180008160ED
:100A9000809380008091B10084608093B100809148
:100AA000B00081608093B00080919100826080935B
:100AB00091008091910081608093910080919000DD
:100AC0008160809390008091A10082608093A1005A
:100AD0008091A10081608093A1008091A00081603D
:100AE0008093A000809121018260809321018091F8
:100AF0002101816080932101809120018160809398
:100B0000200180917A00846080937A0080917A003D
:100B1000826080937A0080917A00816080937A006D
:100B200080917A00806880937A001092C10082E000
:100B30000E941B0460E080E00E94C10410E000E01D
:100B400021E02983B12CA12CD12CC12CF12CE12C3A
:100B500031E03093A5028FB7F8944091350250915F
:100B6000360260913702709138028FBF80919502F2
:100B700090919602A0919702B0919802481B590B50
:100B80006A0B7B0B8091A1029091A202B0E0A0E0E1
:100B900084179507A607B707D8F61A8280919F0297
:100BA0005A81581770F4E0919B02F0919C02E50F76
:100BB000F11D62E080810E94ED028A818F5F8A834D
:100BC000EDCF512C8091A002581608F072C0852CF0
:100BD000912CE0919D02F0919E02E80DF91D61E0DB
:100BE00080810E94ED02E0919D02F0919E02E80D4D
:100BF000F91D60E080810E94BB0281E090E0A0E0EE
:100C0000B0E0052C04C0880F991FAA1FBB1F0A94CF
:100C1000D2F79B838A831C0120943094412C8091CD
:100C20009F02481678F5E42DF0E0FD83EC83E09117
:100C30009B02F0919C022C813D81E20FF31F808189
:100C40000E948F02EC81FD813496FD83EC83892B19
:100C500071F4EE0FFF1FE75CFD4F808191812A81C7
:100C60003B81822B932B918380834394D8CFEC815B
:100C7000FD81EE0FFF1FE75CFD4F80819181822196
:100C80009321F1CFE0919D02F0919E02E80DF91DB4
:100C900061E080810E94BB0280919D0290919E0242
:100CA000880E991E60E0F40180810E94ED02539449
:100CB00089CF29E332E03B832A83F901878D90A114
:100CC000892B31F4148E8FEF9FEF968F858F11A2B1
:100CD000369692E0E537F90789F7912C80919F02CB
:100CE000981608F053C0812C492C512C440C551CEB
:100CF000F201EF5BFD4F2F012091A002821608F058
:100D000043C0F20160817181082C02C0769567951D
:100D10000A94E2F7929E90011124280D311DE9E317
:100D2000F2E080E0458D568D2417350709F411C196
:100D30008F5F36968A30B1F760FF24C0E9E3F2E0B6
:100D400090E080E0448D411118C0E0919902F0914B
:100D50009A02E20FF31F408156E0589FF001599F1D
:100D6000F00D1124E75CFD4F448F368F258F10A2C4
:100D7000178E61E00E948B0105C0019636968A307D
:100D8000910501F78394B8CF9394A8CF80E0EA81CE
:100D9000FB8191A19111892F2A813B812A5F3F4FCD
:100DA0003B832A832557324091F79FB7F8944091AF
:100DB00035025091360260913702709138029FBF20
:100DC0004093950250939602609397027093980215
:100DD000882309F4BDCE80915A028A83882309F4BE
:100DE000B7CE8091580290915902019709F0B0CE88
:100DF00090905502992009F4ABCE80ED890D8A3090
:100E000080F51111A5CEF7013196FB83EA8360E0EE
:100E10008E2D0E94C10441E0692D88EA92E00E9473
:100E2000C203892D990C990BC097F9814AE0F130E2
:100E300059F44C9D90014D9D300D11246901C80E4F
:100E4000D91EEA80FB8084CE4A9D90014B9D300DD7
:100E500011245901A80EB91EEA80FB8022E02983E3
:100E600077CE3DE393124EC0111172CE0B3209F4CE
:100E700045C074F50A32B1F161E080E00E94C1041E
:100E800041E050E06EE272E088EA92E00E94FB01ED
:100E900061E081E00E94C1041301072C000C4408AA
:100EA00055084AE0C201B10157FE0EC041E06DE2B3
:100EB00088EA92E00E94C20366277727CB01621975
:100EC0007309840995094AE00E9431031A8140CED2
:100ED0000D3281F00F3281F6C601B5010E94220861
:100EE0003B01CACFCA9C3001CB9C700CDA9C700CC1
:100EF0001124C2CF36016A187B08BECF36016A0CB6
:100F00007B1CBACF53E495120DC0112369F081E028
:100F10000E9415048BE39FE10197F1F710E081E057
:100F2000898310CE111114CEF7013196FB83EA8329
:100F300060E08E2D0E94C10441E0692D88EA92E0B4
:100F40000E94C203092DEA80FB8010E0F2E0F983E1
:100F5000FFCD61700FCF1092AB021092AA028EE10A
:100F600092E09093A9028093A8028DE08093AC0256
:100F70008FEF8093AD028CE08093AE0288E0809387
:100F8000AF0289E08093B0028AE08093B1028BE0E7
:100F90008093B2021092B3021092B4021092B50282
:100FA0001092B6021092B70281E00E941B041092C8
:100FB0003B0210923F0210923E021092400284E1E6
:100FC00092E090933A0280933902E5E5F2E01082D4
:100FD000148213821582369682E0E139F807B9F758
:100FE0008AE292E090939C0280939B0286E292E0D8
:100FF00090939E0280939D0284E080939F02809351
:10100000A00280E092E090939A02809399028AE095
:1010100090E09093A2028093A10284EF91E09093DC
:10102000A4028093A3021092A7021092A60210922B
:1010300095021092960210929702109298021092C6
:10104000A502089597FB072E16F4009407D077FDAC
:1010500009D00E94600807FC05D03EF49095819568
:101060009F4F0895709561957F4F0895A1E21A2EC4
:10107000AA1BBB1BFD010DC0AA1FBB1FEE1FFF1F3C
:10108000A217B307E407F50720F0A21BB30BE40B8C
:10109000F50B661F771F881F991F1A9469F76095D3
:1010A0007095809590959B01AC01BD01CF0108958D
:1010B000EE0FFF1F881F8BBF0790F691E02D19944C
:1010C000AA1BBB1B51E107C0AA1FBB1FA617B7076E
:1010D00010F0A61BB70B881F991F5A95A9F780958A
:0C10E0009095BC01CD010895F894FFCF5D
:1010EC003738392F3435362A3132332D43303D2BB6
:1010FC00000000002903E902B80200000000D0043F
:10110C00FB012E032D03212223241D1E1F203D0035
:00000001FF
