:100000000C9428010C9459010C9459010C94590139
:100010000C9459010C9459010C9459010C945901F8
:100020000C9459010C9459010C9459010C945901E8
:100030000C9459010C9459010C9459010C945901D8
:100040000C9459010C9499060C9459010C94590183
:100050000C9459010C9459010C9459010C94C50548
:100060000C9459010C948F050C9465050C9459015E
:100070000C9459010C9459010C9459010C94590198
:100080000C946B060C9459010C9459010C94590171
:100090000C9459010C9459010C9459010C94590178
:1000A0000C9459010C9459010C943D060C9459017F
:1000B0000C9459010C9459010C9459010C940F069D
:1000C0000C9459010C9459010C9459010C94590148
:1000D0000C9459010C9459010C9459010C94590138
:1000E0000C9459010C94EB030C94E1030C94EF0372
:1000F0000C94A7030C94C2030C9443020C94D902F1
:100100000C94FD030C94F3030C94F9030C94A102DA
:100110000C94C6030C94BE030C94D3030C94D70325
:100120000C9470020C94AC030C947F020C94E503C5
:100130000C94DD030C94CD030C94C7060C94CA03F5
:100140000C9493020C94260300000A0B02090C0D78
:100150000E0807030401000000000000000000007A
:10016000000000000000000000000000000000008F
:10017000000000001211100000000000000000004C
:10018000000000000000000000000000000000006F
:100190002200250028002B002E003100340002012F
:1001A0000000050108010B010000210024002700C8
:1001B0002A002D0030003300010100000401070176
:1001C0000A010505050507050808080802020202DC
:1001D0000A0A0808040404040101010101010101E3
:1001E0000303030303030303040707070C0C0C0CAE
:1001F0000C0C0C0C02020202060606060606060697
:100200000B0B0B0B0B0B0B0B010210202008081023
:100210002040102040800201020108040201010276
:10022000040810204080804020100804020180044F
:1002300002018040201008040201080402010102AA
:100240000408102040800102040810204080C706E6
:1002500011241FBECFEFD1E2DEBFCDBF00E00CBF47
:1002600012E0A0E0B2E0E4ECF2E100E00BBF02C07B
:1002700007900D92A631B107D9F723E0A6E1B2E0CD
:1002800001C01D92A635B207E1F711E0C8E2D1E046
:1002900000E006C021970109802FFE010E94580945
:1002A000C732D10780E00807A9F70E9424070C9401
:1002B00060090C940000CF92DF92EF92FF92DC0174
:1002C000A03282E0B807D4F5A53BB10514F0A4EB49
:1002D000B0E04091540328E830E0241B310947FD89
:1002E0003395220F331F220F331F6901330FEE089E
:1002F000FF084091550328E532E0241B310947FDF2
:100300003395220F331F220F331F032E000C440B93
:10031000550B2C193D094E095F09B7FF02C0B0E02B
:10032000A0E00E94130924EB30E040E050E00E947E
:10033000E908C20ED31EE41EF51ED601E091530358
:10034000E03380F52091540388E890E0821B910906
:1003500027FD9395880F991F880F991FA817B90734
:1003600084F02091550388E592E0821B910927FDD6
:100370009395880F991F880F991FA817B9070CF438
:10038000CD010297880F991F4FB7F8942E2F30E0B8
:10039000F901EE0FFF1FE20FF31FEE53FD4F9283A3
:1003A00081834FBFFF90EF90DF90CF9008958F92A1
:1003B0009F92AF92BF92CF92DF92EF92FF92809185
:1003C000550358E5C52E52E0D52EC81AD10887FD31
:1003D000D394CC0CDD1CCC0CDD1C0D2C000CEE08D9
:1003E000FF088091540378E8872E912C881A910891
:1003F00087FD9394880C991C880C991C092C000C7F
:10040000AA08BB08809153038F3FD1F190E0FC0113
:10041000EE0FFF1FE80FF91FEE53FD4F8181928110
:1004200033E0880F991F3A95E1F7B0E0A0E044E08F
:10043000B595A795979587954A95D1F702969C0112
:100440002F5F3F4F032E000C440B550B2819390921
:100450004A095B09A4EBB0E00E940809A7019601D4
:10046000281939094A095B090E94E908C901FF9066
:10047000EF90DF90CF90BF90AF909F908F900895B6
:1004800090E080E0DCCFAF92BF92CF92DF92EF920C
:10049000FF920F931F93CF93DF936C017B018B012E
:1004A000040F151FEB015E01AE18BF08C017D1077E
:1004B00059F06991D601ED91FC910190F081E02D08
:1004C000C6011995892B79F7C501DF91CF911F914D
:1004D0000F91FF90EF90DF90CF90BF90AF90089575
:1004E000FC01538D448D252F30E0842F90E0821B3A
:1004F000930B541710F0CF96089501970895FC01BF
:10050000918D828D981761F0A28DAE0FBF2FB11D16
:100510005D968C91928D9F5F9F73928F90E008956E
:100520008FEF9FEF0895FC01918D828D981731F028
:10053000828DE80FF11D858D90E008958FEF9FEF7C
:100540000895FC01918D228D892F90E0805C9F4F52
:10055000821B91098F739927089585E292E00E948A
:10056000A10221E0892B09F420E0822F0895FC01EB
:10057000A48DA80FB92FB11DA35ABF4F2C91848D04
:1005800090E001968F739927848FA689B7892C9361
:10059000A089B1898C91837080648C93938D848DB4
:1005A000981306C00288F389E02D80818F7D8083B7
:1005B0000895EF92FF920F931F93CF93DF93EC0177
:1005C00081E0888F9B8D8C8D98131AC0E889F989FA
:1005D000808185FF15C09FB7F894EE89FF896083FD
:1005E000E889F98980818370806480839FBF81E07E
:1005F00090E0DF91CF911F910F91FF90EF900895C0
:10060000F62E0B8D10E00F5F1F4F0F731127E02E9A
:100610008C8D8E110CC00FB607FCFACFE889F989D2
:10062000808185FFF5CFCE010E94B702F1CFEB8D1F
:10063000EC0FFD2FF11DE35AFF4FF0829FB7F894A6
:100640000B8FEA89FB8980818062CFCFCF93DF93C4
:10065000EC01888D8823B9F0AA89BB89E889F989DA
:100660008C9185FD03C0808186FD0DC00FB607FC0F
:10067000F7CF8C9185FFF2CF808185FFEDCFCE0142
:100680000E94B702E9CFDF91CF91089580E090E01A
:10069000892B29F00E94AD0281110E94000080E0A8
:1006A00090E0892B49F080E090E0892B29F00E94AE
:1006B000000081110E94000080E090E0892B49F049
:1006C00080E090E0892B29F00E94000081110E94B7
:1006D000000080E090E0892B49F080E090E0892BD9
:1006E00029F00E94000081110C9400000895282F29
:1006F00030E0F901E85BFE4F9491F901E85FFD4FAE
:1007000044912E533E4FF9012491222309F435C020
:10071000992311F191509231F8F4E92FF0E08827F4
:10072000EB56FC4F8F4F0C945809C603CA03A7031E
:10073000BE03C203AC03CD03D303D703DD03E10340
:10074000E503EB03EF03AC03F303F903FD0380912F
:1007500080008F7780938000E22FF0E0EE0FFF1F84
:10076000E257FE4FA591B4918FB7F894EC916111C7
:1007700048C040954E234C938FBF089580918000D0
:100780008F7DE8CF80918000877FE4CF84B58F771D
:1007900084BDE2CF84B58F7DFBCF8091B0008F7791
:1007A0008093B000D9CF8091B0008F7DF9CF809138
:1007B00090008F7780939000CFCF809190008F7DB5
:1007C000F9CF80919000877FF5CF8091A0008F773F
:1007D0008093A000C1CF8091A0008F7DF9CF809140
:1007E000A000877FF5CF809120018F778093200133
:1007F000B3CF809120018F7DF9CF80912001877F39
:10080000F5CF4E2BB8CF3FB7F89480911F0290914F
:100810002002A0912102B091220226B5A89B05C01A
:100820002F3F19F00196A11DB11D3FBFBA2FA92F6F
:10083000982F8827BC01CD01620F711D811D911D6C
:1008400042E0660F771F881F991F4A95D1F70895D8
:100850008F929F92AF92BF92CF92DF92EF92FF92D0
:100860004B015C010E9403046B017C010E940304A4
:100870006C197D098E099F09683E734081059105B9
:10088000A8F321E0821A9108A108B10888EEC80EE9
:1008900083E0D81EE11CF11C81149104A104B10471
:1008A00029F7FF90EF90DF90CF90BF90AF909F908F
:1008B0008F900895AF92BF92CF92DF92EF92FF9206
:1008C0000F931F93CF93DF936B017A01EC01CA5E04
:1008D000DD4F28813CE0389F8001399F100D1124A5
:1008E000A0905203B12C27FF1FC0FB011182108280
:1008F00088818F5F888388819801280F311D87FD4B
:100900003A95F6012A153B051CF488818C30C4F118
:1009100080819181049680349C4908F473C0F6016B
:1009200080819181049670C088819801280F311DC3
:1009300087FD3A952A153B05DCF68881A801480F0A
:10094000511D87FD5A95FA01EE0FFF1FE40FF51FA9
:10095000EE53FD4F808186FFCBCF8881F801E80FF1
:10096000F11D87FDFA95CF01EE0FFF1FE80FF91F6C
:10097000EE53FD4F808160E08F730E947703B8CF04
:10098000808191812881A801420F511D27FD5A9530
:100990009A01FA01EE0FFF1FE20FF31FEE53FD4F16
:1009A00021813281820F931FF70191838083888197
:1009B0009801280F311D87FD3A95F901EE0FFF1FB1
:1009C000E20FF31FEE53FD4F808186FF22C0888126
:1009D000080F111D87FD1A95F801EE0FFF1FE00F9C
:1009E000F11FEE53FD4F808161E08F73DF91CF9156
:1009F0001F910F91FF90EF90DF90CF90BF90AF903D
:100A00000C94770380E49CE9F701918380838FEF56
:100A10008883DF91CF911F910F91FF90EF90DF902E
:100A2000CF90BF90AF900895FC0101900020E9F7AE
:100A30003197AF01481B590BBC0185E292E00C9441
:100A400043028F929F92AF92BF920F931F93CF93C7
:100A5000DF93CDB7DEB7A1970FB6F894DEBF0FBE18
:100A6000CDBF19A2423008F44AE08E010F5D1F4F3E
:100A7000842E912CB12CA12CA50194010E941B095C
:100A8000E62FB901CA01EA30F4F4E05DD801EE9333
:100A90008D01232B242B252B79F790E080E01097F4
:100AA00019F0CD010E941405A1960FB6F894DEBF8F
:100AB0000FBECDBFDF91CF911F910F91BF90AF902F
:100AC0009F908F900895E95CE1CF1F920F920FB62F
:100AD0000F9211240BB60F922F933F934F935F9376
:100AE0006F937F938F939F93AF93BF93EF93FF93F6
:100AF00085E292E00E94B702FF91EF91BF91AF9122
:100B00009F918F917F916F915F914F913F912F9125
:100B10000F900BBE0F900FBE0F901F9018951F9255
:100B20000F920FB60F9211240BB60F922F938F9343
:100B30009F93EF93FF93E0913502F091360280810D
:100B4000E0913B02F0913C0282FD1DC090818091BA
:100B50003E028F5F8F7320913F02821741F0E09138
:100B60003E02F0E0EB5DFD4F958F80933E02FF91DA
:100B7000EF919F918F912F910F900BBE0F900FBE11
:100B80000F901F9018958081F2CF1F920F920FB691
:100B90000F9211242F933F938F939F93AF93BF9303
:100BA00080911B0290911C02A0911D02B0911E0227
:100BB00030911A0223E0230F2D3758F50196A11D1D
:100BC000B11D20931A0280931B0290931C02A093E4
:100BD0001D02B0931E0280911F0290912002A091ED
:100BE0002102B09122020196A11DB11D80931F0226
:100BF00090932002A0932102B0932202BF91AF9163
:100C00009F918F913F912F910F900FBE0F901F904A
:100C1000189526E8230F0296A11DB11DD2CF1F9271
:100C20000F920FB60F9211240BB60F922F933F9392
:100C30004F935F936F937F938F939F93AF93BF93E4
:100C4000EF93FF9348E251E064E271E090E080E0CE
:100C50000E945A04FF91EF91BF91AF919F918F91A4
:100C60007F916F915F914F913F912F910F900BBEAC
:100C70000F900FBE0F901F9018951F920F920FB6F6
:100C80000F9211240BB60F922F933F934F935F93C4
:100C90006F937F938F939F93AF93BF93EF93FF9344
:100CA00048EA50E064EA70E083E090E00E945A0471
:100CB000FF91EF91BF91AF919F918F917F916F9134
:100CC0005F914F913F912F910F900BBE0F900FBEF0
:100CD0000F901F9018951F920F920FB60F9211242C
:100CE0000BB60F922F933F934F935F936F937F9326
:100CF0008F939F93AF93BF93EF93FF9348E950E097
:100D000064E970E082E090E00E945A04FF91EF9164
:100D1000BF91AF919F918F917F916F915F914F9113
:100D20003F912F910F900BBE0F900FBE0F901F9011
:100D300018951F920F920FB60F9211240BB60F92B7
:100D40002F933F934F935F936F937F938F939F93D3
:100D5000AF93BF93EF93FF9348E850E064E870E0EF
:100D600081E090E00E945A04FF91EF91BF91AF9112
:100D70009F918F917F916F915F914F913F912F91B3
:100D80000F900BBE0F900FBE0F901F9018951092F2
:100D900028021092270288EE93E0A0E0B0E0809352
:100DA000290290932A02A0932B02B0932C0284E094
:100DB00092E0909326028093250285EC90E0909338
:100DC00032028093310284EC90E09093340280935D
:100DD000330280EC90E0909336028093350281ECF0
:100DE00090E0909338028093370282EC90E09093E9
:100DF0003A028093390286EC90E090933C02809313
:100E00003B0210923E0210923F021092400210925A
:100E1000410280915203803398F491E0980F9093AF
:100E200052038093530390E0FC01EE0FFF1FE80F85
:100E3000F91FEE53FD4F88EB9BE092838183089569
:100E40008FEF809353030895789484B5826084BDB6
:100E500084B5816084BD85B5826085BD85B58160BE
:100E600085BD80916E00816080936E00109281003C
:100E700080918100826080938100809181008160F7
:100E800080938100809180008160809380008091B8
:100E9000B10084608093B1008091B0008160809344
:100EA000B0008091910082608093910080919100C8
:100EB0008160809391008091900081608093900088
:100EC0008091A10082608093A1008091A100816047
:100ED0008093A1008091A00081608093A000809108
:100EE00021018260809321018091210181608093A2
:100EF00021018091200181608093200180917A00FE
:100F0000846080937A0080917A00826080937A0076
:100F100080917A00816080937A0080917A00806865
:100F200080937A001092C10080915303803308F0BF
:100F30006BC0E1E1F2E02491EBECF1E084918823D5
:100F400099F090E0880F991FFC01E855FE4FA5919C
:100F5000B491FC01E257FE4F859194918FB7F894BC
:100F6000EC91E22BEC938FBF80915303282F30E05C
:100F7000F901EE0FFF1FE20FF31FEE53FD4F9081BB
:100F8000907C996090839EE89093540394E69093AC
:100F900055032CE0622F0E944C09829FB00111245E
:100FA00030E020E0AB01420F531FFA01EE0FFF1FAC
:100FB000E40FF51FEE53FD4F908196FD17C02F5F94
:100FC0003F4F2C30310571F7813009F093C01092FA
:100FD000800082E08093810010928500109284004E
:100FE000B19A80916F00826080936F00E09153030B
:100FF0008E2F90E0FC01EE0FFF1FE80FF91FEE535C
:10100000FD4F808180648083E0913502F09136024B
:1010100082E08083E0913102F09132021082E0910F
:101020003302F09134028FEC808310923D02E09104
:101030003902F0913A0286E08083E0913702F09124
:101040003802808180618083E0913702F09138021C
:10105000808188608083E0913702F091380280813E
:1010600080688083E0913702F091380280818F7D23
:101070008083CAE5D0E0109224021092230280916E
:101080002302909124028B3591050CF05FC00E94E1
:10109000D7016C01990FEE08FF084AE0C701B601BD
:1010A000F7FE0DC06DE285E292E00E94D90266274C
:1010B0007727CB016C197D098E099F094AE00E94B0
:1010C000210582E192E00E941405E0902302F09055
:1010D0002402C7010E945B0162E370E080E090E0BF
:1010E0000E9428048FEFE81AF80AF0922402E09296
:1010F0002302C5CF823061F410929000809391005A
:10110000109295001092940088BB809371006ECF6E
:10111000833069F41092A00082E08093A1001092C5
:10112000A5001092A40089BB809372005FCF81114B
:101130005DCF1092200182E0809321011092250161
:10114000109224018ABB8093730050CF68EE73E045
:1011500080E090E00E942804D0932402C0932302F0
:10116000809123029091240297FD85CF0E94D701A0
:101170006C01990FEE08FF084AE0C701B601F7FEBF
:101180000DC06DE285E292E00E94D90266277727C2
:10119000CB016C197D098E099F094AE00E94210547
:1011A00082E192E00E941405E0902302F090240274
:1011B000C7010E945B0162E370E080E090E00E9462
:1011C000280481E0E81AF108F0922402E092230258
:1011D000C7CF052E97FB1EF400940E94000957FD0F
:1011E00007D00E941B0907FC03D04EF40C940009A1
:1011F00050954095309521953F4F4F4F5F4F089543
:1012000090958095709561957F4F8F4F9F4F089572
:101210000E943D09A59F900DB49F900DA49F800D45
:10122000911D11240895B7FF0C9408090E94080924
:10123000821B930B0895A1E21A2EAA1BBB1BFD0172
:101240000DC0AA1FBB1FEE1FFF1FA217B307E407A5
:10125000F50720F0A21BB30BE40BF50B661F771FFD
:10126000881F991F1A9469F76095709580959095DD
:101270009B01AC01BD01CF010895A29FB001B39FB6
:10128000C001A39F700D811D1124911DB29F700D8F
:10129000811D1124911D0895991B79E004C0991FA7
:1012A000961708F0961B881F7A95C9F780950895C0
:1012B000EE0FFF1F881F8BBF0790F691E02D19944A
:0412C000F894FFCFD0
:1012C40000000000D902430270022603A1027F023B
:0612D40093020D0A000068
:00000001FF
