:100000000C945D010C948E010C948E010C948E0165
:100010000C948E010C948E010C948E010C948E0124
:100020000C948E010C948E010C948E010C948E0114
:100030000C948E010C948E010C948E010C948E0104
:100040000C948E010C948E010C948E010C948E01F4
:100050000C948E010C948E010C948E010C946F05FF
:100060000C948E010C9439050C940F050C948E01A0
:100070000C948E010C948E010C948E010C948E01C4
:100080000C948E010C948E010C948E010C948E01B4
:100090000C948E010C948E010C948E010C948E01A4
:1000A0000C948E010C948E010C948E010C948E0194
:1000B0000C948E010C948E010C948E010C948E0184
:1000C0000C948E010C948E010C948E010C948E0174
:1000D0000C948E010C948E010C948E010C948E0164
:1000E0000C948E010C94B8090C948A030C94580457
:1000F0000C94A4090C9473020C9483030C9492093D
:100100000C940E090C949B090C9487030C94B60371
:100110000C947B030C94E7030C949A030C949003C7
:100120000C9475030C94AC030C949E030C9406037E
:100130000C94D5090C94CC090C9448090C945F02DA
:100140000C94B0030C9417090C947F030C94C10910
:100150000C9422090C94BA030C9484090C9418048E
:100160000C9494030C94A2030C9403090C94B90509
:100170000C94B9020C942B090C9450020C94230299
:100180000C94A8030C94AF090C94B5030C94340997
:100190000C943F090C9481020000210024002700E8
:1001A0002A002D0030003300010100000401070186
:1001B0000A0100002200250028002B002E0031003B
:1001C000340002010000050108010B0100002000BD
:1001D0002300260029002C002F003200000100001F
:1001E00003010601090105050505070508080808BA
:1001F000020202020A0A08080404040401010101BF
:1002000001010101030303030303030304070707B9
:100210000C0C0C0C0C0C0C0C02020202060606065E
:10022000060606060B0B0B0B0B0B0B0B010210202B
:10023000200808102040102040800201020108041C
:1002400002010102040810204080804020100804B0
:100250000201800402018040201008040201080409
:10026000020101020408102040800102040810204D
:10027000408000000A0B02090C0D0E080703040160
:10028000000000000000000000000000000000006E
:10029000000000000000000000000000000012113B
:1002A000100000000000000000000000000000003E
:1002B0000000000000000000B90511241FBECFEFB0
:1002C000D1E2DEBFCDBF00E00CBF12E0A0E0B2E0A3
:1002D000ECE5F4E100E00BBF02C007900D92A833FB
:1002E000B107D9F723E0A8E3B2E001C01D92A03620
:1002F000B207E1F711E0CDE5D1E000E006C02197BB
:100300000109802FFE010E94240ACC35D10780E02C
:100310000807A9F70E9447060C942C0A0C940000C9
:1003200096E0899FD0011124AF50BD4F90967C93E9
:100330006E935F9791E091969C939197E0915E0305
:10034000F0915F0390915D03992339F0309751F05C
:10035000811108C080910D031994309719F05C96B3
:100360008C91FACF0895CF92DF92EF92FF920F9384
:100370001F9396E0899FF0011124EF50FD4F11A2C9
:10038000278D30A12130310551F178F0223031052F
:1003900009F451C02330310509F452C01F910F9167
:1003A000FF90EF90DF90CF9008956623B9F361E05E
:1003B00070E00E9490012FB7F894809150029091C4
:1003C0005102A0915202B09153022FBF8093490372
:1003D00090934A03A0934B03B0934C03DFCF9FB796
:1003E000F894C0905002D0905102E0905202F090E8
:1003F00053029FBF0091490310914A0320914B0380
:1004000030914C03C01AD10AE20AF30A00915B034F
:1004100010915C0330E020E00C151D052E053F0512
:1004200050F462E070E01F910F91FF90EF90DF9029
:10043000CF900C9490016111B1CF63E070E0F3CFE5
:1004400070E060E0F0CFAF92BF92CF92DF92EF9278
:10045000FF920F931F93CF93DF936C017B018B016E
:10046000040F151FEB015E01AE18BF08C017D107BE
:1004700059F06991D601ED91FC910190F081E02D48
:10048000C6011995892B79F7C501DF91CF911F918D
:100490000F91FF90EF90DF90CF90BF90AF900895B5
:1004A000FC01538D448D252F30E0842F90E0821B7A
:1004B000930B541710F0CF96089501970895FC01FF
:1004C000918D828D981761F0A28DAE0FBF2FB11D57
:1004D0005D968C91928D9F5F9F73928F90E00895AF
:1004E0008FEF9FEF0895FC01918D828D981731F069
:1004F000828DE80FF11D858D90E008958FEF9FEFBD
:100500000895FC01918D228D892F90E0805C9F4F92
:10051000821B91098F739927089584E592E00E94C8
:10052000810221E0892B09F420E0822F0895FC014B
:10053000A48DA80FB92FB11DA35ABF4F2C91848D44
:1005400090E001968F739927848FA689B7892C93A1
:10055000A089B1898C91837080648C93938D848DF4
:10056000981306C00288F389E02D80818F7D8083F7
:100570000895EF92FF920F931F93CF93DF93EC01B7
:1005800081E0888F9B8D8C8D98131AC0E889F9893A
:10059000808185FF15C09FB7F894EE89FF8960833D
:1005A000E889F98980818370806480839FBF81E0BE
:1005B00090E0DF91CF911F910F91FF90EF90089500
:1005C000F62E0B8D10E00F5F1F4F0F731127E02EDB
:1005D0008C8D8E110CC00FB607FCFACFE889F98913
:1005E000808185FFF5CFCE010E949702F1CFEB8D80
:1005F000EC0FFD2FF11DE35AFF4FF0829FB7F894E7
:100600000B8FEA89FB8980818062CFCFCF93DF9304
:10061000EC01888D8823B9F0AA89BB89E889F9891A
:100620008C9185FD03C0808186FD0DC00FB607FC4F
:10063000F7CF8C9185FFF2CF808185FFEDCFCE0182
:100640000E949702E9CFDF91CF91089580E090E07A
:10065000892B29F00E948D0281110E94000080E008
:1006600090E0892B49F080E090E0892B29F00E94EE
:10067000000081110E94000080E090E0892B49F089
:1006800080E090E0892B29F00E94000081110E94F7
:10069000000080E090E0892B49F080E090E0892B19
:1006A00029F00E94000081110C94000008958150EF
:1006B000823108F05AC0E82FF0E08827ED59FC4F4E
:1006C0008F4F0C94240A8303870375037B037F03F6
:1006D000B5038A03900394039A039E03A203A8031D
:1006E000AC03B503B003B603BA03809180008F77E3
:1006F000809380000895809180008F7DF9CF809154
:100700008000877FF5CF84B58F7784BD089584B549
:100710008F7DFBCF8091B0008F778093B0000895DC
:100720008091B0008F7DF9CF809190008F7780937A
:1007300090000895809190008F7DF9CF8091900076
:10074000877FF5CF8091A0008F778093A0000895D8
:100750008091A0008F7DF9CF8091A000877FF5CF99
:10076000809120018F77809320010895809120014E
:100770008F7DF9CF80912001877FF5CFCF93DF93D5
:10078000282F30E0F901EE58FD4F8491F901E45D26
:10079000FD4FD491F901EA51FE4FC491CC23A1F051
:1007A00081110E945703EC2FF0E0EE0FFF1FE4537E
:1007B000FE4FA591B491EC91ED2381E090E009F416
:1007C00080E0DF91CF91089580E090E0FACF862F0E
:1007D0000C94BE031F93CF93DF93282F30E0F901D1
:1007E000EE58FD4F8491F901E45DFD4FD491F9017C
:1007F000EA51FE4FC491CC23A9F0162F81110E941B
:100800005703EC2FF0E0EE0FFF1FEE54FE4FA591C3
:10081000B4918FB7F894EC91111108C0D095DE23F4
:10082000DC938FBFDF91CF911F910895DE2BF8CF1E
:10083000862F642F0C94EA03CF93DF9390E0FC01A2
:10084000E45DFD4F24918A519E4FFC0184918823E1
:10085000C9F090E0880F991FFC01E856FE4FA59162
:10086000B491FC01EE54FE4FC591D49161110DC0BD
:100870009FB7F8948C91209582238C9388812823AC
:1008800028839FBFDF91CF910895623051F49FB7C5
:10089000F8943C91822F809583238C93E8812E2BB2
:1008A000EFCF8FB7F894EC912E2B2C938FBFEACF1C
:1008B000862F642F0C941C043FB7F8948091390262
:1008C00090913A02A0913B02B0913C0226B5A89BC0
:1008D00005C02F3F19F00196A11DB11D3FBFBA2FD2
:1008E000A92F982F8827BC01CD01620F711D811D92
:1008F000911D42E0660F771F881F991F4A95D1F717
:1009000008958F929F92AF92BF92CF92DF92EF9213
:10091000FF920F931F93CF93DF9306E412E073E1EE
:10092000E72E72E0F72EEEE4CE2EE2E0DE2EF801A6
:10093000C1918F016C2F6095617086E10E94EA037E
:10094000D0E0C095D095BE0175956795617087E13F
:100950000E94EA03BE01759567957595679561706C
:1009600088E10E94EA03BE0123E0759567952A9508
:10097000E1F7617089E10E94EA03BE0134E07595F8
:1009800067953A95E1F761708AE10E94EA03BE013A
:1009900045E0759567954A95E1F761708BE10E9496
:1009A000EA03BE0156E0759567955A95E1F76170C7
:1009B0008CE10E94EA03CC0FCD2FCC1FDD0B6C2FF6
:1009C00061708DE10E94EA03F701C1917F0161E04E
:1009D0008C2F0E94EA030E945C044B015C010E9480
:1009E0005C04681979098A099B09683E734081058E
:1009F0009105A8F360E08C2F0E94EA03C016D1068F
:100A000009F095CFDF91CF911F910F91FF90EF905B
:100A1000DF90CF90BF90AF909F908F9008951F92DE
:100A20000F920FB60F9211240BB60F922F933F9394
:100A30004F935F936F937F938F939F93AF93BF93E6
:100A4000EF93FF9384E592E00E949702FF91EF916C
:100A5000BF91AF919F918F917F916F915F914F91D6
:100A60003F912F910F900BBE0F900FBE0F901F90D4
:100A700018951F920F920FB60F9211240BB60F927A
:100A80002F938F939F93EF93FF93E0916402F091E4
:100A900065028081E0916A02F0916B0282FD1DC0C7
:100AA000908180916D028F5F8F7320916E0282170B
:100AB00041F0E0916D02F0E0EC5AFD4F958F80938C
:100AC0006D02FF91EF919F918F912F910F900BBE2F
:100AD0000F900FBE0F901F9018958081F2CF1F923C
:100AE0000F920FB60F9211242F933F938F939F93E2
:100AF000AF93BF938091500290915102A091520206
:100B0000B09153023091380223E0230F2D3758F56E
:100B10000196A11DB11D209338028093500290933D
:100B20005102A0935202B0935302809139029091E6
:100B30003A02A0913B02B0913C020196A11DB11D69
:100B40008093390290933A02A0933B02B0933C0207
:100B5000BF91AF919F918F913F912F910F900FBEB9
:100B60000F901F90189526E8230F0296A11DB11D26
:100B7000D2CF109257021092560288EE93E0A0E076
:100B8000B0E08093580290935902A0935A02B09318
:100B90005B028FE192E0909355028093540285ECC2
:100BA00090E0909361028093600284EC90E09093D7
:100BB00063028093620280EC90E0909365028093E0
:100BC000640281EC90E0909367028093660282EC6D
:100BD00090E0909369028093680286EC90E0909395
:100BE0006B0280936A0210926D0210926E02109254
:100BF0006F02109270021092F3021092F70210929C
:100C0000F6021092F80281E392E09093F202809350
:100C1000F102EDE0F3E01082148213821582369621
:100C200083E0E934F807B9F783E092E09093540346
:100C30008093530380E092E0909356038093550392
:100C400084E08093570383E08093580387E092E029
:100C500090935203809351038AE090E090935A035B
:100C60008093590384EF91E090935C0380935B033E
:100C700010925F0310925E0310924D0310924E0388
:100C800010924F031092500310925D0308957894D0
:100C900084B5826084BD84B5816084BD85B5826081
:100CA00085BD85B5816085BD80916E008160809332
:100CB0006E0010928100809181008260809381009B
:100CC00080918100816080938100809180008160AB
:100CD000809380008091B10084608093B100809106
:100CE000B00081608093B000809191008260809319
:100CF000910080919100816080939100809190009B
:100D00008160809390008091A10082608093A10017
:100D10008091A10081608093A1008091A0008160FA
:100D20008093A000809121018260809321018091B5
:100D30002101816080932101809120018160809355
:100D4000200180917A00846080937A0080917A00FB
:100D5000826080937A0080917A00816080937A002B
:100D600080917A00806880937A001092C10061E0DF
:100D700082E10E941C0461E083E10E941C04E09176
:100D80006402F091650282E08083E0916002F0915C
:100D900061021082E0916202F09163028FEC808325
:100DA00010926C02E0916802F091690286E0808303
:100DB000E0916602F0916702808180618083E0911A
:100DC0006602F0916702808188608083E09166020C
:100DD000F0916702808180688083E0916602F091E3
:100DE000670280818F7D8083C6E161E08C2F0E9445
:100DF0001C04CF5FC632C9F761E089E20E941C047F
:100E000061E08AE20E941C04CFE260E08C2F0E9425
:100E10001C04CF5FC633C9F78FEF80934F02109247
:100E20004E02812C912C5401839466246A94762C72
:100E300056E0452E55245A94CDE3D2E0FE01808140
:100E40009181891353C09281891350C090E000971B
:100E500009F0B4C2C0914F02C13009F090C060E007
:100E600089E20E94EA0361E08AE20E94EA030E94AA
:100E70008104C13009F015C20E948104E1E0E093D1
:100E80005D038FB7F89440915002509151026091E8
:100E90005202709153028FBF80914D0390914E0387
:100EA000A0914F03B0915003481B590B6A0B7B0B69
:100EB0008091590390915A03B0E0A0E08417950700
:100EC000A607B70708F059C1C0E080915703C817BB
:100ED00008F05BC0E0915303F0915403EC0FF11D57
:100EE00062E080810E941C04CF5FEFCF339682E0E6
:100EF000E634F80709F0A3CFADE3B2E08D91129686
:100F00009C911297891306C015969C911597891785
:100F100009F49CCF92E0A034B90781F790913D028B
:100F200080914102981306C020914502921302C09D
:100F3000892F8CCF90913F02891305C09091430275
:100F4000891709F483CFADE3B2E08D91882309F4CA
:100F500081CFEA17FB07C9F71092460286E6809315
:100F6000470280934802109249028EE780934A021A
:100F700080934B0210924C0210924D0235C261E0F8
:100F800089E20E94EA0360E06FCF312C8091580320
:100F9000381608F05FC0032D10E0E0915503F09182
:100FA0005603E00FF11F61E080810E941C04E09174
:100FB0005503F0915603E00FF11F60E080810E941D
:100FC000EA03D501C401032C04C0880F991FAA1F8E
:100FD000BB1F0A94D2F76C017C01E094F094212CA1
:100FE000809157032816F8F4C22DD0E0E091530306
:100FF000F0915403EC0FFD1F80810E94BE032496E4
:10100000CC0FDD1FCF50DD4F892B41F488819981B2
:101010008C299D29998388832394E2CF88819981A3
:101020008E219F21F7CFE0915503F0915603E00FF9
:10103000F11F61E080810E94EA0380915503909145
:101040005603080F191F60E0F80180810E941C04FC
:1010500033949CCF01EF12E0E8018F8D98A1892B8A
:1010600021F41C8E7E8E6D8E19A22696F3E0CD3271
:10107000DF0799F7D12C80915703D81608F052C09A
:10108000C12CED2CF12CEE0CFF1CC70187509D4F9D
:101090007C0120915803C21608F042C0F70160811C
:1010A00071810C2C02C0769567950A94E2F7D29E66
:1010B000900111242C0D311DE1EFF2E080E0458D0F
:1010C000568D2417350709F4BDC18F5F36968A30D7
:1010D000B1F760FF23C0E1EFF2E090E080E0448DE3
:1010E000411117C0E0915103F0915203E20FF31F39
:1010F0004081489EF001499EF00D1124EF50FD4FB4
:10110000448F368F258F10A2178E61E00E94B301A5
:1011100005C0019636968A30910509F7C394B9CF78
:10112000D394A9CF80E0F80191A19111892F0A5F92
:101130001F4FC017D107B9F79FB7F89440915002DD
:101140005091510260915202709153029FBF40939F
:101150004D0350934E0360934F03709350038823C5
:1011600061F080911203882341F0809110039091E7
:101170001103C0910D03019719F010925D03C0E0B7
:10118000D0914E02D11102C0C03381F18FEC8C0F8F
:10119000893008F071CEEC2F0C2E000CFF0BE45FB1
:1011A000FD4F8081811168CE81E08083EEECEC0FF1
:1011B000E83088F40E2E000CFF0B8827ED51F74F16
:1011C0008F4F0C94240A03090E09170922092B09D1
:1011D00034093F09480980914602806C8093460299
:1011E00080914702806880934702C1E36C2F84E5B9
:1011F00092E00E94B902C03319F0DF5FD0934E0233
:1012000050924F0219CE8091460288618093460227
:1012100080914702806180934702E8CF8091460227
:10122000836080934602809147028260F4CF809170
:101230004902806C8093490280914A0280688093C1
:101240004A02D4CF809149028861809349028091FB
:101250004A028061F4CF8091490283608093490201
:1012600080914A028260EBCF80914C02806C809327
:101270004C0280914D02806880934D02B7CF8091DF
:101280004C02886180934C0280914D028061F4CFC2
:1012900080914C02836080934C0280914D02826069
:1012A000EBCF84E592E00E948102892B19F40E9421
:1012B0008104F7CF84E592E00E945F02803371F1F0
:1012C00090914E029F5F90934E02EFECE80FE93051
:1012D00028F5A82F880FBB0BA45FBD4F8C918111FF
:1012E0001DC05C920E2E000CFF0B8827E558F64FB0
:1012F0008F4F0C94240A840992099B09A409AF0911
:10130000B809C109CC09D50980914602806480934F
:10131000460280914702806C8093470281E080936F
:101320004F028ACD80914602886080934602809168
:1013300047028861F1CF8091460281608093460226
:10134000809147028360E8CF809149028064809356
:10135000490280914A02806C80934A02DFCF8091DB
:10136000490288608093490280914A028861F4CFE3
:101370008091490281608093490280914A02836092
:10138000EBCF80914C02806480934C0280914D029F
:10139000806C80934D02C2CF80914C028860809314
:1013A0004C0280914D028861F4CF80914C028160A3
:1013B00080934C0280914D028360EBCF8130910588
:1013C00061F51092460286E68093470280934802B8
:1013D0001092490210924A0280934B028CE3809350
:1013E0004C0288E180934D0206E410E00E948104E3
:1013F00001501109D9F7E6E4F2E01192199282E066
:10140000EE34F807D1F7109245028FEF80934F0228
:1014100010924E020E9426030DCD029709F49CCD36
:101420001092460286E6809347028093480210920B
:10143000490210924A0298E190934B029CE39093E8
:101440004C02D0CF617062CEEE0FFF1F881F8BBFA2
:0C1450000790F691E02D1994F894FFCF5E
:10145C0031302F3233343531323334353637383945
:10146C002A30231E1F20212223242500000000B92E
:10147C000223025002060381025F02730200000085
:08148C000058041804E70300F6
:00000001FF
