:100000000C9439010C946A010C946A010C946A01F5
:100010000C946A010C946A010C946A010C946A01B4
:100020000C946A010C946A010C946A010C946A01A4
:100030000C946A010C94A40A0C946A010C946A0151
:100040000C946A010C94D80B0C946A010C946A010C
:100050000C946A010C946A010C946A010C94040BD0
:100060000C946A010C946A010C946A010C946A0164
:100070000C946A010C946A010C946A010C946A0154
:100080000C94AA0B0C946A010C946A010C946A01FA
:100090000C946A010C946A010C946A010C946A0134
:1000A0000C946A010C946A010C947C0B0C946A0108
:1000B0000C946A010C946A010C946A010C944E0B26
:1000C0000C946A010C946A010C946A010C946A0104
:1000D0000C946A010C946A010C946A010C946A01F4
:1000E0000C946A010C9480020C9467100C947F02AB
:1000F0000C944D020C946C020C945A020C94540211
:100100000C9449020C943F020C94F4010C94840268
:100110000C9447090C9476020C9467030C947202B9
:100120000C9464020C94CA0F0C947A020C94510241
:100130000C942D060C9468020C9445020C942C0629
:100140000C94B1020C94E2020C945E0200002100B7
:10015000240027002A002D00300033000101000098
:10016000040107010A0100002200250028002B00DD
:100170002E003100340002010000050108010B01CE
:10018000000020002300260029002C002F00320050
:100190000001000003010601090105050505070529
:1001A00008080808020202020A0A080804040404F3
:1001B000010101010101010103030303030303031F
:1001C000040707070C0C0C0C0C0C0C0C02020202AE
:1001D00006060606060606060B0B0B0B0B0B0B0B97
:1001E0000102102020080810204010204080020149
:1001F000020108040201010204081020408080402E
:10020000201008040201800402018040201008042C
:1002100002010804020101020408102040800102CA
:1002200004081020408000000A0B02090C0D0E0883
:1002300007030401000000000000000000000000AF
:1002400000000000000000000000000000000000AE
:10025000000012111000000000000000000000006B
:100260000000000000000000000000000200CA0FB3
:10027000671011241FBECFEFD1E2DEBFCDBF00E07B
:100280000CBF12E0A0E0B2E0E4ECF8E200E00BBF4B
:1002900002C007900D92A03CB107D9F724E0A0EC72
:1002A000B2E001C01D92AA31B207E1F711E0C8E344
:1002B000D1E000E006C021970109802FFE010E94D5
:1002C0002912C733D10780E00807A9F70E94060C5E
:1002D0000C9450140C9400008F929F92AF92BF9296
:1002E000FF920F931F93CF93DF93F090FB032FE2C6
:1002F0002F1508F44CC02091FD0308E512E0021B05
:10030000110927FD1395000F111F000F111F2091D8
:10031000FC03C8E8D0E0C21BD10927FDD395CC0F60
:10032000DD1FCC0FDD1F4E010D2E000CAA08BB08EF
:100330009801012E000C440B550B281939094A0964
:100340005B09DC010E94AE1124EB30E040E050E09C
:100350000E948411820E931EA41EB51E8C169D064B
:100360002CF0E801801691060CF4E4012297CC0FE2
:10037000DD1F2FB7F8948F2D90E0FC01EE0FFF1FCB
:10038000E80FF91FE559FC4FD283C1832FBFDF91DE
:10039000CF911F910F91FF90BF90AF909F908F9042
:1003A000089596E0899FD0011124A450BD4F9096E6
:1003B0007C936E935F9791E091969C939197E091D7
:1003C0006903F0916A0390916803992339F030979B
:1003D00051F0811108C0809118031994309719F0D9
:1003E0005C968C91FACF0895AF92BF92CF92DF9234
:1003F000EF92FF920F931F93CF93DF936C017B01DA
:100400008B01040F151FEB015E01AE18BF08C0176A
:10041000D10759F06991D601ED91FC910190F081DD
:10042000E02DC6011995892B79F7C501DF91CF9190
:100430001F910F91FF90EF90DF90CF90BF90AF9002
:1004400008958150823108F05AC0E82FF0E08827E3
:10045000E35DFD4F8F4F0C9429124D0251023F0274
:10046000450249027F0254025A025E026402680297
:100470006C02720276027F027A028002840280910C
:1004800080008F77809380000895809180008F7D19
:10049000F9CF80918000877FF5CF84B58F7784BDB9
:1004A000089584B58F7DFBCF8091B0008F778093C6
:1004B000B00008958091B0008F7DF9CF80919000B9
:1004C0008F77809390000895809190008F7DF9CF71
:1004D00080919000877FF5CF8091A0008F778093E7
:1004E000A00008958091A0008F7DF9CF8091A00099
:1004F000877FF5CF809120018F7780932001089529
:10050000809120018F7DF9CF80912001877FF5CFE9
:10051000CF93DF93282F30E0F901EA5DFD4F8491FE
:10052000F901E052FE4FD491F901E656FE4FC49115
:10053000CC23A1F081110E942102EC2FF0E0EE0FFC
:10054000FF1FE058FE4FA591B491EC91ED2381E09F
:1005500090E009F480E0DF91CF91089580E090E091
:10056000FACF862F0C9488021F93CF93DF93282F06
:1005700030E0F901EA5DFD4F8491F901E052FE4F50
:10058000D491F901E656FE4FC491CC23A9F0162F61
:1005900081110E942102EC2FF0E0EE0FFF1FEA59BB
:1005A000FE4FA591B4918FB7F894EC91111108C04A
:1005B000D095DE23DC938FBFDF91CF911F910895FB
:1005C000DE2BF8CF862F642F0C94B4029091130287
:1005D00089130DC0ECE6F2E0E4919FEF90931302D3
:1005E000E230E1F038F4EE2381F0E13089F060E0B0
:1005F0000C94B402E43049F110F1E530C1F7909168
:1006000073009D7F90937300F2CF10926E00EFCF36
:1006100090916F009D7F90936F00E9CF9091700053
:100620009D7F9093700091E09093B0009091B10005
:10063000987F94609093B1001092B300D8CF9091BE
:1006400071009D7F90937100D2CF909172009D7F39
:1006500090937200CCCFCF93DF9390E0FC01E052F7
:10066000FE4F249186569E4FFC0184918823C9F049
:1006700090E0880F991FFC01E45BFE4FA591B491B7
:10068000FC01EA59FE4FC591D49161110DC09FB78D
:10069000F8948C91209582238C9388812823288339
:1006A0009FBFDF91CF910895623051F49FB7F894C6
:1006B0003C91822F809583238C93E8812E2BEFCF62
:1006C0008FB7F894EC912E2B2C938FBFEACF862F07
:1006D000642F0C942B033FB7F8948091E302909120
:1006E000E402A091E502B091E60226B5A89B05C000
:1006F0002F3F19F00196A11DB11D3FBFBA2FA92FA1
:10070000982F8827BC01CD01620F711D811D911D9D
:1007100042E0660F771F881F991F4A95D1F7089509
:100720008F929F92AF92BF92CF92DF92EF92FF9201
:100730006B017C010E946B034B015C01C114D1046D
:10074000E104F104B9F00E946B03681979098A0980
:100750009B09683E73408105910580F321E0C21A30
:10076000D108E108F10888EE880E83E0981EA11CEC
:10077000B11CE4CFFF90EF90DF90CF90BF90AF908F
:100780009F908F9008952FB7F8946091DF02709139
:10079000E0028091E1029091E2022FBF08950F9351
:1007A0001F93CF93DF93C82FD62F86E0C89FF00109
:1007B0001124E450FD4F11A2878D90A18130910545
:1007C000F1F058F082309105F1F1039709F440C03F
:1007D000DF91CF911F910F9108956623C9F361E0D6
:1007E00070E08C2F0E94D1010E94C30360935403D8
:1007F000709355038093560390935703E9CF0E945B
:10080000C303009154031091550320915603309176
:100810005703AB01BC01401B510B620B730B809162
:10082000660390916703B0E0A0E084179507A607E0
:10083000B70748F462E070E08C2FDF91CF911F91F1
:100840000F910C94D10163E070E0D111C1CFF4CFCE
:1008500070E060E0F1CF6F927F928F929F92AF92A3
:10086000BF92CF92DF92EF92FF920F931F93CF939D
:10087000DF9381E0809368030E94C30300915803D3
:100880001091590320915A0330915B03AB01BC01D5
:10089000401B510B620B730B8091640390916503B5
:1008A000B0E0A0E084179507A607B70708F014C1C9
:1008B000C0E080916203C81760F4E0915E03F0919C
:1008C0005F03EC0FF11D62E080810E942B03CF5F7C
:1008D000F0CF712C812C912C54018394809163036F
:1008E000781608F05FC0072D10E0E0916003F091EA
:1008F0006103E00FF11F61E080810E942B03E09112
:100900006003F0916103E00FF11F60E080810E94BD
:10091000B402D501C401072C04C0880F991FAA1F77
:10092000BB1F0A94D2F76C017C01E094F094612C17
:10093000809162036816F8F4C62DD0E0E0915E0362
:10094000F0915F03EC0FFD1F80810E9488022496C6
:10095000CC0FDD1FC450DD4F892B41F48881998174
:100960008C299D29998388836394E2CF888199811A
:100970008E219F21F7CFE0916003F0916103E00F9A
:10098000F11F61E080810E94B40280916003909128
:100990006103080F191F60E0F80180810E942B039A
:1009A00073949CCFCCEFD2E0FE018FEF9FEF278DA9
:1009B00030A1232B21F4148E968F858F11A23696A9
:1009C00023E0E833F20799F7F12C96E0D92E8091D5
:1009D0006203F81608F050C0E12C0F2D10E0000F54
:1009E000111F0C5F1C4F20916303E21608F042C0F8
:1009F000F801608171810E2C02C0769567950A948A
:100A0000E2F7F29E900111242E0D311DECEFF2E081
:100A100080E0458D568D2417350709F461C08F5F3E
:100A200036968A30B1F760FF23C0ECEFF2E090E039
:100A300080E0448D411117C0E0915C03F0915D03AB
:100A4000E20FF31F4081D89EF001D99EF00D1124D2
:100A5000E450FD4F448F368F258F10A2178E61E032
:100A60000E94CF0305C0019636968A30910509F79A
:100A7000E394B9CFF394ABCF10E089A18111182F83
:100A80002696F3E0C833DF07C1F70E94C3036093E3
:100A900058037093590380935A0390935B03112377
:100AA000D9F080911D038823B9F080911B039091A8
:100AB0001C03019789F480911803DF91CF911F9156
:100AC0000F91FF90EF90DF90CF90BF90AF909F90ED
:100AD0008F907F906F9008951092680380E0EDCF23
:100AE0006170BECFAF92BF92CF92DF92EF92FF9232
:100AF0000F931F93CF93DF936B017A01EC01C652E2
:100B0000DD4F28813CE0389F8001399F100D112472
:100B1000A090D902B12C27FF1FC0FB0111821082C7
:100B200088818F5F888388819801280F311D87FD18
:100B30003A95F6012A153B051CF488818C30C4F1E6
:100B400080819181049680349C4908F473C0F60139
:100B500080819181049670C088819801280F311D91
:100B600087FD3A952A153B05DCF68881A801480FD8
:100B7000511D87FD5A95FA01EE0FFF1FE40FF51F77
:100B8000E559FC4F808186FFCBCF8881F801E80FC3
:100B9000F11D87FDFA95CF01EE0FFF1FE80FF91F3A
:100BA000E559FC4F808160E08F730E94B402B8CF9A
:100BB000808191812881A801420F511D27FD5A95FE
:100BC0009A01FA01EE0FFF1FE20FF31FE559FC4FE8
:100BD00021813281820F931FF70191838083888165
:100BE0009801280F311D87FD3A95F901EE0FFF1F7F
:100BF000E20FF31FE559FC4F808186FF22C08881F8
:100C0000080F111D87FD1A95F801EE0FFF1FE00F69
:100C1000F11FE559FC4F808161E08F73DF91CF9127
:100C20001F910F91FF90EF90DF90CF90BF90AF900A
:100C30000C94B40280E49CE9F701918380838FEFE8
:100C40008883DF91CF911F910F91FF90EF90DF90FC
:100C5000CF90BF90AF900895089590E080E0089500
:100C6000CF92DF92EF92FF92CF936B017C01809144
:100C700013028330D1F08F3F79F120E030E04AE772
:100C800053E4C701B6010E94C6100E94E711072E67
:100C9000000C880B990B0E94900383E0CF91FF908A
:100CA000EF90DF90CF900C94E602ECE6F2E0C49176
:100CB000C7FDE3CF61E083E00E942B03CC2309F45E
:100CC000DEC0C23009F0F2C08091B100887F84603C
:100CD0008093B10089EF7AC183E080931302ECE640
:100CE000F2E0C4918C2FCF3F41F2C23009F468C0CA
:100CF00060F4CC2379F1C13009F444C087FDBDCF45
:100D000061E083E00E942B03DCCFC43009F499C07A
:100D100008F478C0C53091F710922001109221019B
:100D2000809121018860809321018091210181605F
:100D300080932101EDE9F1E0E491F0E0EE0FFF1F77
:100D4000EA59FE4F85919491E3EEF1E0E491E0934E
:100D5000C002B0CF14BC15BC84B5826084BD85B51B
:100D6000816085BDEDE9F1E0E491F0E0EE0FFF1F59
:100D7000EA59FE4F85919491E3EEF1E0E491E0931E
:100D8000C40298CF1092800010928100809181005F
:100D900088608093810080918100816080938100D0
:100DA000EDE9F1E0E491F0E0EE0FFF1FEA59FE4FAC
:100DB00085919491E3EEF1E0E491E093C3027ACF60
:100DC0001092B0001092B1008091B00082608093C8
:100DD000B0008091B10081608093B100EDE9F1E055
:100DE000E491F0E0EE0FFF1FEA59FE4F85919491D8
:100DF0009093E8028093E702E3EEF1E0E491E09360
:100E0000E90258CF109290001092910080919100C9
:100E1000886080939100809191008160809391001F
:100E2000EDE9F1E0E491F0E0EE0FFF1FEA59FE4F2B
:100E300085919491E3EEF1E0E491E093C202C3E086
:100E400039CF1092A0001092A1008091A10088607B
:100E50008093A1008091A10081608093A100EDE9C1
:100E6000F1E0E491F0E0EE0FFF1FEA59FE4F8591AB
:100E70009491E3EEF1E0E491E093C1021BCF85B5DC
:100E8000887F836085BD89EF87BD8FEF9FEFDC0191
:100E90008093D5029093D602A093D702B093D80244
:100EA00080916E00826080936E00E7CEC130E9F4DD
:100EB00080918100887F8160809381008FE79EE32D
:100EC00090938900809388008FEF9FEFDC018093DF
:100ED000D1029093D202A093D302B093D402809116
:100EE0006F00826080936F00C8CEC330E9F48091B8
:100EF0009100887F8160809391008FE79EE39093BB
:100F00009900809398008FEF9FEFDC018093CD02D2
:100F10009093CE02A093CF02B093D0028091710043
:100F2000826080937100A9CEC430E9F48091A10061
:100F3000887F81608093A1008FE79EE39093A90052
:100F40008093A8008FEF9FEFDC018093C9029093FC
:100F5000CA02A093CB02B093CC028091720082604F
:100F6000809372008ACEC530E9F480912101887F98
:100F70008160809321018FE79EE390932901809304
:100F800028018FEF9FEFDC018093C5029093C6028A
:100F9000A093C702B093C8028091730082608093CF
:100FA00073006BCEC23089F034F4CC2361F0C130D1
:100FB00009F063CE83CFC43009F4BECF0CF49DCFCB
:100FC000C530C9F25ACE8FE75FCF8FE78093B30069
:100FD0008FEF9FEFDC018093EA029093EB02A093E6
:100FE000EC02B093ED0280917000826080937000FB
:100FF00044CECF93DF93EC0160E08E810E94B40277
:1010000061E08E810E94B40260E08E810E94B40291
:101010008BE891E00197F1F7DF91CF910895CF929E
:10102000DF92EF92FF920F931F93CF93DF936C01A8
:101030007C0187E0E80EF11CD0E0C0E0062F10E054
:10104000B8010C2E02C0759567950A94E2F761709D
:10105000F70181917F010E94B4022196C430D1052D
:1010600079F7C601DF91CF911F910F91FF90EF901B
:10107000DF90CF900C94F907CF92DF92EF92FF921E
:101080000F931F93CF93DF93EC01F62E642F8C8187
:101090000E94B4028D818F3F19F060E00E94B4027B
:1010A0000F2D10E08F8584FF25C06E0187E0C80EEC
:1010B000D11CF12CE12CB8010E2C02C0759567955E
:1010C0000A94E2F76170F60181916F010E94B40207
:1010D000FFEFEF1AFF0A88E0E816F10461F7CE018E
:1010E000DF91CF911F910F91FF90EF90DF90CF9004
:1010F0000C94F907B80184E0759567958A95E1F736
:10110000CE010E940F086F2DCE01DF91CF911F916C
:101110000F91FF90EF90DF90CF900C940F0840E07C
:10112000682F8EEF93E00C943C0881E00E948F08BA
:101130008BE39FE10197F1F70895CF93DF93EC01E3
:101140000E9495084C815D81688179818EEF93E0E2
:10115000DF91CF910C94F401CF93DF9381E08093E2
:1011600011041092120480E48093130480E18093B0
:10117000140480E58093150461E0809102040E94CC
:101180002B03809103048F3F19F061E00E942B0331
:1011900061E0809104040E942B03CEEFD3E09E0116
:1011A0002E5F334080910D0484FD0BC084E090E0FD
:1011B00021962817390744F461E08E810E942B03A1
:1011C000EECF88E090E0F4CF8BE39DE00197F1F75C
:1011D00060E0809102040E94B40260E08091040407
:1011E0000E94B402809103048F3F19F060E00E94D6
:1011F000B40280910D0484FD34C063E08EEF93E06F
:101200000E940F08CBE4D6E4CE010197F1F763E02A
:101210008EEF93E00E940F082197F1F763E08EEFC5
:1012200093E00E940F0883E592E00197F1F762E0F6
:101230008EEF93E00E940F0880910D0480620E945F
:101240008F0884E080930E048CE00E948F080E9437
:10125000950882E080930F0486E0DF91CF910C9493
:101260008F0880620E948F088BE496E40197F1F763
:1012700080910D0480620E948F0883E592E00197BF
:10128000F1F780910D0480620E948F08D5CF41E074
:101290000E943C0881E090E00895CF93DF93EC0139
:1012A000A881B981EB01E881F9811097F1F03097BD
:1012B000B1F4EC018C819D81892BC9F08C9190E077
:1012C0000BC0DB0114968D919C91892B81F080815C
:1012D00090E0919581959109DF91CF910895BF019B
:1012E000CD01DF91CF910C944014309751F790E0ED
:1012F00080E0F2CF2091FA023091FB028091F4025B
:101300009091F5022817390749F460EF72E086EFF3
:1013100092E00E944D0921E0892B09F020E0822F04
:1013200008950F931F93CF93DF93EC0188819981E8
:10133000009759F02A813B812617370730F081E06A
:10134000DF91CF911F910F9108958B016F5F7F4FB8
:101350000E945613009759F0998388831B830A8350
:101360002C813D81232B59F7FC011082E8CF80E0CE
:10137000E7CFEF92FF920F931F93CF93DF93611507
:10138000710541F480E0DF91CF911F910F91FF90A3
:10139000EF90089541155105B1F07B01EC010C81EE
:1013A0001D81040F151FB8010E949109882351F374
:1013B000288139818C819D81B701820F931F0E9402
:1013C00049141D830C8381E0DECFCF93DF931F92FE
:1013D0001F92CDB7DEB769831A8241E050E0BE01AB
:1013E0006F5F7F4F0E94B9090F900F90DF91CF91EF
:1013F0000895CF93DF93EC0188819981009711F0D4
:101400000E94CD12198218821D821C821B821A82B0
:10141000DF91CF910895EF92FF920F931F93CF9397
:10142000DF93EC017B018A01BA010E9491098111CD
:101430000BC0CE010E94F909CE01DF91CF911F911F
:101440000F91FF90EF9008951D830C83B701888161
:1014500099810E944914F0CFFB0101900020E9F727
:101460003197AF01461B570B0C940B0ACF93DF93B8
:10147000EC01FB018617970749F0608171816115C6
:10148000710541F0448155810E940B0ACE01DF9124
:10149000CF9108950E94F909F9CFFC0111821082C1
:1014A0001382128215821482FB0101900020E9F759
:1014B0003197AF01461B570B0C940B0AFC0180813E
:1014C0009181009711F00C94CD120895CF92DF9284
:1014D000EF92FF92CF93DF9300D000D0CDB7DEB76D
:1014E0006A017B011A8219821C821B821E821D8264
:1014F000BC01CE0101960E94360ACE0101960E94DF
:101500009D08CE0101960E945E0AC701B6010E94A5
:10151000300661E672E0CE0101960E944D0ACE01CE
:1015200001960E949D08CE0101960E945E0A2696B1
:101530000FB6F894DEBF0FBECDBFDF91CF91FF9005
:10154000EF90DF90CF9008951F920F920FB60F92F9
:1015500011240BB60F922F933F934F935F936F938A
:101560007F938F939F93AF93BF93EF93FF9380915C
:10157000EA029091EB02A091EC02B091ED02892B6E
:101580008A2B8B2BE1F19091E902E091E702F09137
:10159000E8028081892780838091EA029091EB02A2
:1015A000A091EC02B091ED02181619061A061B065E
:1015B0009CF48091EA029091EB02A091EC02B09130
:1015C000ED020197A109B1098093EA029093EB0221
:1015D000A093EC02B093ED02FF91EF91BF91AF9118
:1015E0009F918F917F916F915F914F913F912F913B
:1015F0000F900BBE0F900FBE0F901F90189580910B
:1016000013020E94E602E8CF1F920F920FB60F92CC
:1016100011242F933F938F939F93AF93BF93809108
:10162000DF029091E002A091E102B091E2023091DC
:10163000DE0223E0230F2D3758F50196A11DB11DC1
:101640002093DE028093DF029093E002A093E102F8
:10165000B093E2028091E3029091E402A091E5024E
:10166000B091E6020196A11DB11D8093E302909313
:10167000E402A093E502B093E602BF91AF919F917F
:101680008F913F912F910F900FBE0F901F90189543
:1016900026E8230F0296A11DB11DD2CF1F920F92F3
:1016A0000FB60F9211240BB60F922F933F934F93C7
:1016B0005F936F937F938F939F93AF93BF93EF93BA
:1016C000FF9348E251E064E271E090E080E00E9424
:1016D0007205FF91EF91BF91AF919F918F917F9193
:1016E0006F915F914F913F912F910F900BBE0F9093
:1016F0000FBE0F901F9018951F920F920FB60F926A
:1017000011240BB60F922F933F934F935F936F93D8
:101710007F938F939F93AF93BF93EF93FF9348EA89
:1017200050E064EA70E083E090E00E947205FF916F
:10173000EF91BF91AF919F918F917F916F915F9149
:101740004F913F912F910F900BBE0F900FBE0F90B6
:101750001F9018951F920F920FB60F9211240BB67F
:101760000F922F933F934F935F936F937F938F933A
:101770009F93AF93BF93EF93FF9348E950E064E9E1
:1017800070E082E090E00E947205FF91EF91BF91BE
:10179000AF919F918F917F916F915F914F913F9109
:1017A0002F910F900BBE0F900FBE0F901F901895AA
:1017B0001F920F920FB60F9211240BB60F922F9318
:1017C0003F934F935F936F937F938F939F93AF93C9
:1017D000BF93EF93FF9348E850E064E870E081E046
:1017E00090E00E947205FF91EF91BF91AF919F91A0
:1017F0008F917F916F915F914F913F912F910F90BA
:101800000BBE0F900FBE0F901F901895CF93DF93D4
:10181000CDB7DEB7AD970FB6F894DEBF0FBECDBF24
:10182000789484B5826084BD84B5816084BD85B5BB
:10183000826085BD85B5816085BD80916E008160C7
:1018400080936E001092810080918100826080936D
:10185000810080918100816080938100809180006F
:101860008160809380008091B10084608093B1009A
:101870008091B00081608093B0008091910082607F
:10188000809391008091910081608093910080917C
:1018900090008160809390008091A100826080938D
:1018A000A1008091A10081608093A1008091A0009F
:1018B00081608093A000809121018260809321014A
:1018C00080912101816080932101809120018160BC
:1018D0008093200180917A00846080937A008091C7
:1018E0007A00826080937A0080917A008160809390
:1018F0007A0080917A00806880937A001092C1000B
:101900000E94AC08E1E0809111048111E0E0E195D2
:10191000F0E0E250FC4F848980680E948F080E94AA
:10192000950846E050E060E372E08EEF93E00E949D
:10193000F4018091FB03803308F052C061E089E03C
:101940000E942B038091FB03282F30E0F901EE0F5A
:10195000FF1FE20FF31FE559FC4F9081907C9960C7
:1019600090831092FC031092FD032CE0622F0E94E2
:101970001D12829FB001112430E020E0AB01420F24
:10198000531FFA01EE0FFF1FE40FF51FE559FC4F3F
:10199000908196FD17C02F5F3F4F2C30310571F7B6
:1019A000813009F073C01092800082E08093810042
:1019B0001092850010928400B19A80916F0082602D
:1019C00080936F00E091FB038E2F90E0FC01EE0FFF
:1019D000FF1FE80FF91FE559FC4F80818064808369
:1019E00090E080E00E946C0161E081E00E942B03A6
:1019F00061E080E00E942B0361E083E00E942B0302
:101A000060E082E00E942B0360E081E00E94B4026B
:101A100061E080E00E94B40260E082E00E94B402D3
:101A20004CE2842E99249394A12CB12C50E1E52E04
:101A300057E2F52E60E0C62E60E0D62E60E372E03D
:101A4000CE0101960E944D0ACE0101960E949D088A
:101A5000CE0101960E945E0A0E942B04182F882353
:101A6000D9F36DEC7CEC8CE49EE30E94300680EDB3
:101A7000810F8A30B8F5612F86EF92E00E94E50968
:101A8000C114D104D9F20E940000D8CF823061F491
:101A90001092900080939100109295001092940003
:101AA00088BB809371008ECF833069F41092A000C0
:101AB00082E08093A1001092A5001092A40089BB3F
:101AC000809372007FCF81117DCF1092200182E040
:101AD0008093210110922501109224018ABB8093EA
:101AE000730070CF1A3209F082C10E947A09811105
:101AF00098C067E372E0CE0101960E944D0A40E073
:101B000050E060E070E4CE0101960E94660ACE01CA
:101B100001960E945E0A61E672E086EF92E00E9402
:101B20002C0A2091EE023091EF02C90101969093A8
:101B3000EF028093EE02AC0143705527452B09F06C
:101B40009FCF1BA21AA21DA21CA21FA21EA297FD1C
:101B500003964AE0BE016F5F7F4F959587959595F7
:101B600087950E946F10BE016F5F7F4FCE018296F6
:101B70000E942C0A62E472E0CE0188960E944D0A0F
:101B80004EA15FA16AA17BA1CE0188960E94B909EE
:101B9000811104C0CE0188960E94F90943E050E00B
:101BA0006BE472E0CE0188960E94B909811104C0ED
:101BB000CE0188960E94F9091A8219821C821B8222
:101BC0001E821D82BE01685D7F4FCE0101960E947C
:101BD000360ACE0101960E949D08CE0101960E9410
:101BE0005E0ACE0188960E945E0ACE0182960E940D
:101BF0005E0A8091EE029091EF0297FD0396959513
:101C00008795959587958E9DB0018F9D700D9E9DB2
:101C1000700D1124072E000C880B990B0E94900365
:101C20002FCF1092EF021092EE026FE472E0CE011D
:101C300001960E944D0ACE0101960E949D08CE0198
:101C400001960E945E0A8AE590E00E946C0161E0C4
:101C500081E00E94B40260E080E00E94B40260E093
:101C600070E080E09FE30E9430060E94C3038B0176
:101C70002B01770F660877080E94C3031BA21AA2E4
:101C80001DA21CA21FA21EA264197509860997092C
:101C9000A50194010E94B611CA01B9012AE0AE0162
:101CA0004F5F5F4F0E947A10BE016F5F7F4FCE0182
:101CB00082960E942C0A6BE572E0CE0188960E9403
:101CC0004D0A4EA15FA16AA17BA1CE0188960E9418
:101CD000B909811104C0CE0188960E94F90941E03A
:101CE00050E060E472E0CE0188960E94B90981114B
:101CF00004C0CE0188960E94F9091A8219821C82BA
:101D00001B821E821D82BE01685D7F4FCE0101963F
:101D10000E94360ACE0101960E949D08CE010196CE
:101D20000E945E0ACE0188960E945E0ACE018296CB
:101D30000E945E0A6AEF70E080E090E00E949003EB
:101D40000E94C3039801012E000C440B550B621B2B
:101D5000730B840B950B6D3A7D408105910530F036
:101D60006AE979E989E99EE30E9430060E942B0422
:101D7000833219F40E94C3038B0160E082E00E9469
:101D8000B40282E00E948802019709F075CF0AE050
:101D900010E060E082E00E94B40201501109C9F72E
:101DA00062E672E0CE0101960E944D0ACE010196D4
:101DB0000E949D08CE0101960E945E0A90E080E09C
:101DC0000E946C0160E081E00E94B40261E080E06A
:101DD0000E94B40260E070E080E09FE30E94300661
:101DE00061E672E086EF92E00E942C0A49CE6EE630
:101DF00072E0CE0101960E944D0ACE0101960E942A
:101E00009D08CE0101960E945E0A61E672E086EFAF
:101E100092E00E942C0A0E942B04182F8823D9F3E9
:101E20006DEC7CEC8CE49EE30E94300680ED810F2B
:101E30008A3030F4612F86EF92E00E94E509EBCF03
:101E40001A3249F70E947A09811113C067E372E0E0
:101E5000CE0101960E944D0A40E050E060E070E43F
:101E6000CE0101960E94660ACE0101960E945E0A8A
:101E7000B7CF61E672E086EF92E00E942C0A61E63D
:101E800072E0CE0188960E944D0A61E672E0CE01B2
:101E900082960E944D0A6EE772E0CE0101960E9482
:101EA0004D0ACE0101960E949D08CE0101960E9426
:101EB0005E0A0E942B04182F8823D9F36DEC7CEC6A
:101EC0008CE49EE30E94300680ED810F8A3030F46E
:101ED000612FCE0188960E94E509EBCF1A3249F7AF
:101EE0006EE872E0CE0101960E944D0ACE01019685
:101EF0000E949D08CE0101960E945E0A0E942B045A
:101F0000182F8823D9F36DEC7CEC8CE49EE30E94BF
:101F1000300680ED810F8A3030F4612FCE01829639
:101F20000E94E509EBCF1A3249F72EA13FA18CA5FB
:101F30009DA52817390749F4BE01685D7F4FCE0182
:101F400082960E944D09892BD9F06EE972E0CE018C
:101F500001960E944D0A40E050E060EC7FE3CE0124
:101F600001960E94660ACE0101960E945E0ACE0189
:101F700082960E945E0ACE0188960E945E0A80CDFB
:101F8000BE01685D7F4F80EF92E00E94360A6DEAE5
:101F900072E0DDCFCF931092FE02109202031092F6
:101FA0000103109203038AE292E09093FD02809372
:101FB000FC02E8E1F3E01082148213821582369667
:101FC00083E0E435F807B9F783E092E090935F038C
:101FD00080935E0380E092E09093610380936003BE
:101FE00084E08093620383E08093630387E092E060
:101FF00090935D0380935C038AE090E09093650387
:102000008093640384EF91E0909367038093660369
:1020100010926A03109269031092580310925903A8
:1020200010925A0310925B031092680310920104FD
:10203000109200048EE192E09093FF038093FE03E0
:1020400086E180930204CFEFC093030487E180937D
:10205000040488E18093050489E1809306048AE101
:10206000809307048BE18093080410920904109276
:102070000A0410920B0410920C0410920D040E949A
:10208000AC088091D9028033F8F491E0980F9093D6
:10209000D9028093FB0390E0FC01EE0FFF1FE80FD5
:1020A000F91FE559FC4F88EB9BE0928381836AEB33
:1020B00072E080EF92E00E944D0A61E672E086EFE6
:1020C00092E0CF910C944D0AC093FB03F0CF86EFC2
:1020D00092E00E945E0A80EF92E00C945E0ABB27B9
:1020E0004A3031F4992322F4BDE2909581959F4FB7
:1020F0000C949D10BB27FA01A62F6217710581056C
:102100009105330B30FB66F0AA27660F771F881FF7
:10211000991FAA1FA21710F0A21B63953850A9F7A8
:10212000A05DAA3308F0A95DA19336F7B111B19370
:102130001082CA010C94B610BB27FB015527AA27B1
:10214000880F991FAA1FA41710F0A41B8395505144
:10215000B9F7A05DAA3308F0A95DA193009779F7BC
:10216000B111B1931192CB010C94B610DC01FC01BA
:10217000672F71917723E1F7329704C07C916D93BB
:1021800070836291AE17BF07C8F308950E94D910FB
:102190000C944A110E943C1138F00E94431120F027
:1021A000952311F00C9433110C94391111240C94D3
:1021B0007E110E945B1170F3959FC1F3950F50E063
:1021C000551F629FF001729FBB27F00DB11D639FE9
:1021D000AA27F00DB11DAA1F649F6627B00DA11D8F
:1021E000661F829F2227B00DA11D621F739FB00D35
:1021F000A11D621F839FA00D611D221F749F3327A5
:10220000A00D611D231F849F600D211D822F762F3D
:102210006A2F11249F5750409AF0F1F088234AF01A
:10222000EE0FFF1FBB1F661F771F881F9150504086
:10223000A9F79E3F510580F00C9433110C947E1148
:102240005F3FE4F3983ED4F3869577956795B7950D
:10225000F795E7959F5FC1F7FE2B880F911D969527
:10226000879597F9089597F99F6780E870E060E097
:1022700008959FEF80EC089500240A94161617061F
:1022800018060906089500240A9412161306140667
:1022900005060895092E0394000C11F4882352F0CA
:1022A000BB0F40F4BF2B11F460FF04C06F5F7F4F82
:1022B0008F4F9F4F089557FD9058440F551F59F069
:1022C0005F3F71F04795880F97FB991F61F09F3F23
:1022D00079F087950895121613061406551FF2CF4C
:1022E0004695F1DF08C0161617061806991FF1CF9C
:1022F00086957105610508940895E894BB276627C3
:102300007727CB0197F90895052E97FB1EF40094CB
:102310000E949B1157FD07D00E94B61107FC03D005
:102320004EF40C949B1150954095309521953F4F5C
:102330004F4F5F4F089590958095709561957F4FB1
:102340008F4F9F4F08950E94D811A59F900DB49F65
:10235000900DA49F800D911D11240895B7FF0C943A
:10236000A3110E94A311821B930B0895A1E21A2EC0
:10237000AA1BBB1BFD010DC0AA1FBB1FEE1FFF1F29
:10238000A217B307E407F50720F0A21BB30BE40B79
:10239000F50B661F771F881F991F1A9469F76095C0
:1023A0007095809590959B01AC01BD01CF0108957A
:1023B000A29FB001B39FC001A39F700D811D112486
:1023C000911DB29F700D811D1124911D08950E94D1
:1023D000EE116894B1110C947E1108950E9463115E
:1023E00088F09F5798F0B92F9927B751B0F0E1F0D6
:1023F000660F771F881F991F1AF0BA95C9F714C086
:10240000B13091F00E947D11B1E008950C947D11DE
:10241000672F782F8827B85F39F0B93FCCF38695BE
:1024200077956795B395D9F73EF49095809570951B
:1024300061957F4F8F4F9F4F0895991B79E004C09E
:10244000991F961708F0961B881F7A95C9F78095F3
:102450000895EE0FFF1F881F8BBF0790F691E02DA8
:1024600019940F931F93CF93DF938230910510F44B
:1024700082E090E0E0911804F091190430E020E04F
:10248000B0E0A0E0309799F42115310509F44AC075
:10249000281B390B24303105D8F58A819B816115C1
:1024A000710589F1FB0193838283FE0111C0408194
:1024B00051810281138148175907E0F048175907E5
:1024C00099F4109761F012960C93129713961C933F
:1024D0003296CF01DF91CF911F910F910895009314
:1024E000180410931904F4CF2115310551F0421747
:1024F000530738F0A901DB019A01BD01DF01F801A2
:10250000C1CFEF01F9CF9093190480931804CDCF78
:10251000FE01E20FF31F8193919322503109398319
:102520002883D7CF2091160430911704232B41F430
:10253000209116023091170230931704209316044D
:1025400020911402309115022115310541F42DB767
:102550003EB74091180250911902241B350BE091AF
:102560001604F0911704E217F307A0F42E1B3F0B9B
:102570002817390778F0AC014E5F5F4F24173507F5
:1025800048F04E0F5F1F5093170440931604819339
:1025900091939FCFF0E0E0E09CCFCF93DF93009743
:1025A000E9F0FC01329713821282A0911804B091D5
:1025B0001904ED0130E020E01097A1F42081318171
:1025C000820F931F209116043091170428173907A2
:1025D00009F061C0F0931704E0931604DF91CF91E6
:1025E0000895EA01CE17DF07E8F54A815B819E0175
:1025F00041155105B1F7E901FB83EA8349915991EE
:10260000C40FD51FEC17FD0761F4808191810296FC
:10261000840F951FE90199838883828193819B832D
:102620008A83F0E0E0E012968D919C9113970097D9
:10263000B9F52D913C911197CD010296820F931F10
:1026400020911604309117042817390739F630976E
:1026500051F51092190410921804B0931704A09326
:102660001604BCCFD383C28340815181840F951F50
:10267000C817D90761F44E5F5F4F88819981480F71
:10268000591F518340838A819B81938382832115C3
:10269000310509F0B0CFF0931904E09318049ECFF0
:1026A000FD01DC01C0CF13821282D7CF4F925F921F
:1026B0006F927F928F929F92AF92BF92CF92DF9252
:1026C000EF92FF920F931F93CF93DF938C010097AC
:1026D00099F4CB01DF91CF911F910F91FF90EF9073
:1026E000DF90CF90BF90AF909F908F907F906F9032
:1026F0005F904F900C943112FC01E60FF71F9C0184
:1027000022503109E217F30708F4AEC0D901CD9188
:10271000DC911197C617D70720F1C530D10578F0A5
:10272000CE0104978617970750F0C61BD70B229748
:10273000C193D1936D937C93CF010E94CD12C801B8
:10274000DF91CF911F910F91FF90EF90DF90CF908D
:10275000BF90AF909F908F907F906F905F904F90C1
:1027600008955B01AC1ABD0A4C018C0E9D1EA09110
:102770001804B0911904512C412CF12CE12C109724
:1027800031F580911604909117048815990509F088
:102790005CC04616570608F058C08091140290910C
:1027A0001502009741F48DB79EB7409118025091E1
:1027B0001902841B950BE817F90708F055C0F09330
:1027C0001704E0931604F90171836083B8CF8D91EB
:1027D0009C91119712966C90129713967C90139778
:1027E000A815B90559F56C0142E0C40ED11CCA14F4
:1027F000DB0420F1AC014A195B09DA011296159746
:1028000080F06282738251834083D9016D937C93FF
:10281000E114F10471F0D7011396FC93EE93129733
:102820008ECF22968C0F9D1FF90191838083F30137
:10283000EFCFF0931904E093180481CF481659069E
:1028400008F42C017D01D3019ACFCB010E943112F3
:102850007C01009749F0AE01B8010E943714C8010D
:102860000E94CD1287016BCF10E000E068CFFB0122
:10287000DC0102C001900D9241505040D8F70895FC
:10288000FB01DC018D91019080190110D9F3990BA6
:102890000895FB01DC0101900D920020E1F70895FD
:1028A00011E0C8E3D1E000E006C0802FFE010E94E5
:1028B00029122196011DC933D10780E00807A9F725
:0428C000F894FFCFBA
:1028C4001E1D1C1F2021223132333435363738394E
:1028D4002A3023FF00001A0480000000000047098A
:1028E400F4012D062C06000000006703E202B10289
:1028F400436C6F73652E0077726F6E67207061731F
:10290400730064697361626C6520006D696E0064B4
:102914006F6F72206F70656E65640074696D653ADF
:102924002000646F6F7220636C6F736564006F6C5A
:10293400642070617373207468656E202A006E656C
:10294400772070617373207468656E202A00726545
:1029540020656E746572207468656E202A00646F49
:1029640073656E2774206D617463682100706173F0
:1029740073206368616E6765640030303030000036
:00000001FF
