:100000000C94E3000C9414010C9414010C9414014E
:100010000C9414010C9414010C9414010C9414010C
:100020000C9414010C9414010C9414010C941401FC
:100030000C9414010C9414010C9414010C941401EC
:100040000C9414010C9414010C9414010C941401DC
:100050000C9414010C9414010C9414010C940603D8
:100060000C94B0030C947A030C9450030C94140178
:100070000C9414010C9414010C9414010C941401AC
:100080000C9414010C9414010C9414010C9414019C
:100090000C9414010C9414010C9414010C9414018C
:1000A0000C9414010C9414010C9414010C9414017C
:1000B0000C9414010C9414010C9414010C9414016C
:1000C0000C9414010C9414010C9414010C9414015C
:1000D0000C9414010C9414010C9414010C9414014C
:1000E0000C9414010C9416010C94F2040C94660107
:1000F0000C9443010C94AC010C9452010C947401C7
:100100000C94F90100002200250028002B002E008D
:100110003100340002010000050108010B0100005C
:100120002100240027002A002D00300033000101A7
:100130000000040107010A01050505050705080877
:100140000808020202020A0A080804040404010161
:100150000101010101010303030303030303040776
:1001600007070C0C0C0C0C0C0C0C0202020206060D
:100170000606060606060B0B0B0B0B0B0B0B010200
:1001800010202008081020401020408002010201A9
:100190000804020101020408102040808040201061
:1001A00008040201800402018040201008040201BA
:1001B0000804020101020408102040800102040822
:1001C00010204080F20411241FBECFEFD1E2DEBF29
:1001D000CDBF00E00CBF12E0A0E0B2E0E6E9FAE03B
:1001E00000E00BBF02C007900D92A033B107D9F712
:1001F00022E0A0E3B2E001C01D92AA3DB207E1F700
:1002000010E0C3EED0E000E006C021970109802F86
:10021000FE010E944105C23ED10780E00807A9F710
:100220000E9404040C9449050C940000AF92BF9204
:10023000CF92DF92EF92FF920F931F93CF93DF93B2
:100240006C017B018B01040F151FEB015E01AE18E1
:10025000BF08C017D10759F06991D601ED91FC9103
:100260000190F081E02DC6011995892B79F7C50120
:10027000DF91CF911F910F91FF90EF90DF90CF9082
:10028000BF90AF900895FC01538D448D252F30E031
:10029000842F90E0821B930B541710F0CF96089593
:1002A00001970895FC01918D828D981761F0A28DC0
:1002B000AE0FBF2FB11D5D968C91928D9F5F9F7386
:1002C000928F90E008958FEF9FEF0895FC01918D3C
:1002D000828D981731F0828DE80FF11D858D90E0A9
:1002E00008958FEF9FEF0895FC01918D228D892F46
:1002F00090E0805C9F4F821B91098F73992708952E
:100300008DE392E00E94740121E0892B09F420E042
:10031000822F0895FC01A48DA80FB92FB11DA35AF7
:10032000BF4F2C91848D90E001968F739927848F15
:10033000A689B7892C93A089B1898C918370806438
:100340008C93938D848D981306C00288F389E02DD9
:1003500080818F7D80830895EF92FF920F931F938A
:10036000CF93DF93EC0181E0888F9B8D8C8D981368
:100370001AC0E889F989808185FF15C09FB7F89474
:10038000EE89FF896083E889F989808183708064C0
:1003900080839FBF81E090E0DF91CF911F910F910B
:1003A000FF90EF900895F62E0B8D10E00F5F1F4F1A
:1003B0000F731127E02E8C8D8E110CC00FB607FC29
:1003C000FACFE889F989808185FFF5CFCE010E94B7
:1003D0008A01F1CFEB8DEC0FFD2FF11DE35AFF4F9A
:1003E000F0829FB7F8940B8FEA89FB898081806245
:1003F000CFCFCF93DF93EC01888D8823B9F0AA8902
:10040000BB89E889F9898C9185FD03C0808186FDCF
:100410000DC00FB607FCF7CF8C9185FFF2CF80811E
:1004200085FFEDCFCE010E948A01E9CFDF91CF9108
:10043000089580E090E0892B29F00E9480018111CD
:100440000E94000080E090E0892B49F080E090E07D
:10045000892B29F00E94000081110E94000080E099
:1004600090E0892B49F080E090E0892B29F00E94F0
:10047000000081110E94000080E090E0892B49F08B
:1004800080E090E0892B29F00E94000081110C94FB
:1004900000000895CF93DF9390E0FC01E258FE4FF7
:1004A0002491885C9E4FFC0184918823C9F090E0E0
:1004B000880F991FFC01E25EFE4FA591B491FC01EB
:1004C000EC5FFE4FC591D49161110DC09FB7F894B8
:1004D0008C91209582238C938881282328839FBF29
:1004E000DF91CF910895623051F49FB7F8943C9119
:1004F000822F809583238C93E8812E2BEFCF8FB7AB
:10050000F894EC912E2B2C938FBFEACFFC01019035
:100510000020E9F73197AF01481B590BBC018DE36F
:1005200092E00C9416018F929F92AF92BF920F931C
:100530001F93CF93DF93CDB7DEB7A1970FB6F89493
:10054000DEBF0FBECDBF19A2423008F44AE08E01D3
:100550000F5D1F4F842E912CB12CA12CA50194016D
:100560000E941F05E62FB901CA01EA30F4F4E05DEC
:10057000D801EE938D01232B242B252B79F790E0C6
:1005800080E0109719F0CD010E948602A1960FB667
:10059000F894DEBF0FBECDBFDF91CF911F910F91B9
:1005A000BF90AF909F908F900895E95CE1CFCF927C
:1005B000DF92EF92FF92CF93DF936B017C016DE2AC
:1005C0008DE392E00E94AC01EC0166277727CB0116
:1005D0006C197D098E099F094AE00E9493028C0FD5
:1005E0009D1FDF91CF91FF90EF90DF90CF90089506
:1005F000CF93DF930E948602EC0182E192E00E9499
:1006000086028C0F9D1FDF91CF9108951F920F924C
:100610000FB60F9211242F933F938F939F93AF9315
:10062000BF938091390290913A02A0913B02B09120
:100630003C023091380223E0230F2D3758F5019604
:10064000A11DB11D209338028093390290933A0284
:10065000A0933B02B0933C0280913402909135020A
:10066000A0913602B09137020196A11DB11D809371
:10067000340290933502A0933602B0933702BF91B3
:10068000AF919F918F913F912F910F900FBE0F903F
:100690001F90189526E8230F0296A11DB11DD2CFF9
:1006A0001F920F920FB60F9211240BB60F922F9339
:1006B0003F934F935F936F937F938F939F93AF93EA
:1006C000BF93EF93FF938DE392E00E948A01FF9125
:1006D000EF91BF91AF919F918F917F916F915F91BA
:1006E0004F913F912F910F900BBE0F900FBE0F9027
:1006F0001F9018951F920F920FB60F9211240BB6F0
:100700000F922F938F939F93EF93FF93E0914D025E
:10071000F0914E028081E0915302F091540282FDEB
:100720001DC09081809156028F5F8F732091570278
:10073000821741F0E0915602F0E0E35CFD4F958FA7
:1007400080935602FF91EF919F918F912F910F907F
:100750000BBE0F900FBE0F901F9018958081F2CFA7
:100760001F920F920FB60F9211240BB60F922F9378
:100770003F934F935F936F937F938F939F93AF9329
:10078000BF93EF93FF936091320270913302072E73
:10079000000C880B990B97FF33C00E94D7028EE2A2
:1007A00092E00E9486026EB58DE392E00E94AC0159
:1007B00084E192E00E94F802E0913202F09133026B
:1007C0008EB5E05DFD4F80838091320290913302BF
:1007D00001969093330280933202FF91EF91BF9183
:1007E000AF919F918F917F916F915F914F913F91C9
:1007F0002F910F900BBE0F900FBE0F901F9018956A
:100800004AE00E949302CBCF789484B5826084BD85
:1008100084B5816084BD85B5826085BD85B5816004
:1008200085BD80916E00816080936E001092810082
:10083000809181008260809381008091810081603D
:1008400080938100809180008160809380008091FE
:10085000B10084608093B1008091B000816080938A
:10086000B00080919100826080939100809191000E
:1008700081608093910080919000816080939000CE
:100880008091A10082608093A1008091A10081608D
:100890008093A1008091A00081608093A00080914E
:1008A00021018260809321018091210181608093E8
:1008B00021018091200181608093200180917A0044
:1008C000846080937A0080917A00826080937A00BD
:1008D00080917A00816080937A0080917A008068AC
:1008E00080937A001092C100E0914D02F0914E0287
:1008F00082E08083E0914902F0914A021082E09107
:100900004B02F0914C028FEC808310925502E091E3
:100910005102F091520286E08083E0914F02F09103
:100920005002808180618083E0914F02F0915002FB
:10093000808188608083E0914F02F0915002808135
:1009400080688083E0914F02F091500280818F7D1A
:10095000808385E192E00E94F80262E085E30E94D4
:100960004A0261E083E30E944A0260E084E30E945D
:100970004A028CB580648CBD8CB580688CBD8CB50A
:1009800080688CBD85E192E00E94F802809132027D
:10099000909133020297F9F483E292E00E9486027A
:1009A0008091310290E0982F882720913002280F03
:1009B000392F311DB901032E000C880B990B37FF1D
:1009C0000DC00E94D70284E192E00E94F8021092CA
:1009D0003302109232020E941902D8CF4AE00E94DC
:1009E0009302F1CFEDE3F2E01382128288EE93E0FE
:1009F000A0E0B0E084839583A683B78384E092E08F
:100A00009183808385EC90E09587848784EC90E0E7
:100A10009787868780EC90E0918B808B81EC90E0CB
:100A2000938B828B82EC90E0958B848B86EC90E0AC
:100A3000978B868B118E128E138E148E0895A1E2E1
:100A40001A2EAA1BBB1BFD010DC0AA1FBB1FEE1F48
:100A5000FF1FA217B307E407F50720F0A21BB30B93
:100A6000E40BF50B661F771F881F991F1A9469F70F
:100A700060957095809590959B01AC01BD01CF016B
:100A80000895EE0FFF1F881F8BBF0790F691E02D92
:060A90001994F894FFCF59
:100A960000000000AC0116014301F9017401520186
:100AA60066010D0A005468697320697320736C61CE
:100AB60076650052656365697665643A20003D0097
:00000001FF
