:100000000C943B010C946C010C946C010C946C01ED
:100010000C946C010C946C010C946C010C946C01AC
:100020000C946C010C946C010C946C010C946C019C
:100030000C946C010C946C010C946C010C946C018C
:100040000C946C010C940C070C946C010C946C01D6
:100050000C946C010C946C010C946C010C9438069B
:100060000C946C010C9402060C94D8050C946C0151
:100070000C946C010C946C010C946C010C946C014C
:100080000C94DE060C946C010C946C010C946C01C5
:100090000C946C010C946C010C946C010C946C012C
:1000A0000C946C010C946C010C94B0060C946C01D3
:1000B0000C946C010C946C010C946C010C948206F1
:1000C0000C946C010C946C010C946C010C946C01FC
:1000D0000C946C010C946C010C946C010C946C01EC
:1000E0000C946C010C94DB020C94FC030C940A0439
:1000F0000C94DD030C9460030C947D020C94E403D7
:100100000C94CF030C94B9020C9402040C94D90300
:100110000C94D5030C94EA030C9472040C94F80329
:100120000C9414040C9406040C94AA020C94CD02B2
:100130000C9410040C94F4030C9441040C94E1030B
:100140000C94B2040C943A070C94EE030C94130331
:100150000C940F0400002100240027002A002D0029
:100160003000330001010000040107010A01000012
:100170002200250028002B002E003100340002014F
:100180000000050108010B010000200023002600EB
:1001900029002C002F00320000010000030106019D
:1001A00009010505050507050808080802020202FD
:1001B0000A0A080804040404010101010101010103
:1001C0000303030303030303040707070C0C0C0CCE
:1001D0000C0C0C0C020202020606060606060606B7
:1001E0000B0B0B0B0B0B0B0B010210202008081044
:1001F0002040102040800201020108040201010297
:10020000040810204080804020100804020180046F
:1002100002018040201008040201080402010102CA
:1002200004081020408001020408102040800000D3
:100230000A0B02090C0D0E08070304010000000060
:1002400000000000000000000000000000000000AE
:10025000000000000000000000001211100000006B
:10026000000000000000000000000000000000008E
:10027000000000003A0711241FBECFEFD1E2DEBF1D
:10028000CDBF00E00CBF12E0A0E0B2E0EEEEF6E180
:1002900000E00BBF02C007900D92A834B107D9F758
:1002A00023E0A8E4B2E001C01D92A73FB207E1F746
:1002B00011E0CBE3D1E000E006C021970109802FD7
:1002C000FE010E946D0BCA33D10780E00807A9F731
:1002D0000E94E1070C94750B0C940000CF92DF9202
:1002E000EF92FF92DC01A03282E0B807D4F5A53B83
:1002F000B10514F0A4EBB0E04091860328E830E0AB
:10030000241B310947FD3395220F331F220F331F62
:100310006901330FEE08FF084091870328E532E0BA
:10032000241B310947FD3395220F331F220F331F42
:10033000032E000C440B550B2C193D094E095F0987
:10034000B7FF02C0B0E0A0E00E94280B24EB30E031
:1003500040E050E00E94FE0AC20ED31EE41EF51ECD
:10036000D601E0918503E03380F52091860388E88B
:1003700090E0821B910927FD9395880F991F880FA4
:10038000991FA817B90784F02091870388E592E0A8
:10039000821B910927FD9395880F991F880F991F3C
:1003A000A817B9070CF4CD010297880F991F4FB712
:1003B000F8942E2F30E0F901EE0FFF1FE20FF31F2C
:1003C000EC50FD4F928381834FBFFF90EF90DF9001
:1003D000CF90089596E0899FD0011124A857BC4F73
:1003E00090967C936E935F9791E091969C939197F2
:1003F000E091F503F091F6039091F403992339F01D
:10040000309751F0811108C08091A403199430975E
:1004100019F05C968C91FACF0895CF92DF92EF920B
:10042000FF920F931F9396E0899FF0011124E857E4
:10043000FC4F11A2278D30A12130310551F178F008
:100440002230310509F451C02330310509F452C07E
:100450001F910F91FF90EF90DF90CF90089566234A
:10046000B9F361E070E00E94EA012FB7F89480913F
:10047000530290915402A0915502B09156022FBFA1
:100480008093E0039093E103A093E203B093E3032E
:10049000DFCF9FB7F894C0905302D0905402E09001
:1004A0005502F09056029FBF0091E0031091E103C6
:1004B0002091E2033091E303C01AD10AE20AF30A61
:1004C0000091F2031091F30330E020E00C151D05BC
:1004D0002E053F0550F462E070E01F910F91FF90F0
:1004E000EF90DF90CF900C94EA016111B1CF63E0FF
:1004F00070E0F3CF70E060E0F0CFAF92BF92CF92A8
:10050000DF92EF92FF920F931F93CF93DF936C01D3
:100510007B018B01040F151FEB015E01AE18BF08B4
:10052000C017D10759F06991D601ED91FC91019066
:10053000F081E02DC6011995892B79F7C501DF916E
:10054000CF911F910F91FF90EF90DF90CF90BF90D0
:10055000AF900895FC01538D448D252F30E0842FFA
:1005600090E0821B930B541710F0CF9608950197DB
:100570000895FC01918D828D981761F0A28DAE0FC8
:10058000BF2FB11D5D968C91928D9F5F9F73928F4F
:1005900090E008958FEF9FEF0895FC01918D828D7B
:1005A000981731F0828DE80FF11D858D90E0089548
:1005B0008FEF9FEF0895FC01918D228D892F90E0A0
:1005C000805C9F4F821B91098F739927089587E55F
:1005D00092E00E94DB0221E0892B09F420E0822FC7
:1005E0000895FC01A48DA80FB92FB11DA35ABF4FC8
:1005F0002C91848D90E001968F739927848FA68922
:10060000B7892C93A089B1898C91837080648C9375
:10061000938D848D981306C00288F389E02D808124
:100620008F7D80830895EF92FF920F931F93CF9356
:10063000DF93EC0181E0888F9B8D8C8D98131AC01D
:10064000E889F989808185FF15C09FB7F894EE8904
:10065000FF896083E889F989808183708064808361
:100660009FBF81E090E0DF91CF911F910F91FF90AC
:10067000EF900895F62E0B8D10E00F5F1F4F0F7354
:100680001127E02E8C8D8E110CC00FB607FCFACF0F
:10069000E889F989808185FFF5CFCE010E94F102BA
:1006A000F1CFEB8DEC0FFD2FF11DE35AFF4FF082E0
:1006B0009FB7F8940B8FEA89FB8980818062CFCF46
:1006C000CF93DF93EC01888D8823B9F0AA89BB8989
:1006D000E889F9898C9185FD03C0808186FD0DC074
:1006E0000FB607FCF7CF8C9185FFF2CF808185FF95
:1006F000EDCFCE010E94F102E9CFDF91CF910895B5
:1007000080E090E0892B29F00E94E70281110E948D
:10071000000080E090E0892B49F080E090E0892B98
:1007200029F00E94000081110E94000080E090E00A
:10073000892B49F080E090E0892B29F00E9400008D
:1007400081110E94000080E090E0892B49F080E058
:1007500090E0892B29F00E94000081110C94000088
:1007600008958150823108F05AC0E82FF0E08827C0
:10077000E354FC4F8F4F0C946D0BDD03E103CF036B
:10078000D503D9030F04E403EA03EE03F403F803EB
:10079000FC03020406040F040A04100414048091EC
:1007A00080008F77809380000895809180008F7DF6
:1007B000F9CF80918000877FF5CF84B58F7784BD96
:1007C000089584B58F7DFBCF8091B0008F778093A3
:1007D000B00008958091B0008F7DF9CF8091900096
:1007E0008F77809390000895809190008F7DF9CF4E
:1007F00080919000877FF5CF8091A0008F778093C4
:10080000A00008958091A0008F7DF9CF8091A00075
:10081000877FF5CF809120018F7780932001089505
:10082000809120018F7DF9CF80912001877FF5CFC6
:10083000CF93DF93282F30E0F901E25DFD4F8491E3
:10084000F901E851FE4FD491F901EE55FE4FC491E4
:10085000CC23A1F081110E94B103EC2FF0E0EE0F48
:10086000FF1FE857FE4FA591B491EC91ED2381E075
:1008700090E009F480E0DF91CF91089580E090E06E
:10088000FACF862F0C9418041F93CF93DF93282F51
:1008900030E0F901E25DFD4F8491F901E851FE4F2E
:1008A000D491F901EE55FE4FC491CC23A9F0162F37
:1008B00081110E94B103EC2FF0E0EE0FFF1FE2590F
:1008C000FE4FA591B4918FB7F894EC91111108C027
:1008D000D095DE23DC938FBFDF91CF911F910895D8
:1008E000DE2BF8CF862F642F0C944404CF93DF9334
:1008F00090E0FC01E851FE4F24918E559E4FFC0183
:1009000084918823C9F090E0880F991FFC01EC5A6C
:10091000FE4FA591B491FC01E259FE4FC591D491CF
:1009200061110DC09FB7F8948C91209582238C9310
:100930008881282328839FBFDF91CF91089562305B
:1009400051F49FB7F8943C91822F809583238C9328
:10095000E8812E2BEFCF8FB7F894EC912E2B2C93B0
:100960008FBFEACF862F642F0C9476043FB7F8949C
:1009700080914D0290914E02A0914F02B091500291
:1009800026B5A89B05C02F3F19F00196A11DB11DEA
:100990003FBFBA2FA92F982F8827BC01CD01620F26
:1009A000711D811D911D42E0660F771F881F991FE1
:1009B0004A95D1F708958F929F92AF92BF92CF92AE
:1009C000DF92EF92FF920E94B6044B015C0188EE29
:1009D000C82E83E0D82EE12CF12C0E94B6046819B1
:1009E00079098A099B09683E734081059105A8F33E
:1009F00021E0C21AD108E108F10888EE880E83E0F0
:100A0000981EA11CB11CC114D104E104F10429F702
:100A1000FF90EF90DF90CF90BF90AF909F908F901E
:100A20000895AF92BF92CF92DF92EF92FF920F9311
:100A30001F93CF93DF936B017A01EC01C85BDD4F0D
:100A400028813CE0389F8001399F100D1124A0902F
:100A50008403B12C27FF1FC0FB0111821082888103
:100A60008F5F888388819801280F311D87FD3A9513
:100A7000F6012A153B051CF488818C30C4F1808175
:100A80009181049680349C4908F473C0F6018081FA
:100A90009181049670C088819801280F311D87FDCF
:100AA0003A952A153B05DCF68881A801480F511DAF
:100AB00087FD5A95FA01EE0FFF1FE40FF51FEC506A
:100AC000FD4F808186FFCBCF8881F801E80FF11DB3
:100AD00087FDFA95CF01EE0FFF1FE80FF91FEC50CD
:100AE000FD4F808160E08F730E944404B8CF808105
:100AF00091812881A801420F511D27FD5A959A0125
:100B0000FA01EE0FFF1FE20FF31FEC50FD4F2181A2
:100B10003281820F931FF70191838083888198012E
:100B2000280F311D87FD3A95F901EE0FFF1FE20FE7
:100B3000F31FEC50FD4F808186FF22C08881080F93
:100B4000111D87FD1A95F801EE0FFF1FE00FF11F31
:100B5000EC50FD4F808161E08F73DF91CF911F9149
:100B60000F91FF90EF90DF90CF90BF90AF900C94DB
:100B7000440480E49CE9F701918380838FEF8883AC
:100B8000DF91CF911F910F91FF90EF90DF90CF9069
:100B9000BF90AF900895FC0101900020E9F73197D4
:100BA000AF01481B590BBC0187E592E00C947D0214
:100BB0001F920F920FB60F9211240BB60F922F9324
:100BC0003F934F935F936F937F938F939F93AF93D5
:100BD000BF93EF93FF9387E592E00E94F102FF91AC
:100BE000EF91BF91AF919F918F917F916F915F91A5
:100BF0004F913F912F910F900BBE0F900FBE0F9012
:100C00001F9018951F920F920FB60F9211240BB6DA
:100C10000F922F938F939F93EF93FF93E09167022F
:100C2000F09168028081E0916D02F0916E0282FD88
:100C30001DC09081809170028F5F8F73209171022F
:100C4000821741F0E0917002F0E0E95AFD4F958F74
:100C500080937002FF91EF919F918F912F910F9050
:100C60000BBE0F900FBE0F901F9018958081F2CF92
:100C70001F920F920FB60F9211242F933F938F93D1
:100C80009F93AF93BF938091530290915402A09190
:100C90005502B091560230914C0223E0230F2D37BC
:100CA00058F50196A11DB11D20934C02809353026B
:100CB00090935402A0935502B093560280914D0236
:100CC00090914E02A0914F02B09150020196A11D49
:100CD000B11D80934D0290934E02A0934F02B093AA
:100CE0005002BF91AF919F918F913F912F910F90A3
:100CF0000FBE0F901F90189526E8230F0296A11D96
:100D0000B11DD2CF1F920F920FB60F9211240BB6C6
:100D10000F922F933F934F935F936F937F938F9394
:100D20009F93AF93BF93EF93FF9348E251E064E248
:100D300071E090E080E00E941105FF91EF91BF917A
:100D4000AF919F918F917F916F915F914F913F9163
:100D50002F910F900BBE0F900FBE0F901F90189504
:100D60001F920F920FB60F9211240BB60F922F9372
:100D70003F934F935F936F937F938F939F93AF9323
:100D8000BF93EF93FF9348EA50E064EA70E083E09A
:100D900090E00E941105FF91EF91BF91AF919F915B
:100DA0008F917F916F915F914F913F912F910F9014
:100DB0000BBE0F900FBE0F901F9018951F920F92B1
:100DC0000FB60F9211240BB60F922F933F934F93B0
:100DD0005F936F937F938F939F93AF93BF93EF93A3
:100DE000FF9348E950E064E970E082E090E00E94FF
:100DF0001105FF91EF91BF91AF919F918F917F91DD
:100E00006F915F914F913F912F910F900BBE0F907B
:100E10000FBE0F901F9018951F920F920FB60F9252
:100E200011240BB60F922F933F934F935F936F93C1
:100E30007F938F939F93AF93BF93EF93FF9348E874
:100E400050E064E870E081E090E00E941105FF91BD
:100E5000EF91BF91AF919F918F917F916F915F9132
:100E60004F913F912F910F900BBE0F900FBE0F909F
:100E70001F90189510925A021092590288EE93E032
:100E8000A0E0B0E080935B0290935C02A0935D02CF
:100E9000B0935E028CE192E09093580280935702E7
:100EA00085EC90E0909364028093630284EC90E080
:100EB000909366028093650280EC90E090936802C4
:100EC0008093670281EC90E090936A0280936902BC
:100ED00082EC90E090936C0280936B0286EC90E041
:100EE00090936E0280936D021092700210927102C4
:100EF000109272021092730210928A0310928E0363
:100F000010928D0310928F038EE292E090938903EA
:100F100080938803E4EAF3E010821482138215823E
:100F2000369683E0E03EF807B9F784E092E09093CC
:100F3000EB038093EA0380E092E09093ED038093CB
:100F4000EC0384E08093EE038093EF0388E092E06B
:100F50009093E9038093E8038AE090E09093F10393
:100F60008093F00384EF91E09093F3038093F20376
:100F70001092F6031092F5031092E4031092E50329
:100F80001092E6031092E7031092F4038091840319
:100F9000803398F491E0980F9093840380938503B5
:100FA00090E0FC01EE0FFF1FE80FF91FEC50FD4F22
:100FB00088EB9BE09283818308958FEF8093850374
:100FC0000895CF93DF93CDB7DEB7A1970FB6F8940E
:100FD000DEBF0FBECDBF789484B5826084BD84B57A
:100FE000816084BD85B5826085BD85B5816085BD24
:100FF00080916E00816080936E00109281008091DC
:101000008100826080938100809181008160809363
:101010008100809180008160809380008091B10088
:1010200084608093B1008091B00081608093B000B3
:101030008091910082608093910080919100816005
:1010400080939100809190008160809390008091C6
:10105000A10082608093A1008091A10081608093B3
:10106000A1008091A00081608093A0008091210167
:101070008260809321018091210181608093210110
:101080008091200181608093200180917A008460AA
:1010900080937A0080917A00826080937A008091B8
:1010A0007A00816080937A0080917A0080688093D2
:1010B0007A001092C10080918503803308F054C0FB
:1010C00061E089E00E94760480918503282F30E05A
:1010D000F901EE0FFF1FE20FF31FEC50FD4F90815F
:1010E000907C996090839EE89093860394E6909319
:1010F00087032CE0622F0E94610B829FB0011124B4
:1011000030E020E0AB01420F531FFA01EE0FFF1F4A
:10111000E40FF51FEC50FD4F908196FD17C02F5F37
:101120003F4F2C30310571F7813009F092C0109299
:10113000800082E0809381001092850010928400EC
:10114000B19A80916F00826080936F00E091850377
:101150008E2F90E0FC01EE0FFF1FE80FF91FEC50FF
:10116000FD4F808180648083E0916702F091680286
:1011700082E08083E0916302F09164021082E0914A
:101180006502F09166028FEC808310926F02E0910D
:101190006B02F0916C0286E08083E0916902F0912D
:1011A0006A02808180618083E0916902F0916A0225
:1011B000808188608083E0916902F0916A02808179
:1011C00080688083E0916902F0916A0280818F7D5E
:1011D00080833AE0232E46E0E42E5AE0452E512C3F
:1011E000612C712C81E08093F4038FB7F8944091C7
:1011F00053025091540260915502709156028FBF74
:101200008091E4039091E503A091E603B091E70398
:10121000481B590B6A0B7B0B8091F0039091F103F3
:10122000B0E0A0E084179507A607B70708F0B1C1A2
:1012300010E08091EE031817C0F5E091EA03F091F9
:10124000EB03E10FF11D62E080810E9476041F5FD5
:10125000F0CF823061F41092900080939100109250
:1012600095001092940088BB809371006FCF8330FB
:1012700069F41092A00082E08093A1001092A50072
:101280001092A40089BB8093720060CF81115ECF61
:101290001092200182E0809321011092250110928A
:1012A00024018ABB8093730051CFF12C8091EF030E
:1012B000F81608F063C0CF2CD12CE091EC03F0912C
:1012C000ED03EC0DFD1D61E080810E947604E0914C
:1012D000EC03F091ED03EC0DFD1D60E080810E94B8
:1012E000440481E090E0A0E0B0E00F2C04C0880F3F
:1012F000991FAA1FBB1F0A94D2F74C015C01A0944E
:10130000B094312C8091EE03381608F5032D10E0CF
:10131000E091EA03F091EB03E00FF11F80810E945E
:1013200018040C5F1F4F000F111FF801E857FC4F06
:10133000892B41F480819181882999299183808327
:101340003394E0CF808191818A219B21F7CFE09176
:10135000EC03F091ED03EC0DFD1D61E080810E9436
:1013600044048091EC039091ED03C80ED91E60E017
:10137000F60180810E947604F39498CF98E8C92EF4
:1013800093E0D92E8601F801878D90A1892B31F445
:10139000148E8FEF9FEF968F858F11A20A5F1F4FDC
:1013A000E4ECF3E0E017F10771F7F12C8091EE0324
:1013B000F81608F052C0B12C8F2C912C880C991C77
:1013C000C40180579C4F4C012091EF03B21608F0E6
:1013D00042C0F401608171810B2C02C07695679543
:1013E0000A94E2F7F29E900111242B0D311DE8E8DA
:1013F000F3E080E0458D568D2417350709F4FCC0D5
:101400008F5F36968A30B1F760FF23C0E8E8F3E0DB
:1014100090E080E0448D411117C0E091E803F09125
:10142000E903E20FF31F4081E89EF001E99EF00D11
:101430001124E857FC4F448F368F258F10A2178E4A
:1014400061E00E940D0205C0019636968A30910532
:1014500009F7B394B9CFF394A9CF80E0F60191A135
:101460009111892FF6E0CF0ED11CC016D106B1F72D
:101470009FB7F894409153025091540260915502E5
:10148000709156029FBF4093E4035093E50360932D
:10149000E6037093E703882309F47BC08091A903D6
:1014A000882309F476C08091A7039091A80301973F
:1014B00009F06FC08091A4038D3309F06DC0809056
:1014C00051029090520284EB881A91089092520235
:1014D00080925102092C000CAA08BB08B7FE76C006
:1014E0006DE287E592E00E94130322273327A901CA
:1014F000281939094A095B0919A28E010F5D1F4F8E
:10150000CA01B901A30192010E94300B605DF8018C
:1015100062938F01211531054105510589F70115A8
:10152000110519F0C8010E94CB0584E392E00E94E6
:10153000CB052091510230915202032E000C440B36
:10154000550B2C543F4F4F4F5F4FA4EBB0E00E9420
:101550001D0B28E631E040E050E00E94FE0AC90180
:101560000E946E010E94DB0490E080E00E946E0108
:101570000E94DB04109252021092510287E392E023
:101580000E94CB0584E392E00E94CB050E94800379
:1015900029CE1092F40380E090ED980F9A30B0F7C6
:1015A0004091510250915202249E9001259E300D8F
:1015B0001124082E000C990BC097820F931F909353
:1015C000520280935102815C9D4FDACFA5019401B4
:1015D00019A28E010F5D1F4FCA01B901A30192012B
:1015E0000E94300B605DF80162938F012115310577
:1015F0004105510589F793CF617023CF052E97FBE5
:101600001EF400940E94150B57FD07D00E94300B6A
:1016100007FC03D04EF40C94150B50954095309573
:1016200021953F4F4F4F5F4F08959095809570954E
:1016300061957F4F8F4F9F4F08950E94520BA59F3A
:10164000900DB49F900DA49F800D911D11240895BD
:10165000B7FF0C941D0B0E941D0B821B930B08956A
:10166000A1E21A2EAA1BBB1BFD010DC0AA1FBB1FA6
:10167000EE1FFF1FA217B307E407F50720F0A21B18
:10168000B30BE40BF50B661F771F881F991F1A9485
:1016900069F760957095809590959B01AC01BD01AF
:1016A000CF010895A29FB001B39FC001A39F700D09
:1016B000811D1124911DB29F700D811D1124911D5A
:1016C0000895991B79E004C0991F961708F0961B9E
:1016D000881F7A95C9F780950895EE0FFF1F881F20
:0E16E0008BBF0790F691E02D1994F894FFCF80
:1016EE001A1B1C1D161718193738392F3435362A80
:1016FE003132332D43303D2B0000000013037D02A9
:10170E00AA026003DB02B902CD0200000000B2049F
:10171E00720441040D0A00656E64202E2E2E0064A4
:08172E0065677265653A200051
:00000001FF
