:100000000C9428010C9459010C9459010C94590139
:100010000C9459010C9459010C9459010C945901F8
:100020000C9459010C9459010C9459010C945901E8
:100030000C9459010C9459010C9459010C945901D8
:100040000C9459010C9459010C9459010C945901C8
:100050000C9459010C9459010C9459010C947A0395
:100060000C9459010C94EE030C94C4030C945901A4
:100070000C9459010C9459010C9459010C94590198
:100080000C9459010C9459010C9459010C94590188
:100090000C9459010C9459010C9459010C94590178
:1000A0000C9459010C9459010C9459010C94590168
:1000B0000C9459010C9459010C9459010C94590158
:1000C0000C9459010C9459010C9459010C94590148
:1000D0000C9459010C9459010C9459010C94590138
:1000E0000C9459010C9441030C946A030C944E0334
:1000F0000C94B6010C949D020C9462030C944A0378
:100100000C9476050C9450020C9466030C945C03DA
:100110000C943D030C9439030C947A010C947403F1
:100120000C9458030C9454030C9423030C9418025D
:100130000C9444030C941E030C9435030C9470032C
:100140000C94A7010C94CA0100000A0B02090C0DC3
:100150000E0807030401000000000000000000007A
:10016000000000000000000000000000000000008F
:10017000000000001211100000000000000000004C
:10018000000000000000000000000000000000006F
:100190002200250028002B002E003100340002012F
:1001A0000000050108010B010000210024002700C8
:1001B0002A002D0030003300010100000401070176
:1001C0000A010505050507050808080802020202DC
:1001D0000A0A0808040404040101010101010101E3
:1001E0000303030303030303040707070C0C0C0CAE
:1001F0000C0C0C0C02020202060606060606060697
:100200000B0B0B0B0B0B0B0B010210202008081023
:100210002040102040800201020108040201010276
:10022000040810204080804020100804020180044F
:1002300002018040201008040201080402010102AA
:100240000408102040800102040810204080760538
:1002500011241FBECFEFD1E2DEBFCDBF00E00CBF47
:1002600022E0A4E2B2E001C01D92AA3CB207E1F78D
:1002700012E0A0E0B2E0EEE8FBE000E00BBF02C05D
:1002800007900D92A432B107D9F711E0C8E2D1E08E
:1002900000E006C021970109802FFE010E94BD05E4
:1002A000C732D10780E00807A9F70E9424040C9404
:1002B000C5050C94000090E0FC01E85FFD4F24911F
:1002C0008E539E4FFC018491882399F090E0880F13
:1002D000991FFC01E855FE4FA591B491FC01E2572E
:1002E000FE4F859194918FB7F894EC91E22BEC93AB
:1002F0008FBF0895AF92BF92CF92DF92EF92FF929D
:100300000F931F93CF93DF936C017B018B01040F3D
:10031000151FEB015E01AE18BF08C017D10759F0D9
:100320006991D601ED91FC910190F081E02DC6011B
:100330001995892B79F7C501DF91CF911F910F9105
:10034000FF90EF90DF90CF90BF90AF900895FC01A9
:10035000538D448D252F30E0842F90E0821B930B2A
:10036000541710F0CF96089501970895FC01918DD0
:10037000828D981761F0A28DAE0FBF2FB11D5D96D3
:100380008C91928D9F5F9F73928F90E008958FEF75
:100390009FEF0895FC01918D828D981731F0828D29
:1003A000E80FF11D858D90E008958FEF9FEF089580
:1003B0002FB7F8948091290290912A02A0912B02E4
:1003C000B0912C022FBF8093350290933602A093F8
:1003D0003702B09338028DE292E00E94CA0197FF83
:1003E00026C02FB7F8948091290290912A02A091FB
:1003F0002B02B0912C022FBF409135025091360252
:100400006091370270913802841B950BA60BB70BD5
:100410004091310250913202609133027091340266
:1004200084179507A607B707B0F28FEF9FEF0895DF
:10043000FC01918D228D892F90E0805C9F4F821B63
:1004400091098F73992708958DE292E00E94180216
:1004500021E0892B09F420E0822F0895FC01A48D6E
:10046000A80FB92FB11DA35ABF4F2C91848D90E0D6
:1004700001968F739927848FA689B7892C93A089B9
:10048000B1898C91837080648C93938D848D981343
:1004900006C00288F389E02D80818F7D80830895D6
:1004A000EF92FF920F931F93CF93DF93EC0181E0C4
:1004B000888F9B8D8C8D98131AC0E889F98980816B
:1004C00085FF15C09FB7F894EE89FF896083E8899E
:1004D000F98980818370806480839FBF81E090E090
:1004E000DF91CF911F910F91FF90EF900895F62E1D
:1004F0000B8D10E00F5F1F4F0F731127E02E8C8DB7
:100500008E110CC00FB607FCFACFE889F9898081FB
:1005100085FFF5CFCE010E942E02F1CFEB8DEC0FBF
:10052000FD2FF11DE35AFF4FF0829FB7F8940B8F18
:10053000EA89FB8980818062CFCFCF93DF93EC0182
:10054000888D8823B9F0AA89BB89E889F9898C91BB
:1005500085FD03C0808186FD0DC00FB607FCF7CF77
:100560008C9185FFF2CF808185FFEDCFCE010E9477
:100570002E02E9CFDF91CF91089580E090E0892BA2
:1005800029F00E94240281110E94000080E090E086
:10059000892B49F080E090E0892B29F00E9400002F
:1005A00081110E94000080E090E0892B49F080E0FA
:1005B00090E0892B29F00E94000081110E94000028
:1005C00080E090E0892B49F080E090E0892B29F0D1
:1005D0000E94000081110C9400000895282F30E043
:1005E000F901E85BFE4F9491F901E85FFD4F4491FA
:1005F0002E533E4FF9012491222309F435C099234B
:1006000011F191509231F8F4E92FF0E08827E45F7E
:10061000FC4F8F4F0C94BD053D0341031E03350372
:100620003903230344034A034E03540358035C0372
:100630006203660323036A037003740380918000DE
:100640008F7780938000E22FF0E0EE0FFF1FE257DC
:10065000FE4FA591B4918FB7F894EC91611148C009
:1006600040954E234C938FBF0895809180008F7DDD
:10067000E8CF80918000877FE4CF84B58F7784BDF9
:10068000E2CF84B58F7DFBCF8091B0008F778093D0
:10069000B000D9CF8091B0008F7DF9CF80919000CC
:1006A0008F7780939000CFCF809190008F7DF9CF8E
:1006B00080919000877FF5CF8091A0008F77809305
:1006C000A000C1CF8091A0008F7DF9CF8091A000C4
:1006D000877FF5CF809120018F7780932001B3CF62
:1006E000809120018F7DF9CF80912001877FF5CF08
:1006F0004E2BB8CF1F920F920FB60F9211242F934B
:100700003F938F939F93AF93BF93809129029091D2
:100710002A02A0912B02B0912C023091280223E0F2
:10072000230F2D3758F50196A11DB11D20932802E6
:100730008093290290932A02A0932B02B0932C025B
:100740008091240290912502A0912602B091270267
:100750000196A11DB11D8093240290932502A093C0
:100760002602B0932702BF91AF919F918F913F9145
:100770002F910F900FBE0F901F90189526E8230F12
:100780000296A11DB11DD2CF1F920F920FB60F92EC
:1007900011240BB60F922F933F934F935F936F9358
:1007A0007F938F939F93AF93BF93EF93FF938DE2CC
:1007B00092E00E942E02FF91EF91BF91AF919F9125
:1007C0008F917F916F915F914F913F912F910F90FA
:1007D0000BBE0F900FBE0F901F9018951F920F9297
:1007E0000FB60F9211240BB60F922F938F939F93F6
:1007F000EF93FF93E0913D02F0913E028081E09102
:100800004302F091440282FD1DC090818091460216
:100810008F5F8F7320914702821741F0E09146026B
:10082000F0E0E35DFD4F958F80934602FF91EF91DD
:100830009F918F912F910F900BBE0F900FBE0F9035
:100840001F9018958081F2CF789484B5826084BD22
:1008500084B5816084BD85B5826085BD85B58160C4
:1008600085BD80916E00816080936E001092810042
:1008700080918100826080938100809181008160FD
:1008800080938100809180008160809380008091BE
:10089000B10084608093B1008091B000816080934A
:1008A000B0008091910082608093910080919100CE
:1008B000816080939100809190008160809390008E
:1008C0008091A10082608093A1008091A10081604D
:1008D0008093A1008091A00081608093A00080910E
:1008E00021018260809321018091210181608093A8
:1008F00021018091200181608093200180917A0004
:10090000846080937A0080917A00826080937A007C
:1009100080917A00816080937A0080917A0080686B
:1009200080937A001092C100E0913D02F0913E0266
:1009300082E08083E0913902F0913A021082E091E6
:100940003B02F0913C028FEC808310924502E091D3
:100950004102F091420286E08083E0913F02F091F3
:100960004002808180618083E0913F02F0914002EB
:10097000808188608083E0913F02F0914002808115
:1009800080688083E0913F02F091400280818F7DFA
:10099000808382E00E945B0183E00E945B0184E02F
:1009A0000E945B0185E00E945B0186E00E945B0182
:1009B00087E00E945B0188E00E945B0189E00E9461
:1009C0005B018AE00E945B01C2E060E08C2F0E9424
:1009D000EE02CF5FCB30C9F7CAE0D0E00E94D80169
:1009E000FC01C12CD12C760197FD40C08D329105C0
:1009F00021F0C0970A9708F05CC0C12CD12C760179
:100A000010E0E130F105D9F0ED32F10509F456C0FE
:100A1000CF01C0970A9798F4AAE0B0E0A701960129
:100A20000E94A3056F01FF0FEE08FF08C60ED71E38
:100A3000E81EF91E80E3C81AD108E108F1088DE22A
:100A400092E00E94B6010E94D801FC01C0970A976B
:100A5000C0F2E130F105A9F2112341F0F094E094E5
:100A6000D094C094C11CD11CE11CF11C5601C114CE
:100A7000D104E1F012E08AE0C816D10408F160E088
:100A8000812F0E94EE021F5F1B30C9F74EE050E03D
:100A900062E172E08DE292E00E947A0142E050E071
:100AA00061E272E08DE292E00E947A010E94BD0252
:100AB00095CF8DE292E00E94B60190CF11E0BFCFBA
:100AC00060E0812F0E94EE021F5F1B30C9F70AE031
:100AD00010E0CE01801B910B8A159B053CF761E06D
:100AE000802F0E94EE0201501109F3CFEDE2F2E0F7
:100AF0001382128288EE93E0A0E0B0E084839583B5
:100B0000A683B78384E092E09183808385EC90E0B4
:100B10009587848784EC90E09787868780EC90E0C7
:100B2000918B808B81EC90E0938B828B82EC90E0B8
:100B3000958B848B86EC90E0978B868B118E128E32
:100B4000138E148E08950E94AE05A59F900DB49F3C
:100B5000900DA49F800D911D11240895A29FB001B6
:100B6000B39FC001A39F700D811D1124911DB29FE1
:100B7000700D811D1124911D0895EE0FFF1F881F18
:0E0B80008BBF0790F691E02D1994F894FFCFEB
:100B8E000000000050027A01A7019D021802B60172
:100B9E00CA01496E76616C6964206E756D6265720C
:040BAE00000D0A002C
:00000001FF
