:100000000C942E010C945F010C945F010C945F0121
:100010000C945F010C945F010C945F010C945F01E0
:100020000C945F010C945F010C945F010C945F01D0
:100030000C945F010C9428070C945F010C945F01F1
:100040000C945F010C945F010C945F010C945F01B0
:100050000C945F010C945F010C945F010C94C70732
:100060000C945F010C945F010C945F010C945F0190
:100070000C945F010C945F010C945F010C945F0180
:100080000C945F010C945F010C945F010C945F0170
:100090000C945F010C945F010C945F010C945F0160
:1000A0000C945F010C945F010C945F010C945F0150
:1000B0000C945F010C945F010C945F010C945F0140
:1000C0000C945F010C945F010C945F010C945F0130
:1000D0000C945F010C945F010C945F010C945F0120
:1000E0000C945F010C943B020C94F5020C942702D3
:1000F0000C9453020C9412020C9449020C943F028B
:100100000C9457020C9452020C9420020C94370267
:100110000C9431020C9445020C944D020C94280A64
:100120000C942D020C9484020C94B5020C942402BD
:100130000C941C020C9418020000210024002700DB
:100140002A002D00300033000101000004010701E6
:100150000A0100002200250028002B002E0031009B
:10016000340002010000050108010B01000020001D
:100170002300260029002C002F003200000100007F
:10018000030106010901050505050705080808081A
:10019000020202020A0A080804040404010101011F
:1001A000010101010303030303030303040707071A
:1001B0000C0C0C0C0C0C0C0C0202020206060606BF
:1001C000060606060B0B0B0B0B0B0B0B010210208C
:1001D000200808102040102040800201020108047D
:1001E0000201010204081020408080402010080411
:1001F000020180040201804020100804020108046A
:1002000002010102040810204080010204081020AD
:10021000408000000A0B02090C0D0E0807030401C0
:1002200000000000000000000000000000000000CE
:10023000000000000000000000000000000012119B
:10024000100000000000000000000000000000009E
:1002500000000000000000000200280A11241FBE58
:10026000CFEFD1E2DEBFCDBF00E00CBF16E0A0E0D3
:10027000B2E0E8EFF8E100E00BBF02C007900D929A
:10028000A63BB107D9F727E0A6EBB6E001C01D9267
:10029000AE34B207E1F711E0CEE2D1E000E006C0F3
:1002A00021970109802FFE010E94580CCD32D10701
:1002B00080E00807A9F70E9411080C947A0C0C94AE
:1002C000000096E0899FD0011124A152B94F909669
:1002D0007C936E935F9791E091969C939197E091B8
:1002E0004C07F0914D0790914B07992339F03097C7
:1002F00051F0811108C08091FB061994309719F0D4
:100300005C968C91FACF0895CF92DF92EF92FF9294
:100310000F931F9396E0899FF0011124E152F94F4A
:1003200011A2278D30A12130310551F178F0223012
:10033000310509F451C02330310509F452C01F9131
:100340000F91FF90EF90DF90CF9008956623B9F35F
:1003500061E070E00E9461012FB7F8948091DB06A4
:100360009091DC06A091DD06B091DE062FBF809350
:10037000370790933807A0933907B0933A07DFCF38
:100380009FB7F894C090DB06D090DC06E090DD06C5
:10039000F090DE069FBF009137071091380720913B
:1003A000390730913A07C01AD10AE20AF30A0091DC
:1003B000490710914A0730E020E00C151D052E0575
:1003C0003F0550F462E070E01F910F91FF90EF90B5
:1003D000DF90CF900C9461016111B1CF63E070E0C8
:1003E000F3CF70E060E0F0CF8150823108F05AC066
:1003F000E82FF0E08827E050FE4F8F4F0C94580C08
:1004000020022402120218021C02520227022D02AC
:10041000310237023B023F024502490252024D02BD
:1004200053025702809180008F7780938000089557
:10043000809180008F7DF9CF80918000877FF5CFFC
:1004400084B58F7784BD089584B58F7DFBCF80916F
:10045000B0008F778093B00008958091B0008F7DB9
:10046000F9CF809190008F778093900008958091CC
:1004700090008F7DF9CF80919000877FF5CF80919C
:10048000A0008F778093A00008958091A0008F7DB9
:10049000F9CF8091A000877FF5CF809120018F77E1
:1004A000809320010895809120018F7DF9CF809164
:1004B0002001877FF5CFCF93DF93282F30E0F9011C
:1004C000EE5EFD4F8491F901E453FE4FD491F901A2
:1004D000EA57FE4FC491CC23A1F081110E94F40190
:1004E000EC2FF0E0EE0FFF1FE459FE4FA591B49101
:1004F000EC91ED2381E090E009F480E0DF91CF9171
:10050000089580E090E0FACF862F0C945B021F9351
:10051000CF93DF93282F30E0F901EE5EFD4F8491F9
:10052000F901E453FE4FD491F901EA57FE4FC4910B
:10053000CC23A9F0162F81110E94F401EC2FF0E0DA
:10054000EE0FFF1FEE5AFE4FA591B4918FB7F894AE
:10055000EC91111108C0D095DE23DC938FBFDF91A1
:10056000CF911F910895DE2BF8CF862F642F0C9426
:100570008702CF93DF9390E0FC01E453FE4F249178
:100580008A579E4FFC0184918823C9F090E0880F20
:10059000991FFC01E85CFE4FA591B491FC01EE5A55
:1005A000FE4FC591D49161110DC09FB7F8948C9105
:1005B000209582238C938881282328839FBFDF91F5
:1005C000CF910895623051F49FB7F8943C91822FF7
:1005D000809583238C93E8812E2BEFCF8FB7F894EF
:1005E000EC912E2B2C938FBFEACF862F642F0C9487
:1005F000B9023FB7F8948091D0069091D106A091AE
:10060000D206B091D30626B5A89B05C02F3F19F09E
:100610000196A11DB11D3FBFBA2FA92F982F882782
:10062000BC01CD01620F711D811D911D42E0660F5D
:10063000771F881F991F4A95D1F708958F929F922F
:10064000AF92BF92CF92DF92EF92FF926B017C014B
:100650000E94F9024B015C01C114D104E104F104D0
:10066000B9F00E94F902681979098A099B09683E64
:1006700073408105910580F321E0C21AD108E10899
:10068000F10888EE880E83E0981EA11CB11CE4CF0F
:10069000FF90EF90DF90CF90BF90AF909F908F90A2
:1006A00008952F923F924F925F926F927F928F9216
:1006B0009F92AF92BF92CF92DF92EF92FF920F93F1
:1006C0001F93CF93DF93CDB7DEB765970FB6F8943E
:1006D000DEBF0FBECDBF098B1A8B2B8B3C8B8C01E1
:1006E00069837A83440F551F840F951F988B8F87DA
:1006F0008EEC282E81E0382EEF85F889E017F1077F
:1007000009F48DC3E981FA8121913191419151918F
:10071000FA83E98360E070E08AE794E40E94740A57
:100720000E94E60A20917B00277F20937B00F1E462
:10073000F0937C0020917A00206420937A0020912D
:100740007A0026FDFCCFE0907800F0907900F80167
:10075000A190B1908F01072E000C880B990B0E947D
:100760001E0B29893A894B895C890E94AA0B20E0DB
:1007700030E040E85DE30E94AA0B6B877C878D87A1
:100780009E87A114B10409F4F2C10E94ED0A2B0165
:100790003C01B701072E000C880B990B0E941E0B21
:1007A00020E030E040E05BE30E94AA0B6B017C019B
:1007B000B501BB0C880B990B0E941E0B20E030E0AA
:1007C00040E851E40E94AA0B9B01AC01C701B601AD
:1007D0000E94AA0B0E94E60A6B837C838D839E8312
:1007E00080911302823009F07EC0E8E5F2E0F491D6
:1007F000FD8BF7FDBCC161E082E00E94B9022D894A
:10080000222321F08D89823009F0C0C1EB81FC8167
:100810004F01B12CA12C60E072E18AE790E0A501C4
:100820009F010E94390C2F83388749875A876901B5
:100830007A01F1E0CF1AD108E108F1082FEFC216D2
:10084000D104E104F10409F00CF474C160E472E431
:100850008FE090E0A50194010E94390C69017A01B2
:1008600081E0C81AD108E108F1089D89923009F0A9
:1008700015C182E0EFEFCE16D104E104F10409F0D6
:100880000CF4A1C260E970ED83E090E0A501940151
:100890000E94390C69017A01F1E0CF1AD108E10810
:1008A000F10883E02FEFC216D104E104F10409F04E
:1008B0000CF489C268E478EE81E090E0A50194012F
:1008C0000E94390C69017A0191E0C91AD108E10846
:1008D000F108EFEFCE16D104E104F10411F00CF0B1
:1008E00001C184E070C28F3F09F041C182E0809372
:1008F0001302E8E5F2E0F491FD8B8F2FFF3F09F43E
:1009000036C1F23009F46AC060F4FF2389F1F13096
:1009100009F446C087FD2BC161E082E00E94B90264
:1009200071CF2D89243009F49BC008F479C025309B
:1009300089F7109220011092210180912101886095
:100940008093210180912101816080932101E8E859
:10095000F1E08491E82FF0E0EE0FFF1FEE5AFE4F1A
:1009600085919491F10184918093B606F5E076C06B
:1009700014BC15BC84B5826084BD85B5816085BD1D
:10098000E8E8F1E08491E82FF0E0EE0FFF1FEE5A67
:10099000FE4F85919491F10184918093BA062BCFFB
:1009A0001092800010928100809181008860809375
:1009B000810080918100816080938100E8E8F1E00E
:1009C0008491E82FF0E0EE0FFF1FEE5AFE4F859165
:1009D0009491F10184918093B9060DCF1092B000EB
:1009E0001092B1008091B00082608093B00080913D
:1009F000B10081608093B100E8E8F1E08491E82FD4
:100A0000F0E0EE0FFF1FEE5AFE4F85919491909308
:100A1000D5068093D406F10184918093D606EBCE5F
:100A200010929000109291008091910088608093C4
:100A3000910080919100816080939100E8E8F1E05D
:100A40008491E82FF0E0EE0FFF1FEE5AFE4F8591E4
:100A50009491F10184918093B806F3E0FD8BCBCEA5
:100A60001092A0001092A1008091A1008860809354
:100A7000A1008091A10081608093A100E8E8F1E0ED
:100A80008491E82FF0E0EE0FFF1FEE5AFE4F8591A4
:100A90009491F10184918093B706ADCE8FEFC81683
:100AA000D104E104F10409F00CF46EC068E478EEBE
:100AB00081E090E0A50194010E94390C69017A015E
:100AC00091E0C91AD108E108F108ED89EE2309F493
:100AD00081C12FEFC216D104E104F10409F00CF436
:100AE00000CF81C164E274EF80E090E0A501940141
:100AF0000E94390C69017A01F1E0CF1AD108E108AE
:100B0000F10885E02FEFC216D104E104F10409F0E9
:100B100008F459C162E17AE780E090E0A501940110
:100B20000E94390C69017A0181E0C81AD108E108F4
:100B3000F1086CC181E0ED89E11145C195B5987F5F
:100B4000892B85BD2FEF3FEFA901411451046104AA
:100B5000710409F058C08D89823009F4F8C00CF096
:100B6000CDC0882309F4D2C0813009F4DEC06B8582
:100B70007C858D859E850E94E60A072E000C880BD9
:100B8000990B0E941E03B8CD82E0D5CF8B819C814A
:100B90004C01B12CA12C60E072E18AE790E0A50144
:100BA00094010E94390C69017A0191E0C91AD108B7
:100BB000E108F10891E0C114D104E1E0EE06F1048E
:100BC00084F068E478EE81E090E0A50194010E9451
:100BD000390C69017A01F1E0CF1AD108E108F10876
:100BE00093E02D892130F1F480918100887F892B59
:100BF000809381002FEF3FEFA9014114510461045C
:100C0000710409F492C0AB81BC81AA0FBB1FA30180
:100C100092010E94600C28EE33E040E050E00E9418
:100C2000170C99CF8D89833001F580919100887FD1
:100C3000892B809391002FEF3FEFA90141145104BC
:100C40006104710401F7D0929900C092980020933A
:100C5000C3063093C4064093C5065093C6068091E0
:100C6000710082608093710082CFED89E43009F5D4
:100C70008091A100887F892B8093A1002FEF3FEF07
:100C8000A901411451046104710409F0BCCFD09250
:100C9000A900C092A8002093BF063093C0064093DD
:100CA000C1065093C20680917200826080937200E8
:100CB0005ECFFD89F53009F045CF80912101887F15
:100CC000892B809321012FEF3FEFA901411451049B
:100CD0006104710409F097CFD0922901C0922801D4
:100CE0002093BB063093BC064093BD065093BE06CE
:100CF0008091730082608093730039CF9D89943016
:100D000031F20CF4A0CF953039F331CFC7BC20932A
:100D1000CB063093CC064093CD065093CE068091FF
:100D20006E00826080936E0022CFD0928900C092C4
:100D300088002093C7063093C8064093C906509395
:100D4000CA0680916F00826080936F0010CFC092BE
:100D5000B3002093D7063093D8064093D90650931A
:100D6000DA068091700082608093700000CF84E08A
:100D7000FFEFCF16D104E104F10409F008F4DECE50
:100D8000CF80D884E984FA849AE0F594E794D794E4
:100D9000C7949A95D1F7E1E0CE1AD108E108F1089D
:100DA00085E0CCCECF80D884E984FA848AE0F594BB
:100DB000E794D794C7948A95D1F721E0C21AD10855
:100DC000E108F10887E09091B100987F892B80932A
:100DD000B100B8CE83E0FFEFCF16D104E104F104F7
:100DE00009F00CF4ABCE62E17AE780E090E0A50177
:100DF00094010E94390C69017A0181E0C81AD10876
:100E0000E108F1089D89992309F4B1CF8FEFC81645
:100E1000D104E104F10409F028F686E0D4CF659608
:100E20000FB6F894DEBF0FBECDBFDF91CF911F91FB
:100E30000F91FF90EF90DF90CF90BF90AF909F9079
:100E40008F907F906F905F904F903F902F9008957C
:100E50001F920F920FB60F9211240BB60F922F9381
:100E60003F934F935F936F937F938F939F93AF9332
:100E7000BF93EF93FF938091D7069091D806A091EE
:100E8000D906B091DA06892B8A2B8B2BE1F1909150
:100E9000D606E091D406F091D5068081892780831B
:100EA0008091D7069091D806A091D906B091DA0624
:100EB000181619061A061B069CF48091D706909105
:100EC000D806A091D906B091DA060197A109B10917
:100ED0008093D7069093D806A093D906B093DA06EC
:100EE000FF91EF91BF91AF919F918F917F916F9102
:100EF0005F914F913F912F910F900BBE0F900FBEBE
:100F00000F901F90189580911302E8E5F2E0E491AC
:100F10009FEF90931302E230E9F040F4EE2389F062
:100F2000E13091F060E00E948702DACFE43049F1CD
:100F300010F1E530B9F7909173009D7F90937300A5
:100F4000F1CF10926E00EECF90916F009D7F909345
:100F50006F00E8CF909170009D7F9093700091E0BA
:100F60009093B0009091B100987F94609093B100FD
:100F70001092B300D7CF909171009D7F9093710034
:100F8000D1CF909172009D7F90937200CBCF1F9232
:100F90000F920FB60F9211242F933F938F939F932D
:100FA000AF93BF938091DB069091DC06A091DD06A4
:100FB000B091DE063091CF0623E0230F2D3758F590
:100FC0000196A11DB11D2093CF068093DB0690935F
:100FD000DC06A093DD06B093DE068091D0069091EA
:100FE000D106A091D206B091D3060196A11DB11DE4
:100FF0008093D0069093D106A093D206B093D306E7
:10100000BF91AF919F918F913F912F910F900FBE04
:101010000F901F90189526E8230F0296A11DB11D71
:10102000D2CF789484B5826084BD84B5816084BD5C
:1010300085B5826085BD85B5816085BD80916E0076
:10104000816080936E0010928100809181008260A7
:1010500080938100809181008160809381008091E4
:1010600080008160809380008091B10084608093D3
:10107000B1008091B00081608093B00080919100B8
:1010800082608093910080919100816080939100B3
:10109000809190008160809390008091A100826097
:1010A0008093A1008091A10081608093A100809134
:1010B000A00081608093A0008091210182608093D4
:1010C0002101809121018160809321018091200183
:1010D00081608093200180917A00846080937A00FF
:1010E00080917A00826080937A0080917A0081609A
:1010F00080937A0080917A00806880937A001092C1
:10110000C10060E083E00E94B90260E087E30E94D2
:10111000B90283E00E945B02892BD9F306E616E64A
:1011200026EA3FE350E040E06BED76E08BED96E0A1
:101130000E9451030AE919E929ED3FE350E040E03C
:101140006BED76E08BED96E00E94510306E616E625
:1011500026EA3FE350E040E06BED76E08BED96E071
:101160000E945103412C512C3201439422242A9491
:10117000322C50E0C52E50E0D52E51E050934B0755
:101180008FB7F8944091DB065091DC066091DD0644
:101190007091DE068FBF80913B0790913C07A09134
:1011A0003D07B0913E07481B590B6A0B7B0B8091A2
:1011B000470790914807B0E0A0E084179507A6077D
:1011C000B707D8F6C0E080914507C81760F4E091F2
:1011D0004107F0914207EC0FF11D62E080810E940F
:1011E000B902CF5FF0CF912C80914607981608F096
:1011F0005FC0092D10E0E0914307F0914407E00F34
:10120000F11F61E080810E94B902E0914307F091F3
:101210004407E00FF11F60E080810E948702D30144
:10122000C201092C04C0880F991FAA1FBB1F0A9472
:10123000D2F75C017C01E094F094812C8091450709
:101240008816F8F4C82DD0E0E0914107F0914207EC
:10125000EC0FFD1F80810E945B022496CC0FDD1FE6
:10126000C152D94F892B41F4888199818A299B29C0
:10127000998388838394E2CF888199818E219F21ED
:10128000F7CFE0914307F0914407E00FF11F61E0D1
:1012900080810E9487028091430790914407080F44
:1012A000191F60E0F80180810E94B90293949CCFDD
:1012B000CFEDD6E0FE01878D90A1892B21F4148E0D
:1012C000368E258E11A2369657E0EB31F50799F749
:1012D00010E080914507181708F053C000E0E12E98
:1012E000F12CEE0CFF1CC7018951994F7C01209114
:1012F0004607021708F043C0F70160817181002E94
:1013000002C0769567950A94E2F7129F9001112426
:10131000200F311DEFEDF6E080E0458D568D24174E
:10132000350709F493C08F5F36968A30B1F760FFB6
:1013300024C0EFEDF6E090E080E0448D411118C04C
:10134000E0913F07F0914007E20FF31F408156E024
:10135000589FF001599FF00D1124E152F94F448F2D
:10136000368F258F10A2178E61E00E94840105C080
:10137000019636968A30910501F70F5FB8CF1F5F4F
:10138000A8CF80E099A19111892F269697E0CB31C3
:10139000D907C1F79FB7F8944091DB065091DC065E
:1013A0006091DD067091DE069FBF40933B0750932E
:1013B0003C0760933D0770933E07882309F4DDCE18
:1013C00080910007882309F4D8CE8091FE06909181
:1013D000FF06019709F0D1CE8091FB06882309F41E
:1013E000CCCE8133C9F406E616E626EA3FE34EE1A9
:1013F00050E068EF75E080E796E00E94510368ECEA
:1014000070E080E090E00E941E03C114D10409F452
:10141000B4CE0E940000B1CE823359F40AE919E932
:1014200029ED3FE348E750E064E172E084EF93E0A8
:10143000E4CF833351F706E616E626EA3FE34EE2B1
:1014400050E064EE74E08CE995E0D7CF61708DCF09
:101450001092E1061092E5061092E4061092E6065C
:1014600080EB96E09093E0068093DF06EBEFF6E0EA
:101470001082148213821582369687E0E733F807CC
:10148000B9F783E092E0909342078093410780E0B0
:1014900092E0909344078093430784E0809345074C
:1014A00083E08093460787E092E090934007809323
:1014B0003F078AE090E0909348078093470784EFC6
:1014C00091E090934A078093490710924D0710923C
:1014D0004C0710923B0710923C0710923D07109268
:1014E0003E0710924B0708950E94880A0C94700BD7
:1014F0000E94690B58F00E94620B40F029F45F3F94
:1015000029F00C94590B51110C94A40B0C945F0B03
:101510000E94810B68F39923B1F3552391F3951B36
:10152000550BBB27AA2762177307840738F09F5F04
:101530005F4F220F331F441FAA1FA9F335D00E2E71
:101540003AF0E0E832D091505040E695001CCAF7DE
:101550002BD0FE2F29D0660F771F881FBB1F2617A1
:1015600037074807AB07B0E809F0BB0B802DBF0178
:10157000FF2793585F4F3AF09E3F510578F00C9447
:10158000590B0C94A40B5F3FE4F3983ED4F386957B
:1015900077956795B795F7959F5FC9F7880F911D68
:1015A0009695879597F90895E1E0660F771F881F54
:1015B000BB1F621773078407BA0720F0621B730B07
:1015C000840BBA0BEE1F88F7E09508950E94ED0A90
:1015D0006894B1110C94A40B08950E94890B88F0B3
:1015E0009F5798F0B92F9927B751B0F0E1F0660FE7
:1015F000771F881F991F1AF0BA95C9F714C0B13028
:1016000091F00E94A30BB1E008950C94A30B672FF7
:10161000782F8827B85F39F0B93FCCF38695779556
:101620006795B395D9F73EF490958095709561953F
:101630007F4F8F4F9F4F0895E89409C097FB3EF46A
:1016400090958095709561957F4F8F4F9F4F99230F
:10165000A9F0F92F96E9BB279395F695879577958D
:101660006795B795F111F8CFFAF4BB0F11F460FF4D
:101670001BC06F5F7F4F8F4F9F4F16C0882311F0A5
:1016800096E911C0772321F09EE8872F762F05C0B9
:10169000662371F096E8862F70E060E02AF09A9554
:1016A000660F771F881FDAF7880F9695879597F949
:1016B000089597F99F6780E870E060E008959FEFD4
:1016C00080EC089500240A941616170618060906D9
:1016D000089500240A9412161306140605060895A8
:1016E000092E0394000C11F4882352F0BB0F40F430
:1016F000BF2B11F460FF04C06F5F7F4F8F4F9F4F70
:10170000089557FD9058440F551F59F05F3F71F0F1
:101710004795880F97FB991F61F09F3F79F0879558
:101720000895121613061406551FF2CF4695F1DFE1
:1017300008C0161617061806991FF1CF8695710571
:10174000610508940895E894BB2766277727CB01A5
:1017500097F908950E94BD0B0C94700B0E94620BC8
:1017600038F00E94690B20F0952311F00C94590B6E
:101770000C945F0B11240C94A40B0E94810B70F34A
:10178000959FC1F3950F50E0551F629FF001729F26
:10179000BB27F00DB11D639FAA27F00DB11DAA1F35
:1017A000649F6627B00DA11D661F829F2227B00D82
:1017B000A11D621F739FB00DA11D621F839FA00D0D
:1017C000611D221F749F3327A00D611D231F849F5D
:1017D000600D211D822F762F6A2F11249F575040B4
:1017E0009AF0F1F088234AF0EE0FFF1FBB1F661F2F
:1017F000771F881F91505040A9F79E3F510580F0F8
:101800000C94590B0C94A40B5F3FE4F3983ED4F373
:10181000869577956795B795F795E7959F5FC1F79B
:10182000FE2B880F911D9695879597F90895A1E253
:101830001A2EAA1BBB1BFD010DC0AA1FBB1FEE1F4A
:10184000FF1FA217B307E407F50720F0A21BB30B95
:10185000E40BF50B661F771F881F991F1A9469F711
:1018600060957095809590959B01AC01BD01CF016D
:101870000895052E97FB1EF400940E94500C57FD0E
:1018800007D00E94170C07FC03D04EF40C94500CA8
:1018900050954095309521953F4F4F4F5F4F08959C
:1018A00090958095709561957F4F8F4F9F4F0895CC
:1018B000EE0FFF1F881F8BBF0790F691E02D199444
:1018C0000E946B0CA59F900DB49F900DA49F800D5E
:1018D000911D11240895A29FB001B39FC001A39F41
:1018E000700D811D1124911DB29F700D811D112459
:0818F000911D0895F894FFCF4B
:1018F8001A1B1C1617181931323334353637383954
:101908002A3023FF00000041000000410000004190
:1019180000000041000000410000004100000041BB
:1019280000000041000000410000004100000041AB
:10193800000000410000004100008040000000411C
:10194800000000410000004100000041000000418B
:10195800000000410000004100000041000000417B
:10196800000000410000004100000041000000416B
:1019780000000041000080400000004100000041DC
:10198800000000410000004100000041000000414B
:10199800000000410000004100000041000000413B
:1019A800000000410000004100000041000000412B
:1019B800000080400000004100000041000000419C
:1019C800000000410000004100000041000000410B
:1019D80000000041000000410000004100000041FB
:1019E800000000410000004100000041000080406C
:1019F80000000041000000410000004100000041DB
:101A080000000041000000410000004100000041CA
:101A180000000041000000410000004100000041BA
:101A2800000000410000004100008040000000412B
:101A3800000000410000004100000041000000419A
:101A4800000000410000004100000041000000418A
:101A5800000000410000004100000041000000417A
:101A680000000041000080400000004100000041EB
:101A7800000000410000004100000041000000415A
:101A8800000000410000004100000041000000414A
:101A9800000000410000004100000041000000413A
:101AA80000008040000000410000004100000041AB
:101AB800000000410000004100000041000000411A
:101AC800000000410000004100000041000000410A
:101AD800000000410000004100000041000080407B
:101AE80000000041450083008B00450083006E0024
:101AF80045006E0045006E00680045006E005D0000
:101B08005D00450083008B00450083006E004500A2
:101B18006E0045006E00680045006E005D005D00C7
:101B2800450083008B00450083006E0045006E0071
:101B380045006E00680045006E005D005D004500D0
:101B480083008B00450083006E0045006E00450051
:101B58006E00680045006E005D005D00450068008D
:101B68006E0045006E005D0045005D0045005D00AB
:101B7800680045006E0057005700450068006E0079
:101B880045006E005D0045005D0045005D00680091
:101B980045006E0057005700450068006E0045007C
:101BA8006E005D0045005D0045005D006800450071
:101BB8006E0057005700450068006E0045006E0033
:101BC8005D0045005D0045005D00680045006E0051
:101BD800570057000000804000008040000080400F
:101BE80000008040000080400000804000008040ED
:101BF80000008040000080400000804000008040DD
:101C0800000080400000004000000041000000404B
:101C180000008040000080400000804000008040BC
:101C280000008040000080400000804000008040AC
:101C3800000080400000804000008040000080409C
:101C4800000000400000004100000040000080400B
:101C5800000080400000804000008040000080407C
:101C6800000080400000804000008040000080406C
:101C7800000080400000804000008040000080405C
:101C88000000804000008040000080404A014A0176
:101C98005D01880188015D014A01260106010601EE
:101CA80026014A014A01260126014A014A015D012D
:101CB800880188015D014A01260106010601260105
:101CC8004A01260106010601260126014A010601EC
:101CD80026014A015D014A01060126014A015D010A
:101CE8004A012601060126010000804000008040CC
:101CF80000000040000080400000804000000040DC
:101D0800000080400000804000008040000000414A
:101D180000000041000080400000804000000040BA
:101D2800000080400000804000008040000000412A
:101D3800000000410000804000008040000080401A
:101D48000000004100000041000080400000804089
:101D5800000080400000804000000040000000407B
:101D68009302930293029302930293029302100345
:101D78000B020B024B02930293029302BA02BA02BD
:101D8800BA02BA02BA02BA02930293029302930207
:101D980093024B024B0293024B0210030000000017
:061DA800F502B502840201
:00000001FF
