:100000000C9469010C949A010C949A010C949A0135
:100010000C949A010C949A010C949A010C949A01F4
:100020000C949A010C949A010C949A010C949A01E4
:100030000C949A010C949A010C949A010C949A01D4
:100040000C949A010C949A010C949A010C949A01C4
:100050000C949A010C949A010C949A010C94BC048F
:100060000C949A010C9486040C945C040C949A01F0
:100070000C949A010C949A010C949A010C949A0194
:100080000C949A010C949A010C949A010C949A0184
:100090000C949A010C949A010C949A010C949A0174
:1000A0000C949A010C949A010C949A010C949A0164
:1000B0000C949A010C949A010C949A010C949A0154
:1000C0000C949A010C949A010C949A010C949A0144
:1000D0000C949A010C949A010C949A010C949A0134
:1000E0000C949A010C9429080C9470030C944A0304
:1000F0000C94F0070C94CA010C9414080C94170883
:100100000C941A080C9426080C9435030C943808A7
:100110000C940E080C942D020C94F6070C94110804
:100120000C94FC070C9456070C9402080C949D0147
:100130000C943B020C9439030C94F3070C945C036D
:100140000C942F080C9458030C9444030C945403FF
:100150000C94F9070C942F030C9474030C9420084E
:100160000C94D9010C940B080C9451080C940508BC
:100170000C941D080C9441030C9423080C943D032B
:100180000C946A030C9462030C9408080C946603A4
:100190000C94FF070C9432080C944E030C947302D9
:1001A0000C946F030C9435080C94C0020C942C082A
:1001B00000002200250028002B002E003100340012
:1001C00002010000050108010B01000021002400CC
:1001D00027002A002D003000330001010000040137
:1001E00007010A01000020002300260029002C003E
:1001F0002F0032000001000003010601090105057E
:100200000505070508080808020202020A0A08088C
:1002100004040404010101010101010103030303BA
:1002200003030303040707070C0C0C0C0C0C0C0C49
:100230000202020206060606060606060B0B0B0B5A
:100240000B0B0B0B0102102020080810204010207F
:10025000408002010201080402010102040810208A
:100260004080804020100804020180040201804088
:1002700020100804020108040201010204081020F1
:100280004080010204081020408000000A0B02098F
:100290000C0D0E0807030401000000000000000020
:1002A000000000000000000000000000000000004E
:1002B000000000000000121110000000000000000B
:1002C000000000000000000000000000000000002E
:1002D000510811241FBECFEFD1E2DEBFCDBF00E039
:1002E0000CBF28E0A8EAB7E001C01D92A335B20711
:1002F000E1F717E0A0E0B2E0ECE4F5E100E00BBFCD
:1003000002C007900D92A83AB107D9F711E0C9E6EB
:10031000D1E000E006C021970109802FFE010E9474
:100320007E08C836D10780E00807A9F70E940605B5
:100330000C94A40A0C9400000895AF92BF92CF923F
:10034000DF92EF92FF920F931F93CF93DF936C0195
:100350007B018B01040F151FEB015E01AE18BF0876
:10036000C017D10759F06991D601ED91FC91019028
:10037000F081E02DC6011995892B79F7C501DF9130
:10038000CF911F910F91FF90EF90DF90CF90BF9092
:10039000AF900895FC01538D448D252F30E0842FBC
:1003A00090E0821B930B541710F0CF96089501979D
:1003B0000895FC01918D828D981761F0A28DAE0F8A
:1003C000BF2FB11D5D968C91928D9F5F9F73928F11
:1003D00090E008958FEF9FEF08952FB7F8948091E4
:1003E000AE079091AF07A091B007B091B1072FBFB2
:1003F0008093BA079093BB07A093BC07B093BD0747
:1004000082EB97E00E94D90197FF26C02FB7F8949E
:100410008091AE079091AF07A091B007B091B1075E
:100420002FBF4091BA075091BB076091BC077091F4
:10043000BD07841B950BA60BB70B4091B6075091D7
:10044000B7076091B8077091B90784179507A60799
:10045000B707B0F28FEF9FEF0895FC01918D828D69
:10046000981731F0828DE80FF11D858D90E0089589
:100470008FEF9FEF0895FC01918D228D892F90E0E1
:10048000805C9F4F821B91098F739927089582EB9F
:1004900097E00E943B0221E0892B09F420E0822FA3
:1004A0000895FC01A48DA80FB92FB11DA35ABF4F09
:1004B0002C91848D90E001968F739927848FA68963
:1004C000B7892C93A089B1898C91837080648C93B7
:1004D000938D848D981306C00288F389E02D808166
:1004E0008F7D80830895EF92FF920F931F93CF9398
:1004F000DF93EC0181E0888F9B8D8C8D98131AC05F
:10050000E889F989808185FF15C09FB7F894EE8945
:10051000FF896083E889F9898081837080648083A2
:100520009FBF81E090E0DF91CF911F910F91FF90ED
:10053000EF900895F62E0B8D10E00F5F1F4F0F7395
:100540001127E02E8C8D8E110CC00FB607FCFACF50
:10055000E889F989808185FFF5CFCE010E9451029B
:10056000F1CFEB8DEC0FFD2FF11DE35AFF4FF08221
:100570009FB7F8940B8FEA89FB8980818062CFCF87
:10058000CF93DF93EC01888D8823B9F0AA89BB89CA
:10059000E889F9898C9185FD03C0808186FD0DC0B5
:1005A0000FB607FCF7CF8C9185FFF2CF808185FFD6
:1005B000EDCFCE010E945102E9CFDF91CF91089596
:1005C00080E090E0892B29F00E94470281110E946F
:1005D000000080E090E0892B49F080E090E0892BDA
:1005E00029F00E94000081110E94000080E090E04C
:1005F000892B49F080E090E0892B29F00E940000CF
:1006000081110E94000080E090E0892B49F080E099
:1006100090E0892B29F00E94000081110C940000C9
:1006200008958150823108F05AC0E82FF0E0882701
:10063000E35EFC4F8F4F0C947E083D0341032F0374
:10064000350339036F0344034A034E03540358032D
:100650005C03620366036F036A0370037403809193
:1006600080008F77809380000895809180008F7D37
:10067000F9CF80918000877FF5CF84B58F7784BDD7
:10068000089584B58F7DFBCF8091B0008F778093E4
:10069000B00008958091B0008F7DF9CF80919000D7
:1006A0008F77809390000895809190008F7DF9CF8F
:1006B00080919000877FF5CF8091A0008F77809305
:1006C000A00008958091A0008F7DF9CF8091A000B7
:1006D000877FF5CF809120018F7780932001089547
:1006E000809120018F7DF9CF80912001877FF5CF08
:1006F0001F93CF93DF93282F30E0F901E657FD4F8A
:100700008491F901EC5BFD4FD491F901E250FE4F69
:10071000C491CC23A9F0162F81110E941103EC2F54
:10072000F0E0EE0FFF1FE055FE4FA591B4918FB79B
:10073000F894EC91111108C0D095DE23DC938FBFA3
:10074000DF91CF911F910895DE2BF8CF3FB7F8943A
:100750008091A9079091AA07A091AB07B091AC072F
:1007600026B5A89B05C02F3F19F00196A11DB11D0C
:100770003FBFBA2FA92F982F8827BC01CD01620F48
:10078000711D811D911D42E0660F771F881F991F03
:100790004A95D1F708958F929F92AF92BF92CF92D0
:1007A000DF92EF92FF924B015C010E94A6036B0166
:1007B0007C010E94A6036C197D098E099F09683E81
:1007C000734081059105A8F321E0821A9108A108E0
:1007D000B10888EEC80E83E0D81EE11CF11C81141C
:1007E0009104A104B10429F7FF90EF90DF90CF901E
:1007F000BF90AF909F908F900895FC01DB01C2964F
:100800002081318111963C932E932281338113965E
:100810003C932E9312972481358115963C932E9309
:1008200014972681378117963C932E93169720852F
:10083000318519963C932E9318973A961A968E17EF
:100840009F07F1F60895FC0101900020E9F7319728
:10085000AF01481B590BBC0182EB97E00C949D0142
:100860008AE497E00C9423040F931F93CF93DF93B4
:10087000EC0188819981009759F02A813B812617E4
:10088000370730F081E0DF91CF911F910F910895EC
:100890008B016F5F7F4F0E94AB09009759F09983DE
:1008A00088831B830A832C813D81232B59F7FC010C
:1008B0001082E8CF80E0E7CF1F920F920FB60F9221
:1008C00011240BB60F922F933F934F935F936F9327
:1008D0007F938F939F93AF93BF93EF93FF9382EB9D
:1008E00097E00E945102FF91EF91BF91AF919F91CC
:1008F0008F917F916F915F914F913F912F910F90C9
:100900000BBE0F900FBE0F901F9018951F920F9265
:100910000FB60F9211240BB60F922F938F939F93C4
:10092000EF93FF93E091C207F091C3078081E091BC
:10093000C807F091C90782FD1DC090818091CB0747
:100940008F5F8F732091CC07821741F0E091CB0726
:10095000F0E0EE54F84F958F8093CB07FF91EF9125
:100960009F918F912F910F900BBE0F900FBE0F9004
:100970001F9018958081F2CF1F920F920FB60F92A1
:1009800011242F933F938F939F93AF93BF938091A5
:10099000AE079091AF07A091B007B091B107309129
:1009A000A80723E0230F2D3758F50196A11DB11D8F
:1009B0002093A8078093AE079093AF07A093B0074A
:1009C000B093B1078091A9079091AA07A091AB07B6
:1009D000B091AC070196A11DB11D8093A90790931A
:1009E000AA07A093AB07B093AC07BF91AF919F91BB
:1009F0008F913F912F910F900FBE0F901F901895E0
:100A000026E8230F0296A11DB11DD2CFCF93DF930D
:100A1000CDB7DEB7EC970FB6F894DEBF0FBECDBFF3
:100A2000789484B5826084BD84B5816084BD85B5C9
:100A3000826085BD85B5816085BD80916E008160D5
:100A400080936E001092810080918100826080937B
:100A5000810080918100816080938100809180007D
:100A60008160809380008091B10084608093B100A8
:100A70008091B00081608093B0008091910082608D
:100A8000809391008091910081608093910080918A
:100A900090008160809390008091A100826080939B
:100AA000A1008091A10081608093A1008091A000AD
:100AB00081608093A0008091210182608093210158
:100AC00080912101816080932101809120018160CA
:100AD0008093200180917A00846080937A008091D5
:100AE0007A00826080937A0080917A00816080939E
:100AF0007A0080917A00806880937A001092C10019
:100B0000E091C207F091C30782E08083E091BE07C5
:100B1000F091BF071082E091C007F091C1078FEC00
:100B200080831092CA07E091C607F091C70786E05C
:100B30008083E091C407F091C50780818061808344
:100B4000E091C407F091C507808188608083E091BF
:100B5000C407F091C507808180688083E091C40755
:100B6000F091C50780818F7D80838CE2282E87E0FD
:100B7000382EF101819191911F019927FC01EC5BC5
:100B8000FD4F249182509E4FFC018491882399F05F
:100B900090E0880F991FFC01E653FE4FA591B49198
:100BA000FC01E055FE4F859194918FB7F894EC913C
:100BB000E22BEC938FBFFAE42F16F7E03F06C9F65D
:100BC000EAE5F2E02491E4E1F2E084918823C9F0BF
:100BD00090E0880F991FFC01E653FE4FA591B49158
:100BE000FC01E055FE4F459154913FB7F8949C911C
:100BF000822F809598239C93FA019081892380838A
:100C00003FBF1CAA1BAA1EAA1DAA18AE1FAA2E010E
:100C1000F3E34F0E511C70E060E0C2010E94340407
:100C20002BA93CA9811159C02115310519F0C90121
:100C30000E9422091CAA1BAA18AE1FAA1EAA1DAA3E
:100C40008E010F5F1F4F2DB73EB73CAF2BAF8DE42A
:100C500097E00E9423040E94300482EB97E00E94F8
:100C60003B02892BD1F31A8219821C821B821E82BD
:100C70001D8270E060E0C8010E94340429813A813D
:100C8000811133C02115310519F0C9010E942209D3
:100C90001A8219821E821D821C821B820E94ED0113
:100CA00097FD2BC089AF1AAEED80FE803FEFE31AAF
:100CB000F30AB701C8010E943404882379F329811B
:100CC0003A818D819E81BE01675C7F4F820F931FA9
:100CD0000E949D0AFE82ED82E1CF18AE1FAA6CE44D
:100CE00077E0C9010E949D0AABCF1E821D826CE491
:100CF00077E0C9010E949D0AD1CF8BA99CA90097DA
:100D000079F169817A816115710541F14DA95EA979
:100D10002D813E814217530708F10E949D0A8D8163
:100D20009E8198AF8FAB1E821D8289819A81009728
:100D300011F00E942209EBA8FCA8E114F10409F1CA
:100D4000F70181917F018823E1F0082E000C990BB7
:100D50000E948C0AF70131978083F2CF0E9422090A
:100D600089819A819CAB8BAB8B819C819EAB8DAB37
:100D70008D819E8198AF8FAB1A8219821C821B8253
:100D8000D2CF86E697E00E9423044FA958AD6BA905
:100D90007CA982EB97E00E949D010E9430042FA95C
:100DA00038ADF5E0F29FC001F39F900D1124059737
:100DB0003C01660C771C4AE0489F9001499F300D2A
:100DC0001124EDB7FEB7E21BF30B0FB6F894FEBF8C
:100DD0000FBEEDBF2DB73EB72F5F3F4F59016901E1
:100DE000B90145E050E030E020E02817390750F421
:100DF000F901EE0FFF1FE60FF71F118210822F5F20
:100E00003F4FF3CF41505109660D771D41155105F4
:100E100051F7F80122E311922A95E9F7F12CE12C20
:100E20008FA998AD9C0121503109E216F30608F014
:100E300067C0E816F90628F4EBA9FCA9309709F079
:100E400032C01092AD07EDEAF7E0E081E03209F43C
:100E500031C00E2E000CFF0BE156F109EA31F1050D
:100E600008F028C0B8018827E75CF84F8F4F0C9432
:100E70007E085607F007F307F607F907FC07FF0798
:100E80000208050808080B080E08110814081708BE
:100E90001A081D0820082308260829082C082F08EE
:100EA000320835083808EE0DFF1DCFCF82EE96E0F0
:100EB0000E94FD039E012F5F3F4FA60190E080E05E
:100EC000FA01E80FF91FD901A80FB91F6D917C91A4
:100ED0007183608302968A30910591F7265F3F4FB8
:100EE000460D571D2415350549F73FEFE31AF30A60
:100EF0004AE0C40ED11C53E0E516F10409F090CF8E
:100F00000E9430040E9430048BE797E00E94230483
:100F10000E9430040E9430040E9430047301EE0CE1
:100F2000FF1CEE0CFF1CEA0CFB1C55E0A52EB12C9F
:100F3000E0EAF2E08491EAE5F2E0C490E4E1F2E074
:100F4000D490DD2071F081110E941103ED2DF0E0AD
:100F5000EE0FFF1FEC51FE4FA591B4918C91C8226A
:100F600039F72CE2822E27E0922ED12CC12C2FA90A
:100F700038ADF5E0F29FC001F39F900D1124059765
:100F8000C816D90608F477C06AEA70E080E090E0FD
:100F90000E94CB0321E0A21AB108E618F708A114B9
:100FA000B10409F0C5CF8CE2E82E87E0F82EF701F6
:100FB0008081F2E0EF0EF11C60E00E9478032E14B5
:100FC0003F04A9F760ED77E080E090E00E94CB035A
:100FD0002BAD3CAD0FB6F8943EBF0FBE2DBF33CE48
:100FE00080EB96E065CF8EE796E062CF8CE496E0EA
:100FF0005FCF8AE196E05CCF88EE95E059CF86EB33
:1010000095E056CF84E895E053CF82E595E050CF48
:1010100080E295E04DCF8EEE94E04ACF8CEB94E0E9
:1010200047CF8AE894E044CF88E594E041CF86E258
:1010300094E03ECF84EF93E03BCF82EC93E038CF57
:1010400080E993E035CF8EE593E032CF8CE293E0F8
:101050002FCF8AEF92E02CCF88EC92E029CF86E95F
:1010600092E026CF84E692E023CF82E392E020CF85
:1010700080E092E01DCFF4018081F2E08F0E911CA0
:10108000F601EE0FFF1FEE0DFF1D60810E94780339
:101090002FEFC21AD20A3FE0C316D10409F067CF7E
:1010A00073CFE2EBF7E01382128288EE93E0A0E0C8
:1010B000B0E084839583A683B7838EE197E0918324
:1010C000808385EC90E09587848784EC90E0978717
:1010D000868780EC90E0918B808B81EC90E0938B05
:1010E000828B82EC90E0958B848B86EC90E0978BE2
:1010F000868B118E128E138E148E0895EE0FFF1FA5
:10110000881F8BBF0790F691E02D19940F931F93C2
:10111000CF93DF938230910510F482E090E0E0916C
:101120005108F091520830E020E0B0E0A0E03097A4
:1011300099F42115310509F44AC0281B390B2430D4
:101140003105D8F58A819B816115710589F1FB0113
:1011500093838283FE0111C04081518102811381FA
:1011600048175907E0F04817590799F4109761F0AC
:1011700012960C93129713961C933296CF01DF911F
:10118000CF911F910F910895009351081093520829
:10119000F4CF2115310551F04217530738F0A9015A
:1011A000DB019A01BD01DF01F801C1CFEF01F9CFE9
:1011B0009093520880935108CDCFFE01E20FF31FA8
:1011C000819391932250310939832883D7CF20917D
:1011D0004F0830915008232B41F42091160730918D
:1011E00017073093500820934F082091140730912F
:1011F00015072115310541F42DB73EB74091180769
:1012000050911907241B350BE0914F08F0915008BD
:10121000E217F307A0F42E1B3F0B2817390778F0CD
:10122000AC014E5F5F4F2417350748F04E0F5F1F2C
:101230005093500840934F08819391939FCFF0E0D3
:10124000E0E09CCFCF93DF930097E9F0FC01329769
:1012500013821282A0915108B0915208ED0130E042
:1012600020E01097A1F420813181820F931F2091FB
:101270004F08309150082817390709F061C0F093E2
:101280005008E0934F08DF91CF910895EA01CE17FF
:10129000DF07E8F54A815B819E0141155105B1F7F1
:1012A000E901FB83EA8349915991C40FD51FEC17DB
:1012B000FD0761F4808191810296840F951FE901F9
:1012C00099838883828193819B838A83F0E0E0E025
:1012D00012968D919C9113970097B9F52D913C91A1
:1012E0001197CD010296820F931F20914F083091E4
:1012F00050082817390739F6309751F510925208DF
:1013000010925108B0935008A0934F08BCCFD383DC
:10131000C28340815181840F951FC817D90761F49A
:101320004E5F5F4F88819981480F591F51834083D9
:101330008A819B81938382832115310509F0B0CF87
:10134000F0935208E09351089ECFFD01DC01C0CF1D
:1013500013821282D7CF4F925F926F927F928F92B9
:101360009F92AF92BF92CF92DF92EF92FF920F9334
:101370001F93CF93DF938C01009799F4CB01DF91FA
:10138000CF911F910F91FF90EF90DF90CF90BF9082
:10139000AF909F908F907F906F905F904F900C9444
:1013A0008608FC01E60FF71F9C0122503109E21765
:1013B000F30708F4AEC0D901CD91DC911197C6179F
:1013C000D70720F1C530D10578F0CE0104978617F4
:1013D000970750F0C61BD70B2297C193D1936D93FB
:1013E0007C93CF010E942209C801DF91CF911F9108
:1013F0000F91FF90EF90DF90CF90BF90AF909F90B4
:101400008F907F906F905F904F9008955B01AC1A22
:10141000BD0A4C018C0E9D1EA0915108B09152083E
:10142000512C412CF12CE12C109731F580914F0873
:10143000909150088815990509F05CC0461657062A
:1014400008F058C08091140790911507009741F457
:101450008DB79EB74091180750911907841B950BC3
:10146000E817F90708F055C0F0935008E0934F08CB
:10147000F90171836083B8CF8D919C911197129679
:101480006C90129713967C901397A815B90559F58F
:101490006C0142E0C40ED11CCA14DB0420F1AC0183
:1014A0004A195B09DA011296159780F062827382FD
:1014B00051834083D9016D937C93E114F10471F061
:1014C000D7011396FC93EE9312978ECF22968C0F32
:1014D0009D1FF90191838083F301EFCFF0935208B0
:1014E000E093510881CF4816590608F42C017D017C
:1014F000D3019ACFCB010E9486087C01009749F066
:10150000AE01B8010E94940AC8010E942209870115
:101510006BCF10E000E068CF9111089581548A519B
:1015200008F4805E855A0895FB01DC0102C0019039
:101530000D9241505040D8F70895FB01DC01019015
:0C1540000D920020E1F70895F894FFCF11
:10154C00010001000100010001000000000000008A
:10155C00010000000000000001000000000000007D
:10156C00010000000000000001000100010001006A
:10157C00010001000000000000000100000001005B
:10158C00000001000000000000000100000000004D
:10159C00000000000100000000000000000001003D
:1015AC00000000000100000000000000010000002D
:1015BC00010000000100000000000000010000001C
:1015CC00000000000100000001000000010000000C
:1015DC0000000000010001000000000000000100FC
:1015EC0001000000000000000100010000000100EB
:1015FC0000000100010000000100000001000000DB
:10160C0001000000010000000100000000000000CB
:10161C0001000100000000000000010001000000BA
:10162C0000000000010000000100000001000000AB
:10163C00000000000100000000000100000000009C
:10164C00000001000100000000000000010001008A
:10165C00000000000000010001000000000000007C
:10166C000100000001000100010000000100010068
:10167C00010001000100000000000100000000005A
:10168C00000000000100000000000000000001004C
:10169C00000000000000000001000000000000003D
:1016AC00010001000100000001000000000000002A
:1016BC00000000000100010001000000000000001B
:1016CC00000000000100000001000100010000000A
:1016DC0001000100010001000000010000000000F9
:1016EC0000000100010001000100010000000100E8
:1016FC0000000100000000000100000000000100DB
:10170C0001000000010001000100000001000000C8
:10171C0000000000010001000000010000000100B9
:10172C0001000000000001000000000001000100A9
:10173C000000010001000100010001000000010097
:10174C000000000000000100010001000100010088
:10175C00000001000000000000000000010000007B
:10176C00000000000000000001000100010000006A
:10177C00010000000000000001000100000000005A
:10178C00000001000100000000000000010000004A
:10179C000100010001000000010000000000000039
:1017AC000100010001000000000001000100000028
:1017BC000100000001000100000000000100010018
:1017CC00010000000000000001000100000000000A
:1017DC0000000100010001000000010001000100F7
:1017EC0000000100000001000100000000000000EA
:1017FC0001000100000000000000010001000000D9
:10180C0000000000000001000000000000000000CB
:10181C0001000000000000000000010000000000BA
:10182C0000000100010001000100010001000100A5
:10183C000000000001000000010000000100000099
:10184C000000010001000000000000000100000089
:10185C000100000000000100000000000100000079
:10186C000000010001000100010000000000000068
:10187C000000010000000000000000000100010059
:10188C000000000000000100000001000100010048
:10189C000000010001000100010001000000000037
:1018AC00010000000000000000000100000000002A
:1018BC000000000001000000000001000100010018
:1018CC000100010001000000000000000100010007
:1018DC0000000000000001000100010001000100F7
:1018EC0001000100000000000000010001000000E8
:1018FC0000000000010000000100010001000000D8
:10190C0001000000000000000000010000000100C8
:10191C0001000000010000000000000001000000B8
:10192C0001000100010000000100010001000100A4
:10193C000100010000000000000000000100010097
:10194C000100010000000100000000000000000088
:10195C000100000000000000000001000100010077
:10196C000100010001000000000000000000010067
:10197C000100010001000000010000000000000057
:10198C000000010001000100010001000100010044
:10199C000100010000000100000000000000010037
:1019AC000100000000000000010001000000000028
:1019BC000000010001000100010001000000000016
:1019CC000100010001000000010000000000000007
:1019DC0001000100000000000000000001000000F8
:1019EC0000000000010000000100010001000000E7
:1019FC0001000100010001000000010000000000D6
:101A0C0000000100010001000100010000000100C4
:101A1C0000000000000001000100010001000100B5
:101A2C0000000000000001000000000000000100A8
:101A3C000000010000000100000000000000010097
:101A4C000100010001000100010001000000000084
:101A5C000000010000005308800000000000730229
:101A6C009D01CA01C0023B02D9012D023500340090
:101A7C0033003200310030002F002E002D002C00DE
:101A8C002B002A002900280027000D0A00706C6525
:101A9C0061736520656E7465722061207374726960
:101AAC006E673A202000796F757220676976656ED3
:101ABC0020737472696E673A202000776169742014
:101ACC00666F722070726F63657373202E2E2E20DA
:101ADC0028646F206E6F74207479706520616E7944
:081AEC007468696E67290000AF
:00000001FF
