:100000000C9428010C9459010C9459010C94590139
:100010000C9459010C9459010C9459010C945901F8
:100020000C9459010C9459010C9459010C945901E8
:100030000C9459010C9459010C9459010C945901D8
:100040000C9459010C9471050C9459010C945901AC
:100050000C9459010C9459010C9459010C943D04D1
:100060000C9459010C94B1040C9487040C9459011C
:100070000C9459010C9459010C9459010C94590198
:100080000C9443050C9459010C9459010C9459019A
:100090000C9459010C9459010C9459010C94590178
:1000A0000C9459010C9459010C9415050C945901A8
:1000B0000C9459010C9459010C9459010C94E704C7
:1000C0000C9459010C9459010C9459010C94590148
:1000D0000C9459010C9459010C9459010C94590138
:1000E0000C9459010C9435030C9422030C941E03B8
:1000F0000C9431020C9451030C9443030C94F901B9
:100100000C944B030C942B030C942F030C947E0241
:100110000C9497010C9404030C9425030C94FF0297
:100120000C9439030C9488010C9447030C94160327
:100130000C945B010C941A030C9455030C94EB0182
:100140000C943D030C949F0500000A0B02090C0D52
:100150000E0807030401000000000000000000007A
:10016000000000000000000000000000000000008F
:10017000000000001211100000000000000000004C
:10018000000000000000000000000000000000006F
:100190002200250028002B002E003100340002012F
:1001A0000000050108010B010000210024002700C8
:1001B0002A002D0030003300010100000401070176
:1001C0000A010505050507050808080802020202DC
:1001D0000A0A0808040404040101010101010101E3
:1001E0000303030303030303040707070C0C0C0CAE
:1001F0000C0C0C0C02020202060606060606060697
:100200000B0B0B0B0B0B0B0B010210202008081023
:100210002040102040800201020108040201010276
:10022000040810204080804020100804020180044F
:1002300002018040201008040201080402010102AA
:1002400004081020408001020408102040809F050F
:1002500011241FBECFEFD1E2DEBFCDBF00E00CBF47
:1002600012E0A0E0B2E0E4E3F6E100E00BBF02C080
:1002700007900D92AC31B107D9F723E0ACE1B2E0C1
:1002800001C01D92AE35B207E1F711E0C8E2D1E03E
:1002900000E006C021970109802FFE010E94FA08A4
:1002A000C732D10780E00807A9F70E94FC050C942B
:1002B000180B0C940000AF92BF92CF92DF92EF9296
:1002C000FF920F931F93CF93DF936C017B018B0100
:1002D000040F151FEB015E01AE18BF08C017D10750
:1002E00059F06991D601ED91FC910190F081E02DDA
:1002F000C6011995892B79F7C501DF91CF911F911F
:100300000F91FF90EF90DF90CF90BF90AF90089546
:10031000FC01538D448D252F30E0842F90E0821B0B
:10032000930B541710F0CF96089501970895FC0190
:10033000918D828D981761F0A28DAE0FBF2FB11DE8
:100340005D968C91928D9F5F9F73928F90E0089540
:100350008FEF9FEF08952FB7F89480912502909129
:100360002602A0912702B09128022FBF809331026C
:1003700090933202A0933302B093340289E292E068
:100380000E94970197FF26C02FB7F894809125020D
:1003900090912602A0912702B09128022FBF409190
:1003A0003102509132026091330270913402841B09
:1003B000950BA60BB70B40912D0250912E02609128
:1003C0002F027091300284179507A607B707B0F285
:1003D0008FEF9FEF0895FC01918D828D981731F07A
:1003E000828DE80FF11D858D90E008958FEF9FEFCE
:1003F0000895FC01918D228D892F90E0805C9F4FA4
:10040000821B91098F739927089589E292E00E94D7
:10041000F90121E0892B09F420E0822F0895FC01E5
:10042000A48DA80FB92FB11DA35ABF4F2C91848D55
:1004300090E001968F739927848FA689B7892C93B2
:10044000A089B1898C91837080648C93938D848D05
:10045000981306C00288F389E02D80818F7D808308
:100460000895EF92FF920F931F93CF93DF93EC01C8
:1004700081E0888F9B8D8C8D98131AC0E889F9894B
:10048000808185FF15C09FB7F894EE89FF8960834E
:10049000E889F98980818370806480839FBF81E0CF
:1004A00090E0DF91CF911F910F91FF90EF90089511
:1004B000F62E0B8D10E00F5F1F4F0F731127E02EEC
:1004C0008C8D8E110CC00FB607FCFACFE889F98924
:1004D000808185FFF5CFCE010E940F02F1CFEB8D19
:1004E000EC0FFD2FF11DE35AFF4FF0829FB7F894F8
:1004F0000B8FEA89FB8980818062CFCFCF93DF9316
:10050000EC01888D8823B9F0AA89BB89E889F9892B
:100510008C9185FD03C0808186FD0DC00FB607FC60
:10052000F7CF8C9185FFF2CF808185FFEDCFCE0193
:100530000E940F02E9CFDF91CF91089580E090E013
:10054000892B29F00E94050281110E94000080E0A1
:1005500090E0892B49F080E090E0892B29F00E94FF
:10056000000081110E94000080E090E0892B49F09A
:1005700080E090E0892B29F00E94000081110E9408
:10058000000080E090E0892B49F080E090E0892B2A
:1005900029F00E94000081110C9400000895282F7A
:1005A00030E0F901E85BFE4F9491F901E85FFD4FFF
:1005B00044912E533E4FF9012491222309F435C072
:1005C000992311F191509231F8F4E92FF0E0882746
:1005D000E351FD4F8F4F0C94FA081E032203FF02D4
:1005E00016031A03040325032B032F0335033903D2
:1005F0003D034303470304034B0351035503809119
:1006000080008F7780938000E22FF0E0EE0FFF1FD5
:10061000E257FE4FA591B4918FB7F894EC91611118
:1006200048C040954E234C938FBF08958091800021
:100630008F7DE8CF80918000877FE4CF84B58F776E
:1006400084BDE2CF84B58F7DFBCF8091B0008F77E2
:100650008093B000D9CF8091B0008F7DF9CF809189
:1006600090008F7780939000CFCF809190008F7D06
:10067000F9CF80919000877FF5CF8091A0008F7790
:100680008093A000C1CF8091A0008F7DF9CF809191
:10069000A000877FF5CF809120018F778093200184
:1006A000B3CF809120018F7DF9CF80912001877F8A
:1006B000F5CF4E2BB8CFAF92BF92CF92DF92EF9291
:1006C000FF920F931F93CF93DF936B017A01EC019D
:1006D000C45EDD4F28813CE0389F8001399F100DBA
:1006E0001124A0905603B12C27FF1FC0FB011182DB
:1006F000108288818F5F888388819801280F311D3F
:1007000087FD3A95F6012A153B051CF488818C304B
:10071000C4F180819181049680349C4908F473C0AF
:10072000F60180819181049670C088819801280F1C
:10073000311D87FD3A952A153B05DCF68881A80115
:10074000480F511D87FD5A95FA01EE0FFF1FE40F68
:10075000F51FEA53FD4F808186FFCBCF8881F801DA
:10076000E80FF11D87FDFA95CF01EE0FFF1FE80F8F
:10077000F91FEA53FD4F808160E08F730E94CF0222
:10078000B8CF808191812881A801420F511D27FD9A
:100790005A959A01FA01EE0FFF1FE20FF31FEA5379
:1007A000FD4F21813281820F931FF7019183808356
:1007B00088819801280F311D87FD3A95F901EE0FC8
:1007C000FF1FE20FF31FEA53FD4F808186FF22C017
:1007D0008881080F111D87FD1A95F801EE0FFF1F84
:1007E000E00FF11FEA53FD4F808161E08F73DF91CD
:1007F000CF911F910F91FF90EF90DF90CF90BF901E
:10080000AF900C94CF0280E49CE9F7019183808340
:100810008FEF8883DF91CF911F910F91FF90EF9021
:10082000DF90CF90BF90AF9008950F931F93CF9319
:10083000DF93EC0188819981009759F02A813B81EF
:100840002617370730F081E0DF91CF911F910F918C
:1008500008958B016F5F7F4F0E94270A009759F020
:10086000998388831B830A832C813D81232B59F72D
:10087000FC011082E8CF80E0E7CF1F920F920FB605
:100880000F9211242F933F938F939F93AF93BF9316
:100890008091250290912602A0912702B091280212
:1008A0003091240223E0230F2D3758F50196A11D26
:1008B000B11D209324028093250290932602A093D9
:1008C0002702B09328028091200290912102A091EA
:1008D0002202B09123020196A11DB11D8093200236
:1008E00090932102A0932202B0932302BF91AF9173
:1008F0009F918F913F912F910F900FBE0F901F905E
:10090000189526E8230F0296A11DB11DD2CF1F9284
:100910000F920FB60F9211240BB60F922F933F93A5
:100920004F935F936F937F938F939F93AF93BF93F7
:10093000EF93FF9389E292E00E940F02FF91EF9103
:10094000BF91AF919F918F917F916F915F914F91E7
:100950003F912F910F900BBE0F900FBE0F901F90E5
:1009600018951F920F920FB60F9211240BB60F928B
:100970002F938F939F93EF93FF93E0913902F09120
:100980003A028081E0913F02F091400282FD1DC059
:100990009081809142028F5F8F7320914302821772
:1009A00041F0E0914202F0E0E75DFD4F958F8093CA
:1009B0004202FF91EF919F918F912F910F900BBE6B
:1009C0000F900FBE0F901F9018958081F2CF1F924D
:1009D0000F920FB60F9211240BB60F922F933F93E5
:1009E0004F935F936F937F938F939F93AF93BF9337
:1009F000EF93FF9348E251E064E271E090E080E021
:100A00000E945B03FF91EF91BF91AF919F918F91F6
:100A10007F916F915F914F913F912F910F900BBEFE
:100A20000F900FBE0F901F9018951F920F920FB648
:100A30000F9211240BB60F922F933F934F935F9316
:100A40006F937F938F939F93AF93BF93EF93FF9396
:100A500048EA50E064EA70E083E090E00E945B03C3
:100A6000FF91EF91BF91AF919F918F917F916F9186
:100A70005F914F913F912F910F900BBE0F900FBE42
:100A80000F901F9018951F920F920FB60F9211247E
:100A90000BB60F922F933F934F935F936F937F9378
:100AA0008F939F93AF93BF93EF93FF9348E950E0E9
:100AB00064E970E082E090E00E945B03FF91EF91B7
:100AC000BF91AF919F918F917F916F915F914F9166
:100AD0003F912F910F900BBE0F900FBE0F901F9064
:100AE00018951F920F920FB60F9211240BB60F920A
:100AF0002F933F934F935F936F937F938F939F9326
:100B0000AF93BF93EF93FF9348E850E064E870E041
:100B100081E090E00E945B03FF91EF91BF91AF9164
:100B20009F918F917F916F915F914F913F912F9105
:100B30000F900BBE0F900FBE0F901F901895109244
:100B40002C0210922B0288EE93E0A0E0B0E080939C
:100B50002D0290932E02A0932F02B09330028AE0D0
:100B600092E090932A028093290285EC90E0909382
:100B700036028093350284EC90E0909338028093A3
:100B8000370280EC90E090933A028093390281EC36
:100B900090E090933C0280933B0282EC90E0909333
:100BA0003E0280933D0286EC90E090934002809359
:100BB0003F0210924202109243021092440210929D
:100BC000450280915603803398F491E0980F9093FA
:100BD00056038093570390E0FC01EE0FFF1FE80FD0
:100BE000F91FEA53FD4F88EB9BE0928381830895C0
:100BF0008FEF809357030895CF93DF93CDB7DEB780
:100C0000A3970FB6F894DEBF0FBECDBF789484B51E
:100C1000826084BD84B5816084BD85B5826085BDF8
:100C200085B5816085BD80916E00816080936E0086
:100C30001092810080918100826080938100809178
:100C40008100816080938100809180008160809329
:100C500080008091B10084608093B1008091B000E9
:100C600081608093B00080919100826080939100B8
:100C700080919100816080939100809190008160CB
:100C8000809390008091A10082608093A100809168
:100C9000A10081608093A1008091A0008160809379
:100CA000A000809121018260809321018091210127
:100CB00081608093210180912001816080932001D7
:100CC00080917A00846080937A0080917A008260BB
:100CD00080937A0080917A00816080937A0080917D
:100CE0007A00806880937A001092C100E091390206
:100CF000F0913A0282E08083E0913502F091360271
:100D00001082E0913702F09138028FEC80831092CC
:100D10004102E0913D02F0913E0286E08083E09145
:100D20003B02F0913C02808180618083E0913B0234
:100D3000F0913C02808188608083E0913B02F091D9
:100D40003C02808180688083E0913B02F0913C020C
:100D500080818F7D808380915703803308F06BC042
:100D6000E1E1F2E02491EBECF1E08491882399F049
:100D700090E0880F991FFC01E855FE4FA591B491B2
:100D8000FC01E257FE4F859194918FB7F894EC9156
:100D9000E22BEC938FBF80915703282F30E0F901AD
:100DA000EE0FFF1FE20FF31FEA53FD4F9081907C7F
:100DB000996090839EE89093580394E6909359032A
:100DC0002CE0622F0E94EE08829FB001112430E0D7
:100DD00020E0AB01420F531FFA01EE0FFF1FE40F9B
:100DE000F51FEA53FD4F908196FD17C02F5F3F4FCF
:100DF0002C30310571F7813009F06FC010928000FE
:100E000082E0809381001092850010928400B19A54
:100E100080916F00826080936F00E09157038E2F66
:100E200090E0FC01EE0FFF1FE80FF91FEA53FD4FA2
:100E3000808180648083E8E64E2E55245394612C93
:100E4000712CF8E52F2EF2E03F2EAAE08A2E912C8D
:100E5000A12CB12C89E292E00E94F9011816190622
:100E60000CF00CC11A8219821C821B821E821D8208
:100E700070E060E0CE0101960E94150429813A815C
:100E8000811157C02115310519F0C9010E949E0931
:100E90001A8219821E821D821C821B820E94AB0153
:100EA00097FD4FC08AA31BA20D811E810F5F1F4FAC
:100EB000B801CE0101960E941504882379F3298197
:100EC0003A818D819E81BE016E5D7F4F820F931F9F
:100ED0000E94110B1E830D83E1CF823061F41092CA
:100EE000900080939100109295001092940088BB1E
:100EF0008093710092CF833069F41092A00082E059
:100F00008093A1001092A5001092A40089BB809349
:100F1000720083CF811181CF1092200182E08093F3
:100F2000210110922501109224018ABB8093730045
:100F300074CF1E821D826AE172E0C9010E94110B0A
:100F4000ADCF09811A8160E070E0CB010115110578
:100F500019F0C8010E945708CC24DD24C61AD70A0C
:100F60000115110519F0C8010E949E090D2C000CF5
:100F7000EE08FF08F7FE85C06DE289E292E00E946C
:100F8000310222273327A9012C193D094E095F0997
:100F900019A28E010F5D1F4FCA01B901A50194016D
:100FA0000E94BD08605DF80162938F012115310533
:100FB0004105510589F70115110561F001900020E7
:100FC000E9F73197AF01401B510BB80189E292E07C
:100FD0000E945B0142E050E068E172E089E292E049
:100FE0000E945B0110915703103308F047C0A7011E
:100FF00096012C543F4F4F4F5F4FA8EEB3E00E9435
:10100000B208A30192010E94930869017A01F8EEE7
:10101000CF0EF3E0DF1EE11CF11C8091580328E89D
:1010200030E0281B310987FD3395C901880F991FCE
:10103000880F991FC816D90684F080915903F101D1
:10104000E81BF10987FDF395CF01880F991F880FE1
:10105000991FC816D9060CF4C6010297880F991F6C
:101060004FB7F894212F30E0F901EE0FFF1FE20F88
:10107000F31FEA53FD4F928381834FBF0E949E026C
:10108000E9CEA701960119A28E010F5D1F4FCA017B
:10109000B901A50194010E94BD08605DF801629349
:1010A0008F01211531054105510589F784CF1F9323
:1010B000FC0199278827BC01E89411911032E9F3CB
:1010C000193010F01E30C8F31B3251F01D3249F4B4
:1010D000689406C00E947E08610F711D811D911DDC
:1010E000119110531A30B0F33EF49095809570959D
:1010F00061957F4F8F4F9F4F1F910895592F482F14
:10110000372F262F660F771F881F991F660F771FAF
:10111000881F991F620F731F841F951F660F771F0B
:10112000881F991F0895052E97FB1EF400940E94B6
:10113000AA0857FD07D00E94BD0807FC03D04EF453
:101140000C94AA0850954095309521953F4F4F4FEC
:101150005F4F089590958095709561957F4F8F4F63
:101160009F4F08950E94DF08A59F900DB49F900D9A
:10117000A49F800D911D11240895A1E21A2EAA1B8F
:10118000BB1BFD010DC0AA1FBB1FEE1FFF1FA21737
:10119000B307E407F50720F0A21BB30BE40BF50B34
:1011A000661F771F881F991F1A9469F760957095BD
:1011B000809590959B01AC01BD01CF010895A29F40
:1011C000B001B39FC001A39F700D811D1124911D1B
:1011D000B29F700D811D1124911D0895991B79E016
:1011E00004C0991F961708F0961B881F7A95C9F7B7
:1011F00080950895EE0FFF1F881F8BBF0790F69113
:10120000E02D19940F931F93CF93DF9382309105B4
:1012100010F482E090E0E0915C03F0915D0330E037
:1012200020E0B0E0A0E0309799F42115310509F4F1
:101230004AC0281B390B24303105D8F58A819B819F
:101240006115710589F1FB0193838283FE0111C051
:10125000408151810281138148175907E0F04817F6
:10126000590799F4109761F012960C931297139600
:101270001C933296CF01DF91CF911F910F9108956A
:1012800000935C0310935D03F4CF2115310551F0F9
:101290004217530738F0A901DB019A01BD01DF01B4
:1012A000F801C1CFEF01F9CF90935D0380935C0308
:1012B000CDCFFE01E20FF31F8193919322503109AC
:1012C00039832883D7CF20915A0330915B03232B96
:1012D00041F4209102023091030230935B0320938A
:1012E0005A0320910002309101022115310541F489
:1012F0002DB73EB74091040250910502241B350BD7
:10130000E0915A03F0915B03E217F307A0F42E1B60
:101310003F0B2817390778F0AC014E5F5F4F241759
:10132000350748F04E0F5F1F50935B0340935A03FD
:10133000819391939FCFF0E0E0E09CCFCF93DF9338
:101340000097E9F0FC01329713821282A0915C03AE
:10135000B0915D03ED0130E020E01097A1F4208111
:101360003181820F931F20915A0330915B0328171C
:10137000390709F061C0F0935B03E0935A03DF91F2
:10138000CF910895EA01CE17DF07E8F54A815B8126
:101390009E0141155105B1F7E901FB83EA834991AB
:1013A0005991C40FD51FEC17FD0761F4808191811D
:1013B0000296840F951FE901998388838281938126
:1013C0009B838A83F0E0E0E012968D919C911397C5
:1013D0000097B9F52D913C911197CD010296820F9E
:1013E000931F20915A0330915B032817390739F670
:1013F000309751F510925D0310925C03B0935B033C
:10140000A0935A03BCCFD383C28340815181840F00
:10141000951FC817D90761F44E5F5F4F8881998186
:10142000480F591F518340838A819B819383828314
:101430002115310509F0B0CFF0935D03E0935C0313
:101440009ECFFD01DC01C0CF13821282D7CF4F9215
:101450005F926F927F928F929F92AF92BF92CF9244
:10146000DF92EF92FF920F931F93CF93DF938C0144
:10147000009799F4CB01DF91CF911F910F91FF90CD
:10148000EF90DF90CF90BF90AF909F908F907F9024
:101490006F905F904F900C940209FC01E60FF71FCC
:1014A0009C0122503109E217F30708F4AEC0D901BC
:1014B000CD91DC911197C617D70720F1C530D10522
:1014C00078F0CE0104978617970750F0C61BD70B0C
:1014D0002297C193D1936D937C93CF010E949E0973
:1014E000C801DF91CF911F910F91FF90EF90DF9096
:1014F000CF90BF90AF909F908F907F906F905F90B4
:101500004F9008955B01AC1ABD0A4C018C0E9D1ED4
:10151000A0915C03B0915D03512C412CF12CE12C86
:10152000109731F580915A0390915B0388159905C6
:1015300009F05CC04616570608F058C080910002BA
:1015400090910102009741F48DB79EB7409104023B
:1015500050910502841B950BE817F90708F055C058
:10156000F0935B03E0935A03F90171836083B8CF72
:101570008D919C91119712966C90129713967C9076
:101580001397A815B90559F56C0142E0C40ED11C9A
:10159000CA14DB0420F1AC014A195B09DA01129686
:1015A000159780F06282738251834083D9016D93D5
:1015B0007C93E114F10471F0D7011396FC93EE9340
:1015C00012978ECF22968C0F9D1FF90191838083F5
:1015D000F301EFCFF0935D03E0935C0381CF4816F6
:1015E000590608F42C017D01D3019ACFCB010E944A
:1015F00002097C01009749F0AE01B8010E94080B76
:10160000C8010E949E0987016BCF10E000E068CFFF
:10161000FB01DC0102C001900D9241505040D8F70F
:101620000895FB01DC0101900D920020E1F708957F
:04163000F894FFCF5C
:1016340000005E0380000000000031025B018801AD
:0C1644007E02F9019701EB010D0A000085
:00000001FF
