:100000000C94E3000C9414010C9414010C9414014E
:100010000C9414010C9414010C9414010C9414010C
:100020000C9414010C9414010C9414010C941401FC
:100030000C9414010C9414010C9414010C941401EC
:100040000C9414010C9414010C9414010C941401DC
:100050000C9414010C9414010C9414010C94A1023E
:100060000C944B030C9415030C94EB020C941401A8
:100070000C9414010C9414010C9414010C941401AC
:100080000C9414010C9414010C9414010C9414019C
:100090000C9414010C9414010C9414010C9414018C
:1000A0000C9414010C9414010C9414010C9414017C
:1000B0000C9414010C9414010C9414010C9414016C
:1000C0000C9414010C9414010C9414010C9414015C
:1000D0000C9414010C9414010C9414010C9414014C
:1000E0000C9414010C94F9010C9443010C94160126
:1000F0000C9452010C94AC010C9474010C946601A4
:100100000C94FC0400002200250028002B002E0087
:100110003100340002010000050108010B0100005C
:100120002100240027002A002D00300033000101A7
:100130000000040107010A01050505050705080877
:100140000808020202020A0A080804040404010161
:100150000101010101010303030303030303040776
:1001600007070C0C0C0C0C0C0C0C0202020206060D
:100170000606060606060B0B0B0B0B0B0B0B010200
:1001800010202008081020401020408002010201A9
:100190000804020101020408102040808040201061
:1001A00008040201800402018040201008040201BA
:1001B0000804020101020408102040800102040822
:1001C00010204080FC0411241FBECFEFD1E2DEBF1F
:1001D000CDBF00E00CBF22E0A6E3B2E001C01D925B
:1001E000AF3EB207E1F712E0A0E0B2E0E6EDFEE0DC
:1001F00000E00BBF02C007900D92A633B107D9F7FC
:1002000010E0C3EED0E000E006C021970109802F86
:10021000FE010E944B05C23ED10780E00807A9F706
:100220000E94FD030C9469070C940000AF92BF92EA
:10023000CF92DF92EF92FF920F931F93CF93DF93B2
:100240006C017B018B01040F151FEB015E01AE18E1
:10025000BF08C017D10759F06991D601ED91FC9103
:100260000190F081E02DC6011995892B79F7C50120
:10027000DF91CF911F910F91FF90EF90DF90CF9082
:10028000BF90AF900895FC01538D448D252F30E031
:10029000842F90E0821B930B541710F0CF96089593
:1002A00001970895FC01918D828D981761F0A28DC0
:1002B000AE0FBF2FB11D5D968C91928D9F5F9F7386
:1002C000928F90E008958FEF9FEF0895FC01918D3C
:1002D000828D981731F0828DE80FF11D858D90E0A9
:1002E00008958FEF9FEF0895FC01918D228D892F46
:1002F00090E0805C9F4F821B91098F73992708952E
:100300008EE492E00E94740121E0892B09F420E040
:10031000822F0895FC01A48DA80FB92FB11DA35AF7
:10032000BF4F2C91848D90E001968F739927848F15
:10033000A689B7892C93A089B1898C918370806438
:100340008C93938D848D981306C00288F389E02DD9
:1003500080818F7D80830895EF92FF920F931F938A
:10036000CF93DF93EC0181E0888F9B8D8C8D981368
:100370001AC0E889F989808185FF15C09FB7F89474
:10038000EE89FF896083E889F989808183708064C0
:1003900080839FBF81E090E0DF91CF911F910F910B
:1003A000FF90EF900895F62E0B8D10E00F5F1F4F1A
:1003B0000F731127E02E8C8D8E110CC00FB607FC29
:1003C000FACFE889F989808185FFF5CFCE010E94B7
:1003D0008A01F1CFEB8DEC0FFD2FF11DE35AFF4F9A
:1003E000F0829FB7F8940B8FEA89FB898081806245
:1003F000CFCFCF93DF93EC01888D8823B9F0AA8902
:10040000BB89E889F9898C9185FD03C0808186FDCF
:100410000DC00FB607FCF7CF8C9185FFF2CF80811E
:1004200085FFEDCFCE010E948A01E9CFDF91CF9108
:10043000089580E090E0892B29F00E9480018111CD
:100440000E94000080E090E0892B49F080E090E07D
:10045000892B29F00E94000081110E94000080E099
:1004600090E0892B49F080E090E0892B29F00E94F0
:10047000000081110E94000080E090E0892B49F08B
:1004800080E090E0892B29F00E94000081110C94FB
:1004900000000895CF93DF9390E0FC01E258FE4FF7
:1004A0002491885C9E4FFC0184918823C9F090E0E0
:1004B000880F991FFC01E25EFE4FA591B491FC01EB
:1004C000EC5FFE4FC591D49161110DC09FB7F894B8
:1004D0008C91209582238C938881282328839FBF29
:1004E000DF91CF910895623051F49FB7F8943C9119
:1004F000822F809583238C93E8812E2BEFCF8FB7AB
:10050000F894EC912E2B2C938FBFEACFFC01019035
:100510000020E9F73197AF01481B590BBC018EE46D
:1005200092E00C941601CF93DF930E948602EC01B7
:1005300088E192E00E9486028C0F9D1FDF91CF918F
:1005400008951F920F920FB60F9211242F933F938D
:100550008F939F93AF93BF9380914A0290914B02E8
:10056000A0914C02B0914D023091490223E0230F3B
:100570002D3758F50196A11DB11D20934902809396
:100580004A0290934B02A0934C02B0934D0280918B
:10059000450290914602A0914702B091480201960F
:1005A000A11DB11D8093450290934602A09347027E
:1005B000B0934802BF91AF919F918F913F912F913E
:1005C0000F900FBE0F901F90189526E8230F0296EC
:1005D000A11DB11DD2CF1F920F920FB60F92112401
:1005E0000BB60F922F933F934F935F936F937F932D
:1005F0008F939F93AF93BF93EF93FF938EE492E01B
:100600000E948A01FF91EF91BF91AF919F918F91CD
:100610007F916F915F914F913F912F910F900BBE02
:100620000F900FBE0F901F9018951F920F920FB64C
:100630000F9211240BB60F922F938F939F93EF93EA
:10064000FF93E0915E02F0915F028081E09164028D
:10065000F091650282FD1DC09081809167028F5FDD
:100660008F7320916802821741F0E0916702F0E0F9
:10067000E25BFD4F958F80936702FF91EF919F9111
:100680008F912F910F900BBE0F900FBE0F901F9068
:1006900018958081F2CF1F920F920FB60F921124FE
:1006A0000BB60F928F929F92AF92BF92CF92DF9232
:1006B000EF92FF922F933F934F935F936F937F93AC
:1006C0008F939F93AF93BF93EF93FF93CF93DF935A
:1006D000CDB7DEB7A197DEBFCDBFC0904302D090AB
:1006E00044020D2C000CEE08FF08F7FE6BC06DE213
:1006F0008EE492E00E94AC0122273327A9012C1935
:100700003D094E095F0919A2CE0181967C019AE04C
:10071000892E912CA12CB12CCA01B901A5019401FB
:100720000E942905605DF70162937F012115310563
:100730004105510589F7E114F10419F0C7010E9440
:10074000860284E392E00E9486026EB58EE492E017
:100750000E94AC018AE192E00E949302E091430280
:10076000F09144028EB5EA5CFD4F80838091430294
:100770009091440201969093440280934302A19683
:100780000FB6F894DEBF0FBECDBFDF91CF91FF91C2
:10079000EF91BF91AF919F918F917F916F915F91F9
:1007A0004F913F912F91FF90EF90DF90CF90BF90AE
:1007B000AF909F908F900F900BBE0F900FBE0F9039
:1007C0001F901895A701960119A2CE0181967C0170
:1007D0008AE0882E912CA12CB12CCA01B901A50167
:1007E00094010E942905605DF70162937F01211544
:1007F00031054105510589F79ECF789484B5826013
:1008000084BD84B5816084BD85B5826085BD85B5B4
:10081000816085BD80916E00816080936E00109232
:1008200081008091810082608093810080918100AD
:10083000816080938100809180008160809380003E
:100840008091B10084608093B1008091B00081609C
:100850008093B0008091910082608093910080919C
:1008600091008160809391008091900081608093DD
:1008700090008091A10082608093A1008091A100EE
:1008800081608093A1008091A00081608093A0008E
:1008900080912101826080932101809121018160FA
:1008A00080932101809120018160809320018091BB
:1008B0007A00846080937A0080917A0082608093CD
:1008C0007A0080917A00816080937A0080917A002A
:1008D000806880937A001092C100E0915E02F091EE
:1008E0005F0282E08083E0915A02F0915B02108205
:1008F000E0915C02F0915D028FEC808310926602C1
:10090000E0916202F091630286E08083E0916002F0
:10091000F0916102808180618083E0916002F091BA
:100920006102808188608083E0916002F0916102C1
:10093000808180688083E0916002F0916102808113
:100940008F7D80838BE192E00E94930262E085E3D9
:100950000E944A0261E083E30E944A0260E084E36D
:100960000E944A028CB580648CBD8CB580688CBDB9
:100970008CB580688CBD8BE192E00E94930286E387
:10098000E82E82E0F82E80914302909144020D9768
:1009900069F589E292E00E948602F7010190002049
:1009A000E9F78F0107531240B8016F5F7F4F90E066
:1009B00080E00E947806EC010097D9F0188266E387
:1009C00072E00E946207A801BE018EE492E00E94DC
:1009D000160188E192E00E94860210924402109271
:1009E0004302209719F0CE010E94EF050E941902E0
:1009F000CACF10E000E0E7CFEEE4F2E0138212820B
:100A000088EE93E0A0E0B0E084839583A683B7836B
:100A10008AE092E09183808385EC90E095878487DB
:100A200084EC90E09787868780EC90E0918B808BB8
:100A300081EC90E0938B828B82EC90E0958B848BA1
:100A400086EC90E0978B868B118E128E138E148E0F
:100A50000895A1E21A2EAA1BBB1BFD010DC0AA1FFF
:100A6000BB1FEE1FFF1FA217B307E407F50720F017
:100A7000A21BB30BE40BF50B661F771F881F991F92
:100A80001A9469F760957095809590959B01AC01DB
:100A9000BD01CF010895EE0FFF1F881F8BBF079088
:100AA000F691E02D19940F931F93CF93DF9382302B
:100AB000910510F482E090E0E091ED02F091EE02F9
:100AC00030E020E0B0E0A0E0309799F42115310546
:100AD00009F44AC0281B390B24303105D8F58A8126
:100AE0009B816115710589F1FB0193838283FE016E
:100AF00011C0408151810281138148175907E0F0EC
:100B00004817590799F4109761F012960C931297B1
:100B100013961C933296CF01DF91CF911F910F91C5
:100B200008950093ED021093EE02F4CF21153105E4
:100B300051F04217530738F0A901DB019A01BD01BA
:100B4000DF01F801C1CFEF01F9CF9093EE0280935E
:100B5000ED02CDCFFE01E20FF31F8193919322505E
:100B6000310939832883D7CF2091EB023091EC02F1
:100B7000232B41F420910202309103023093EC02C6
:100B80002093EB02209100023091010221153105E2
:100B900041F42DB73EB74091040250910502241B49
:100BA000350BE091EB02F091EC02E217F307A0F4B1
:100BB0002E1B3F0B2817390778F0AC014E5F5F4FB3
:100BC0002417350748F04E0F5F1F5093EC024093F7
:100BD000EB02819391939FCFF0E0E0E09CCFCF9325
:100BE000DF930097E9F0FC01329713821282A09103
:100BF000ED02B091EE02ED0130E020E01097A1F49B
:100C000020813181820F931F2091EB023091EC0201
:100C10002817390709F061C0F093EC02E093EB026A
:100C2000DF91CF910895EA01CE17DF07E8F54A81F9
:100C30005B819E0141155105B1F7E901FB83EA8310
:100C400049915991C40FD51FEC17FD0761F48081BC
:100C500091810296840F951FE9019983888382818F
:100C600093819B838A83F0E0E0E012968D919C91C2
:100C700013970097B9F52D913C911197CD010296EC
:100C8000820F931F2091EB023091EC022817390755
:100C900039F6309751F51092EE021092ED02B093B2
:100CA000EC02A093EB02BCCFD383C283408151817D
:100CB000840F951FC817D90761F44E5F5F4F888175
:100CC0009981480F591F518340838A819B81938367
:100CD00082832115310509F0B0CFF093EE02E09345
:100CE000ED029ECFFD01DC01C0CF13821282D7CF6F
:100CF0004F925F926F927F928F929F92AF92BF922C
:100D0000CF92DF92EF92FF920F931F93CF93DF93D7
:100D10008C01009799F4CB01DF91CF911F910F9136
:100D2000FF90EF90DF90CF90BF90AF909F908F900B
:100D30007F906F905F904F900C945305FC01E60FED
:100D4000F71F9C0122503109E217F30708F4AEC0E7
:100D5000D901CD91DC911197C617D70720F1C53085
:100D6000D10578F0CE0104978617970750F0C61B7F
:100D7000D70B2297C193D1936D937C93CF010E949F
:100D8000EF05C801DF91CF911F910F91FF90EF9078
:100D9000DF90CF90BF90AF909F908F907F906F909B
:100DA0005F904F9008955B01AC1ABD0A4C018C0E08
:100DB0009D1EA091ED02B091EE02512C412CF12C20
:100DC000E12C109731F58091EB029091EC0288159F
:100DD000990509F05CC04616570608F058C0809186
:100DE000000290910102009741F48DB79EB74091A7
:100DF000040250910502841B950BE817F90708F0CF
:100E000055C0F093EC02E093EB02F901718360832B
:100E1000B8CF8D919C91119712966C901297139662
:100E20007C901397A815B90559F56C0142E0C40EE2
:100E3000D11CCA14DB0420F1AC014A195B09DA01A8
:100E40001296159780F06282738251834083D90194
:100E50006D937C93E114F10471F0D7011396FC9328
:100E6000EE9312978ECF22968C0F9D1FF9019183DE
:100E70008083F301EFCFF093EE02E093ED0281CF98
:100E80004816590608F42C017D01D3019ACFCB01F5
:100E90000E9453057C01009749F0AE01B8010E9401
:100EA0005907C8010E94EF0587016BCF10E000E0F1
:100EB00068CFFB01DC0102C001900D92415050400F
:100EC000D8F70895FB01DC0101900D920020E1F7B5
:060ED0000895F894FFCF25
:100ED6000000EF02800000000000AC011601430193
:100EE600F9017401520166010D0A00546869732004
:100EF600697320736C617665005265636569766512
:060F0600643A20003D00EA
:00000001FF
