:100000000C9435010C9466010C9466010C94660105
:100010000C9466010C9466010C9466010C946601C4
:100020000C9466010C9466010C9466010C946601B4
:100030000C9466010C9466010C9466010C946601A4
:100040000C9466010C9466010C9466010C94660194
:100050000C9466010C9466010C9466010C94E30404
:100060000C9466010C9466010C9466010C94660174
:100070000C9466010C9466010C9466010C94660164
:100080000C9466010C9466010C9466010C94660154
:100090000C9466010C9466010C9466010C94660144
:1000A0000C9466010C9466010C9466010C94660134
:1000B0000C9466010C9466010C9466010C94660124
:1000C0000C9466010C9466010C9466010C94660114
:1000D0000C9466010C9466010C9466010C94660104
:1000E0000C9466010C9458020C9488030C944602FC
:1000F0000C94B8020C944C020C9489030C945B028F
:100100000C9454020C9481020C9450020C947902C9
:100110000C94E9020C9473020C9486020C946B020A
:100120000C947D020C946F020C9487020C942903AA
:100130000C945E070C948B020C9465020C94610283
:100140000C94FB010C94DD04000021002400270026
:100150002A002D00300033000101000004010701D6
:100160000A0100002200250028002B002E0031008B
:10017000340002010000050108010B01000020000D
:100180002300260029002C002F003200000100006F
:10019000030106010901050505050705080808080A
:1001A000020202020A0A080804040404010101010F
:1001B000010101010303030303030303040707070A
:1001C0000C0C0C0C0C0C0C0C0202020206060606AF
:1001D000060606060B0B0B0B0B0B0B0B010210207C
:1001E000200808102040102040800201020108046D
:1001F0000201010204081020408080402010080401
:100200000201800402018040201008040201080459
:10021000020101020408102040800102040810209D
:10022000408000000A0B02090C0D0E0807030401B0
:1002300000000000000000000000000000000000BE
:10024000000000000000000000000000000012118B
:10025000100000000000000000000000000000008E
:1002600000000000000000005E0711241FBECFEF59
:10027000D1E2DEBFCDBF00E00CBF12E0A0E0B2E0F3
:10028000EEEBFFE000E00BBF02C007900D92A4353B
:10029000B107D9F722E0A4E5B2E001C01D92A43E67
:1002A000B207E1F711E0C5E3D1E000E006C0219715
:1002B0000109802FFE010E94D507C433D10780E0D9
:1002C0000807A9F70E942D050C94DD070C94000087
:1002D00096E0899FD0011124A35ABD4F90967C933C
:1002E0006E935F9791E091969C939197E091CA02EB
:1002F000F091CB029091C902992339F0309751F0D7
:10030000811108C0809179021994309719F05C9698
:100310008C91FACF0895CF92DF92EF92FF920F93D4
:100320001F9396E0899FF0011124E35AFD4F11A21B
:10033000278D30A12130310551F178F0223031057F
:1003400009F451C02330310509F452C01F910F91B7
:10035000FF90EF90DF90CF9008956623B9F361E0AE
:1003600070E00E9468012FB7F89480915902909133
:100370005A02A0915B02B0915C022FBF8093B5023C
:100380009093B602A093B702B093B802DFCF9FB7A5
:10039000F894C0905902D0905A02E0905B02F0901D
:1003A0005C029FBF0091B5021091B6022091B70286
:1003B0003091B802C01AD10AE20AF30A0091C702CA
:1003C0001091C80230E020E00C151D052E053F05F8
:1003D00050F462E070E01F910F91FF90EF90DF907A
:1003E000CF900C9468016111B1CF63E070E0F3CF5E
:1003F00070E060E0F0CFAF92BF92CF92DF92EF92C9
:10040000FF920F931F93CF93DF936C017B018B01BE
:10041000040F151FEB015E01AE18BF08C017D1070E
:1004200059F06991D601ED91FC910190F081E02D98
:10043000C6011995892B79F7C501DF91CF911F91DD
:100440000F91FF90EF90DF90CF90BF90AF90089505
:100450008150823108F05AC0E82FF0E08827EC5C28
:10046000FD4F8F4F0C94D5075402580246024C02A0
:10047000500286025B02610265026B026F02730228
:1004800079027D028602810287028B0280918000C0
:100490008F77809380000895809180008F7DF9CFC1
:1004A00080918000877FF5CF84B58F7784BD0895D4
:1004B00084B58F7DFBCF8091B0008F778093B000A3
:1004C00008958091B0008F7DF9CF809190008F7753
:1004D000809390000895809190008F7DF9CF809156
:1004E0009000877FF5CF8091A0008F778093A00048
:1004F00008958091A0008F7DF9CF8091A000877F23
:10050000F5CF809120018F7780932001089580910D
:1005100020018F7DF9CF80912001877FF5CFCF9388
:10052000DF93282F30E0F901EE5DFD4F8491F90152
:10053000E452FE4FD491F901EA56FE4FC491CC2308
:10054000A1F081110E942802EC2FF0E0EE0FFF1FB6
:10055000E458FE4FA591B491EC91ED2381E090E039
:1005600009F480E0DF91CF91089580E090E0FACF28
:10057000862F0C948F021F93CF93DF93282F30E0A8
:10058000F901EE5DFD4F8491F901E452FE4FD491E3
:10059000F901EA56FE4FC491CC23A9F0162F811120
:1005A0000E942802EC2FF0E0EE0FFF1FEE59FE4FE5
:1005B000A591B4918FB7F894EC91111108C0D09522
:1005C000DE23DC938FBFDF91CF911F910895DE2B47
:1005D000F8CF862F642F0C94BB02CF93DF9390E06B
:1005E000FC01E452FE4F24918A569E4FFC018491F7
:1005F0008823C9F090E0880F991FFC01E85BFE4F4B
:10060000A591B491FC01EE59FE4FC591D4916111B1
:100610000DC09FB7F8948C91209582238C9388818C
:10062000282328839FBFDF91CF910895623051F432
:100630009FB7F8943C91822F809583238C93E88117
:100640002E2BEFCF8FB7F894EC912E2B2C938FBFDE
:10065000EACF862F642F0C94ED023FB7F894809177
:10066000550290915602A0915702B091580226B5BA
:10067000A89B05C02F3F19F00196A11DB11D3FBFDA
:10068000BA2FA92F982F8827BC01CD01620F711DA9
:10069000811D911D42E0660F771F881F991F4A95A3
:1006A000D1F708958F929F92AF92BF92CF92DF922F
:1006B000EF92FF920E942D034B015C0184EFC82E44
:1006C000DD24D394E12CF12C0E942D0368197909C3
:1006D0008A099B09683E734081059105A8F321E0D2
:1006E000C21AD108E108F10888EE880E83E0981E4E
:1006F000A11CB11CC114D104E104F10429F7FF903D
:10070000EF90DF90CF90BF90AF909F908F90089523
:10071000089590E080E00895CF93DF93EC0160E0CE
:100720008E810E94BB0261E08E810E94BB0260E06C
:100730008E810E94BB028BE891E00197F1F7DF9177
:10074000CF910895CF92DF92EF92FF920F931F9374
:10075000CF93DF936C017C0187E0E80EF11CD0E0C1
:10076000C0E0062F10E0B8010C2E02C07595679509
:100770000A94E2F76170F70181917F010E94BB0248
:100780002196C430D10579F7C601DF91CF911F9131
:100790000F91FF90EF90DF90CF900C948C03CF924D
:1007A000DF92EF92FF920F931F93CF93DF93EC01B1
:1007B000F62E642F8C810E94BB028D818F3F19F031
:1007C00060E00E94BB020F2D10E08F8584FF25C0E2
:1007D0006E0187E0C80ED11CF12CE12CB8010E2C63
:1007E00002C0759567950A94E2F76170F6018191F0
:1007F0006F010E94BB02FFEFEF1AFF0A88E0E816C4
:10080000F10461F7CE01DF91CF911F910F91FF901D
:10081000EF90DF90CF900C948C03B80184E0759535
:1008200067958A95E1F7CE010E94A2036F2DCE0154
:10083000DF91CF911F910F91FF90EF90DF90CF90BC
:100840000C94A20340E0682F8CEC92E00C94CF0350
:10085000CF93DF93823029F49091DB0298609093DC
:10086000DB028093DF021092E00280E48093E102D9
:1008700080E18093E20280E58093E30261E0809171
:10088000D0020E94ED028091D1028F3F19F061E009
:100890000E94ED0261E08091D2020E94ED02CCEC58
:1008A000D2E09E012C5C32408091DB0284FD0BC0C3
:1008B00084E090E021962817390744F461E08E81A6
:1008C0000E94ED02EECF88E090E0F4CF8BE39DE054
:1008D0000197F1F760E08091D0020E94BB0260E0D6
:1008E0008091D2020E94BB028091D1028F3F19F009
:1008F00060E00E94BB028091DB0284FD39C063E0AE
:100900008CEC92E00E94A203CBE4D6E4CE010197E6
:10091000F1F763E08CEC92E00E94A2032197F1F7DB
:1009200063E08CEC92E00E94A20383E592E00197E1
:10093000F1F762E08CEC92E00E94A2038091DB026E
:1009400080620E94220484E08093DC028CE00E949A
:10095000220481E00E9422048BE39FE10197F1F7DA
:1009600082E08093DD0286E0DF91CF910C94220437
:1009700080620E9422048BE496E40197F1F7809153
:10098000DB0280620E94220483E592E00197F1F786
:100990008091DB0280620E942204D0CF9091DF021E
:1009A000691710F06FEF690FE62FF0E0E453FD4F89
:1009B0009489890F80680C94220441E00E94CF033F
:1009C00081E090E008951F920F920FB60F921124CC
:1009D0002F933F938F939F93AF93BF93809159022F
:1009E00090915A02A0915B02B0915C023091540246
:1009F00023E0230F2D3758F50196A11DB11D20933B
:100A000054028093590290935A02A0935B02B093D0
:100A10005C028091550290915602A0915702B091CC
:100A200058020196A11DB11D809355029093560264
:100A3000A0935702B0935802BF91AF919F918F91AD
:100A40003F912F910F900FBE0F901F90189526E8A1
:100A5000230F0296A11DB11DD2CFCF93DF93CDB747
:100A6000DEB760970FB6F894DEBF0FBECDBF7894A7
:100A700084B5826084BD84B5816084BD85B58260A3
:100A800085BD85B5816085BD80916E008160809354
:100A90006E001092810080918100826080938100BD
:100AA00080918100816080938100809180008160CD
:100AB000809380008091B10084608093B100809128
:100AC000B00081608093B00080919100826080933B
:100AD00091008091910081608093910080919000BD
:100AE0008160809390008091A10082608093A1003A
:100AF0008091A10081608093A1008091A00081601D
:100B00008093A000809121018260809321018091D7
:100B10002101816080932101809120018160809377
:100B2000200180917A00846080937A0080917A001D
:100B3000826080937A0080917A00816080937A004D
:100B400080917A00806880937A001092C10082E0E0
:100B50000E94280460E080E00E94CE046E0128E03C
:100B6000C20ED11C412C512C3201439487E0F60176
:100B700011928A95E9F780E38887F12CE12CF1E066
:100B8000F093C9028FB7F8944091590250915A02DC
:100B900060915B0270915C028FBF8091B90290916D
:100BA000BA02A091BB02B091BC02481B590B6A0B60
:100BB0007B0B8091C5029091C602B0E0A0E0841743
:100BC0009507A607B707D8F610E08091C30218175B
:100BD00060F4E091BF02F091C002E10FF11D62E00C
:100BE00080810E94ED021F5FF0CF312C8091C40202
:100BF000381608F064C0032D10E0E091C102F091B6
:100C0000C202E00FF11F61E080810E94ED02E091DD
:100C1000C102F091C202E00FF11F60E080810E94EA
:100C2000BB0253014201032C04C0880C991CAA1C6E
:100C3000BB1C0A94D2F7988A8F8680949094212CBA
:100C40008091C302281620F5A22CB12CE091BF029E
:100C5000F091C002EA0DFB1D80810E948F02950178
:100C60002C5F3F4FF901EE0FFF1FE35AFD4F892B19
:100C700051F4808191812F853889822B932B918328
:100C800080832394DDCF8081918188219921F7CFC2
:100C9000E091C102F091C202E00FF11F61E080819A
:100CA0000E94BB028091C1029091C202080F191FDD
:100CB00060E0F80180810E94ED02339497CF9DE5BA
:100CC000A92E92E0B92E8501F801878D90A1892B7C
:100CD00031F4148E2FEF3FEF368F258F11A20A5F6C
:100CE0001F4F32E00939130779F7912C8091C30225
:100CF000981608F053C0812C292C312C220C331C5F
:100D0000C1018B599D4F1C012091C402821608F02D
:100D100043C0F10160817181082C02C0769567950E
:100D20000A94E2F7929E90011124280D311DEDE501
:100D3000F2E080E0458D568D2417350709F4BCC0DC
:100D40008F5F36968A30B1F760FF24C0EDE5F2E0A0
:100D500090E080E0448D411118C0E091BD02F09117
:100D6000BE02E20FF31F408156E0589FF001599FE9
:100D7000F00D1124E35AFD4F448F368F258F10A2BA
:100D8000178E61E00E948B0105C0019636968A306D
:100D9000910501F78394B8CF9394A8CF80E0F50133
:100DA00091A19111892FF6E0AF0EB11C0A151B0518
:100DB000B1F79FB7F8944091590250915A0260914F
:100DC0005B0270915C029FBF4093B9025093BA02DC
:100DD0006093BB027093BC02882309F4D0CE80914B
:100DE0007E02882309F4CBCE80917C0290917D0213
:100DF000019709F0C4CEB0907902BB2009F4BFCEB0
:100E000080ED8B0D8A3098F487010F5F1F4F60E0F3
:100E10008E2D0E94CE0441E06B2D8CEC92E00E945E
:100E2000CF03F601EE0DFF1DB0827801A8CE2DE3B1
:100E3000B212A5CE37E0E31229C087E0E0E1F2E08C
:100E4000DE01119601900D928A95E1F7FE0131962F
:100E5000D60191918D91981319C0CE16DF06C9F76E
:100E600061E080E00E94CE044FE050E063E472E075
:100E70008CEC92E00E94FB010E94520380E090E023
:100E8000892B09F473CE0E94000070CE61E080E0EF
:100E90000E94CE044DE050E065E372E08CEC92E0FD
:100EA0000E94FB010E94520381E00E9422048BE316
:100EB0009FE10197F1F761CE617064CF1092CF028C
:100EC0001092CE0285E292E09093CD028093CC0204
:100ED0008DE08093D0028FEF8093D1028CE08093DD
:100EE000D20288E08093D30289E08093D4028AE022
:100EF0008093D5028BE08093D6021092D702109295
:100F0000D8021092D9021092DA021092DB0281E02C
:100F10000E94280410925F021092630210926202F3
:100F2000109264028BE192E090935E0280935D02E6
:100F3000E9E7F2E01082148213821582369682E08D
:100F4000E53BF807B9F781E392E09093C002809304
:100F5000BF028DE292E09093C2028093C10284E0CE
:100F60008093C3028093C40280E092E09093BE021B
:100F70008093BD028AE090E09093C6028093C50200
:100F800084EF91E09093C8028093C7021092CB0245
:100F90001092CA021092B9021092BA021092BB02C9
:100FA0001092BC021092C9020895EE0FFF1F881F15
:0E0FB0008BBF0790F691E02D1994F894FFCFB7
:100FBE003738392F3435362A3132332D43303D2BE5
:100FCE0039383331313339000000002903E902B8D2
:100FDE000200000000DD04FB0189038803212223A7
:100FEE00241D1E1F2077726F6E6720706173776FDE
:100FFE00726400636F727265637420706173776FD1
:04100E007264000008
:00000001FF
